:100000000C942D000C945C020C945C020C945C0229
:100010000C945C020C945C020C945C020C945C02E8
:100020000C945C020C945C020C945C020C945C02D8
:100030000C945C020C945C020C945C020C945C02C8
:100040000C945C020C945C020C945C020C945C02B8
:100050000C945C0200600062800011241FBECFE59A
:10006000D8E0DEBFCDBFE4E5F0E040E017C0B591D9
:10007000A59135912591059107FD0CC0959185912C
:10008000EF01F92FE82F05900D92A217B307D9F7CA
:10009000FE0104C01D92A217B307E1F7E935F4078A
:0E00A00031F70E9427020C945500F894FFCF10
:1000AE00683008F075C0813011F130F08230D1F136
:1000BE00833009F452C06EC0442361F02AB381E04C
:1000CE0090E002C0880F991F6A95E2F7822B8ABBD7
:1000DE0080E008952AB381E090E002C0880F991F56
:1000EE006A95E2F7809582238ABB80E008954423C7
:1000FE0061F027B381E090E002C0880F991F6A95E6
:10010E00E2F7822B87BB80E0089527B381E090E071
:10011E0002C0880F991F6A95E2F78095822387BBEC
:10012E0080E00895442361F024B381E090E002C0A2
:10013E00880F991F6A95E2F7822B84BB80E00895A1
:10014E0024B381E090E002C0880F991F6A95E2F710
:10015E008095822384BB80E00895442361F021B30F
:10016E0081E090E002C0880F991F6A95E2F7822B1A
:10017E0081BB80E0089521B381E090E002C0880F3A
:10018E00991F6A95E2F78095822381BB80E00895DE
:08019E0082E0089581E008955C
:1001A600683008F075C0813011F130F08230D1F13D
:1001B600833009F452C06EC0442361F02BB381E052
:1001C60090E002C0880F991F6A95E2F7822B8BBBDD
:1001D60080E008952BB381E090E002C0880F991F5C
:1001E6006A95E2F7809582238BBB80E008954423CD
:1001F60061F028B381E090E002C0880F991F6A95EC
:10020600E2F7822B88BB80E0089528B381E090E076
:1002160002C0880F991F6A95E2F78095822388BBF2
:1002260080E00895442361F025B381E090E002C0A8
:10023600880F991F6A95E2F7822B85BB80E00895A7
:1002460025B381E090E002C0880F991F6A95E2F716
:100256008095822385BB80E00895442361F022B314
:1002660081E090E002C0880F991F6A95E2F7822B21
:1002760082BB80E0089522B381E090E002C0880F3F
:10028600991F6A95E2F78095822382BB80E00895E4
:0802960082E0089581E0089563
:10029E00E0E6F0E010821182683020F082E0809378
:1002AE00600037C0813089F028F08230C9F0833089
:1002BE0011F12CC089B390E002C0959587956A958F
:1002CE00E2F781708093610024C086B390E002C093
:1002DE00959587956A95E2F781708093610019C0B4
:1002EE0083B390E002C0959587956A95E2F7817089
:1002FE00809361000EC080B390E002C09595879503
:10030E006A95E2F781708093610003C081E080936B
:0C031E00600080916000909161000895E3
:10032A008330A9F0873051F08230D1F462E00E9424
:10033A004F01909361008093600015C067E082E0EE
:10034A000E944F0190936100809360000CC062E0AC
:10035A0083E00E944F01909361008093600003C084
:10036A0083E080936000809160009091610008951D
:10037A008230A1F0863051F0811118C040E060E06F
:10038A0081E00E9457008093600013C040E066E05D
:10039A0083E00E945700809360000BC040E062E057
:1003AA0083E00E9457008093600003C083E080933B
:0803BA006000809160000895CD
:1003C200833099F0873049F08230B9F441E062E03D
:1003D2000E9457008093600013C041E067E082E012
:1003E2000E945700809360000BC041E062E083E00E
:1003F2000E9457008093600003C083E080936000F6
:06040200809160000895E6
:10040800833099F0873049F08230B9F4462F62E0A2
:100418000E94D3008093600013C0462F67E082E0FB
:100428000E94D300809360000BC0462F62E083E0F7
:100438000E94D3008093600003C083E08093600033
:06044800809160000895A0
:10044E000E944C0281110EC00E943C0281110AC012
:10045E0082E00E9495019111FBCF61E082E00E9443
:0A046E000402F6CF80E090E008954C
:1004780082E00E94E101811108C087E00E94E10149
:10048800811103C083E00E94E1018091600008951A
:1004980080E00E94BD01811108C086E00E94BD0174
:1004A800811103C082E00E94BD018091600008951F
:0404B8000C940000A0
:00000001FF
