:100000000C9433000C9459020C9450050C94500538
:100010000C9450050C9450050C9450050C9450050C
:100020000C9450050C9450050C9450050C94A303AB
:100030000C9450050C9450050C9450050C945005EC
:100040000C94B9020C9450050C9450050C94500576
:100050000C945005006000628000620082000AA4D7
:1000600000820083800011241FBECFE5D8E0DEBFF0
:10007000CDBFE4E5F0E040E017C0B591A591359122
:100080002591059107FD0CC095918591EF01F92F00
:10009000E82F05900D92A217B307D9F7FE0104C00F
:1000A0001D92A217B307E1F7E536F40731F70E9476
:0A00B00093040C945B00F894FFCF5A
:1000BA00109260008830E8F4662369F04BB321E0BF
:1000CA0030E0B90102C0660F771F8A95E2F7CB01CB
:1000DA00842B8BBBD6C04BB321E030E0B90102C000
:1000EA00660F771F8A95E2F7CB01809584238BBB35
:1000FA00C8C098EF980F9830E8F4662369F048B3BF
:10010A0021E030E0B90102C0660F771F9A95E2F745
:10011A00CB01842B88BBB5C048B321E030E0B901DC
:10012A0002C0660F771F9A95E2F7CB018095842368
:10013A0088BBA7C090EF980F9830E8F4662369F05F
:10014A0045B321E030E0B90102C0660F771F9A95E6
:10015A00E2F7CB01842B85BB94C045B321E030E0A4
:10016A00B90102C0660F771F9A95E2F7CB01809515
:10017A00842385BB86C098EE980F9830E8F46623EE
:10018A0069F042B321E030E0B90102C0660F771F7F
:10019A009A95E2F7CB01842B82BB73C042B321E06C
:1001AA0030E0B90102C0660F771F9A95E2F7CB01DA
:1001BA008095842382BB65C090EE980F9830E8F44E
:1001CA00662369F047B121E030E0B90102C0660F49
:1001DA00771F9A95E2F7CB01842B87B952C047B1B2
:1001EA0021E030E0B90102C0660F771F9A95E2F765
:1001FA00CB018095842387B944C098ED980F983035
:10020A00E8F4662369F046B121E030E0B90102C0A2
:10021A00660F771F9A95E2F7CB01842B86B931C016
:10022A0046B121E030E0B90102C0660F771F9A9506
:10023A00E2F7CB018095842386B923C080538830A6
:10024A00E8F4662369F040B721E030E0B90102C062
:10025A00660F771F8A95E2F7CB01842B80BF11C006
:10026A0040B721E030E0B90102C0660F771F8A95D6
:10027A00E2F7CB018095842380BF03C083E080939B
:08028A006000809160000895FE
:10029200109260008830E8F4662369F04AB321E0E6
:1002A20030E0B90102C0660F771F8A95E2F7CB01F1
:1002B200842B8ABB73C04AB321E030E0B90102C08B
:1002C200660F771F8A95E2F7CB01809584238ABB5C
:1002D20065C098EF980F9830E8F4662369F047B349
:1002E20021E030E0B90102C0660F771F9A95E2F76C
:1002F200CB01842B87BB52C047B321E030E0B90168
:1003020002C0660F771F9A95E2F7CB01809584238E
:1003120087BB44C090EF980F9830E8F4662369F0E9
:1003220044B321E030E0B90102C0660F771F9A950D
:10033200E2F7CB01842B84BB31C044B321E030E02F
:10034200B90102C0660F771F9A95E2F7CB0180953B
:10035200842384BB23C088518830E8F4662369F083
:1003620041B321E030E0B90102C0660F771F8A95E0
:10037200E2F7CB01842B81BB11C041B321E030E015
:10038200B90102C0660F771F8A95E2F7CB0180950B
:10039200842381BB03C083E080936000809160006E
:0203A2000895BC
:1003A400E0E6F0E010821182883070F44BB321E073
:1003B40030E0B90102C0660F771F8A95E2F7CB01DE
:1003C4008423809361006EC098EF980F983070F486
:1003D40048B321E030E0B90102C0660F771F9A9557
:1003E400E2F7CB018423809361005CC090EF980F07
:1003F400983070F445B321E030E0B90102C0660FD3
:10040400771F9A95E2F7CB018423809361004AC059
:1004140098EE980F983070F442B321E030E0B901BF
:1004240002C0660F771F9A95E2F7CB01842380936D
:10043400610038C090EE980F983070F447B121E015
:1004440030E0B90102C0660F771F9A95E2F7CB013D
:1004540084238093610026C098ED980F983070F43F
:1004640046B121E030E0B90102C0660F771F9A95CA
:10047400E2F7CB0184238093610014C08053883059
:1004840070F440B721E030E0B90102C0660F771F75
:100494008A95E2F7CB0184238093610003C083E053
:0E04A400809360008091600090916100089547
:1004B2001F920F920FB60F9211241F932F933F9307
:1004C2004F935F936F937F938F939F93AF93BF935A
:1004D200CF93DF93EF93FF9361E080E10E943F05AA
:1004E20061E081E10E943F0561E082E10E943F05F7
:1004F200DBE0C1E010E02FEF81EE94E0215080407C
:100502009040E1F700C0000082E10E9448056C2F94
:10051200913009F4612F82E10E943F0581E10E943E
:1005220048056C2F913009F4612F81E10E943F054B
:1005320080E10E9448056C2F913009F4612F80E11F
:100542000E943F05D150B9F6FF91EF91DF91CF9113
:10055200BF91AF919F918F917F916F915F914F91D9
:100562003F912F911F910F900FBE0F901F901895E2
:100572001F920F920FB60F9211242F933F934F9316
:100582005F936F937F938F939F93AF93BF93EF93F9
:10059200FF9381E00E940B030E9477040E941304E0
:1005A2002FEF83ED90E3215080409040E1F700C0AF
:1005B200000066B1607181E10E943F0566B160741E
:1005C20082E10E943F052FEF83ED90E321508040AE
:1005D2009040E1F700C000008FE00E94350566B14F
:1005E200607482E10E943F0566B1607181E10E9400
:1005F2003F05FF91EF91BF91AF919F918F917F91B5
:100602006F915F914F913F912F910F900FBE0F907D
:040612001F90189588
:10061600CF92DF92EF92FF920F931F93CF93DF93C8
:10062600F82E60E089E00E945D0060E08AE00E94AA
:100636005D0007E010E0CFE1EF2CCC24C394D12C71
:10064600DE2DB601002E02C0660F771F0A94E2F770
:100656006F218C2F0E945D00C15001501109CB31D2
:1006660079F70E94040503E010E0CFE1EE24E3945D
:10067600F12CB701002E02C0660F771F0A94E2F72D
:100686006D238C2F0E945D00C15001501109CB31A2
:1006960081F70E940405DF91CF911F910F91FF9082
:0806A600EF90DF90CF90089562
:1006AE00CF92DF92EF92FF920F931F93CF93DF9330
:1006BE00F82E60E089E00E945D0061E08AE00E9411
:1006CE005D0007E010E0CFE1EF2CCC24C394D12CD9
:1006DE00DE2DB601002E02C0660F771F0A94E2F7D8
:1006EE006F218C2F0E945D00C15001501109CB313A
:1006FE0079F70E94040503E010E0CFE1EE24E394C5
:10070E00F12CB701002E02C0660F771F0A94E2F794
:10071E006D238C2F0E945D00C15001501109CB3109
:10072E0081F70E940405DF91CF911F910F91FF90E9
:08073E00EF90DF90CF900895C9
:100746001F920F920FB60F9211242F933F934F9340
:100756005F936F937F938F939F93AF93BF93EF9323
:10076600FF93809182008F5F8093820080E10E94D8
:10077600480561E0911160E080E10E943F058091AB
:10078600820090E00E9413042FEF83ED90E3215046
:1007960080409040E1F700C00000FF91EF91BF91CB
:1007A600AF919F918F917F916F915F914F913F9103
:0C07B6002F910F900FBE0F901F90189510
:1007C2000E94E3040E94130582E00E940B038FE95A
:1007D2009FE00197F1F700C0000088E20E940B033E
:1007E2008FE99FE00197F1F700C000008FE00E94BF
:1007F2000B038FE99FE00197F1F700C0000081E051
:100802000E940B038FE99FE00197F1F700C00000FF
:1008120080E80E940B038FE99FE00197F1F700C087
:040822000000089535
:100826000F931F93CF93DF93CDB7DEB72B970FB6FA
:10083600F894DEBF0FBECDBF8E010F5F1F4F2BE0BA
:10084600F80111922A95E9F74AE0B8010E942005BD
:10085600C8010E9439042B960FB6F894DEBF0FBE6E
:0C086600CDBFDF91CF911F910F9108953D
:100872001F93CF93DF93EC01892BC1F08881811103
:100882000DC014C0103159F480EC0E940B038FE9A3
:100892009FE00197F1F700C0000001C010E08991CC
:1008A2000E9457031F5F88818111ECCFDF91CF91A6
:0408B2001F910895F5
:1008B6000F9380E10E942B0581E00E940B038FE3DA
:1008C6009CE90197F1F700C0000000E021E040E05C
:1008D60060E082E00E94AE048FE891E00197F1F7B4
:0808E60000C000000F9108950D
:1008EE00CF93DF9300D0CDB7DEB73D9B0AC084B166
:1008FE0025B130E4839FC0011124922B9A83898302
:10090E0004C084B1898385B18A8389819A810F90CD
:08091E000F90DF91CF910895C5
:100926000E94E1038FE39CE90197F1F700C0000004
:1009360082E690E00E9439049FEF23ED80E3915018
:1009460020408040E1F700C0000078940E945B04DC
:0609560080E090E008952E
:10095C000F93222321F099B7916099BF03C099B7E7
:10096C009E7F99BF002321F099B7926099BF03C075
:10097C0099B79D7F99BF68744073462B8770842B01
:06098C0083BF0F910895E6
:10099200BB27FB015527AA27880F991FAA1FA41757
:1009A20010F0A41B83955051B9F7A05DAA3308F04B
:1009B200A95DA193009779F7B111B1931192CB017F
:0409C2000C94F40499
:1009C60061E08CE10E94490161E08DE10E944901EC
:1009D60061E08EE10E94490161E08FE10E944901D8
:0209E600089572
:1009E800DC01FC01672F71917723E1F7329704C08E
:1009F8007C916D9370836291AE17BF07C8F3089519
:100A080061E08BE00E945D008FE99FE00197F1F7BC
:0E0A180000C0000060E08BE00E945D000895C9
:100A260061E08AE00E94490161E089E00E94490193
:0A0A360061E08BE00E944901089581
:100A4000BB274A3031F4992322F4BDE29095819579
:060A50009F4F0C94CA0444
:100A560090EF980F933020F461E00E9449010895C9
:040A660083E008958C
:100A6A008F3011F4369A0895807E80BF86B18066F1
:040A7A0086B908959C
:100A7E0090EF980F933018F40E945D00089583E074
:020A8E000895C9
:100A900090EF980F933008F08FEF0E94D2010895E5
:040AA0000C940000B2
:100AA400696E20746865206E616D65206F662061D3
:100AB4006C6C6168206D6F737420472026204D0094
:00000001FF
