:100000000C942D000C94D6040C94D6040C94D604B5
:100010000C94D6040C94D6040C94D6040C94D604F8
:100020000C94D6040C94D6040C94D6040C94D604E8
:100030000C94D6040C94D6040C94D6040C94D604D8
:100040000C9470020C94D6040C94D6040C94D60430
:100050000C94D60400600062800011241FBECFE51E
:10006000D8E0DEBFCDBFE4E5F0E040E017C0B591D9
:10007000A59135912591059107FD0CC0959185912C
:10008000EF01F92FE82F05900D92A217B307D9F7CA
:10009000FE0104C01D92A217B307E1F7E935F4078A
:0E00A00031F70E9458010C945500F894FFCFE0
:1000AE00496E20546865204E616D65204F66204173
:1000BE004C4C4148004E4F5420434F4D504C4554EC
:0A00CE0045442121212121212100B8
:1000D800109260008830E8F4662369F04BB321E0A1
:1000E80030E0B90102C0660F771F8A95E2F7CB01AD
:1000F800842B8BBBD6C04BB321E030E0B90102C0E2
:10010800660F771F8A95E2F7CB01809584238BBB16
:10011800C8C098EF980F9830E8F4662369F048B3A0
:1001280021E030E0B90102C0660F771F9A95E2F727
:10013800CB01842B88BBB5C048B321E030E0B901BE
:1001480002C0660F771F9A95E2F7CB01809584234A
:1001580088BBA7C090EF980F9830E8F4662369F041
:1001680045B321E030E0B90102C0660F771F9A95C8
:10017800E2F7CB01842B85BB94C045B321E030E086
:10018800B90102C0660F771F9A95E2F7CB018095F7
:10019800842385BB86C098EE980F9830E8F46623D0
:1001A80069F042B321E030E0B90102C0660F771F61
:1001B8009A95E2F7CB01842B82BB73C042B321E04E
:1001C80030E0B90102C0660F771F9A95E2F7CB01BC
:1001D8008095842382BB65C090EE980F9830E8F430
:1001E800662369F047B121E030E0B90102C0660F2B
:1001F800771F9A95E2F7CB01842B87B952C047B194
:1002080021E030E0B90102C0660F771F9A95E2F746
:10021800CB018095842387B944C098ED980F983016
:10022800E8F4662369F046B121E030E0B90102C084
:10023800660F771F9A95E2F7CB01842B86B931C0F8
:1002480046B121E030E0B90102C0660F771F9A95E8
:10025800E2F7CB018095842386B923C08053883088
:10026800E8F4662369F040B721E030E0B90102C044
:10027800660F771F8A95E2F7CB01842B80BF11C0E8
:1002880040B721E030E0B90102C0660F771F8A95B8
:10029800E2F7CB018095842380BF03C083E080937D
:0802A8006000809160000895E0
:1002B000CF93DF93CDB7DEB7AA970FB6F894DEBF22
:1002C0000FBECDBF2EEA30E040E085E1F901DE014E
:1002D0001196742F0E9477040E94A5040E94AF0417
:1002E0000E942D040E945D040E94C20227E040E0AB
:1002F00060E480E00E94B90478948FE39CE9019760
:10030000F1F700C0000023EC30E040E085E1F901A6
:10031000DE015696742F0E947704CE0101960E944A
:1003200083039FEF29E688E1915020408040E1F768
:1003300000C0000081E00E94130333988FE00E9408
:10034000C304F12C0F2EF0EDBF2EF02DCC24CA9457
:10035000DD24DA946894EE24E2F866B1607482E1F8
:100360000E94CD0466B1607180E10E94CD040E94BC
:100370006A048C0181E00E941303CE0146960E941C
:10038000830361E00F3F94E0190709F06F2D81E1CD
:100390000E94CD043D9903C08D2D9E2D02C08B2D52
:1003A0009C2D80179107C9F281E00E941303C801B8
:1003B0000E94BA032FEF83ED90E3215080409040DC
:0E03C000E1F700C000008FE00E94C304C6CF2A
:1003CE00109260008830E8F4662369F04AB321E0A9
:1003DE0030E0B90102C0660F771F8A95E2F7CB01B4
:1003EE00842B8ABB73C04AB321E030E0B90102C04E
:1003FE00660F771F8A95E2F7CB01809584238ABB1F
:10040E0065C098EF980F9830E8F4662369F047B30B
:10041E0021E030E0B90102C0660F771F9A95E2F72E
:10042E00CB01842B87BB52C047B321E030E0B9012A
:10043E0002C0660F771F9A95E2F7CB018095842351
:10044E0087BB44C090EF980F9830E8F4662369F0AC
:10045E0044B321E030E0B90102C0660F771F9A95D0
:10046E00E2F7CB01842B84BB31C044B321E030E0F2
:10047E00B90102C0660F771F9A95E2F7CB018095FE
:10048E00842384BB23C088518830E8F4662369F046
:10049E0041B321E030E0B90102C0660F771F8A95A3
:1004AE00E2F7CB01842B81BB11C041B321E030E0D8
:1004BE00B90102C0660F771F8A95E2F7CB018095CE
:1004CE00842381BB03C083E0809360008091600031
:0204DE0008957F
:1004E0001F920F920FB60F9211242F933F934F93A9
:1004F0005F936F937F938F939F93AF93BF93EF938C
:10050000FF9381E00E9413030E94E0030E94BA035C
:100510002FEF83ED90E3215080409040E1F700C041
:10052000000066B1607181E10E94CD0466B1607423
:1005300082E10E94CD042FEF83ED90E321508040B3
:100540009040E1F700C000008FE00E94C30466B154
:10055000607482E10E94CD0466B1607181E10E9405
:10056000CD04FF91EF91BF91AF919F918F917F91BA
:100570006F915F914F913F912F910F900FBE0F9010
:040580001F9018951B
:1005840082E00E94130361E080E10E94CD042FEF1A
:1005940083ED90E3215080409040E1F700C00000DB
:1005A40088E20E94130360E080E10E94CD042FEFF3
:1005B40083ED90E3215080409040E1F700C00000BB
:1005C4008FE00E94130361E080E10E94CD042FEFCD
:1005D40083ED90E3215080409040E1F700C000009B
:1005E40081E00E94130360E080E10E94CD042FEFBC
:1005F40083ED90E3215080409040E1F700C000007B
:1006040080EC0E94130361E080E10E94CD042FEF8F
:1006140083ED90E3215080409040E1F700C000005A
:02062400089537
:10062600CF93C82F60E089E00E946C0060E08AE00A
:100636000E946C006C2F60718CE10E946C006C2F24
:1006460060728DE10E946C006C2F60748EE10E94D6
:100656006C006C2F60788FE10E946C000E944E0443
:100666006C2F61708CE10E946C006C2F62708DE1C2
:100676000E946C006C2F64708EE10E946C006C2FDF
:1006860068708FE10E946C000E944E04CF9108951D
:10069600CF93C82F60E089E00E946C0061E08AE099
:1006A6000E946C006C2F60718CE10E946C006C2FB4
:1006B60060728DE10E946C006C2F60748EE10E9466
:1006C6006C006C2F60788FE10E946C000E944E04D3
:1006D6006C2F61708CE10E946C006C2F62708DE152
:1006E6000E946C006C2F64708EE10E946C006C2F6F
:1006F60068708FE10E946C000E944E04CF910895AD
:10070600EF92FF920F931F93CF93DF93009741F1E0
:100716007C0180E80E9413038FE99FE00197F1F7BF
:1007260000C00000F701808181110BC019C0C031E3
:1007360058F0D11109C060E081E00E941604D1E0B2
:1007460003C08701C0E0D0E0F80180810E944B031E
:10075600CF5F87010C0F111DF80190819111E7CF32
:0E076600DF91CF911F910F91FF90EF900895BA
:100774000F931F93CF93DF93CDB7DEB72B970FB6AD
:10078400F894DEBF0FBECDBF8E010F5F1F4F2BE06D
:10079400F80111922A95E9F74AE0B8010E94900401
:1007A400C8010E9483032B960FB6F894DEBF0FBED8
:0C07B400CDBFDF91CF911F910F910895F0
:1007C000CF93DF9300D0CDB7DEB73D9B0AC084B195
:1007D00025B130E4839FC0011124922B9A83898331
:1007E00004C084B1898385B18A8389819A810F90FD
:0807F0000F90DF91CF910895F5
:1007F800BB27FB015527AA27880F991FAA1FA417F3
:1008080010F0A41B83955051B9F7A05DAA3308F0E6
:10081800A95DA193009779F7B111B1931192CB011A
:040828000C943E04EA
:10082C00603160F4823050F40DC080E801C080EC7F
:10083C00862B0E94130380916000089583E08093BF
:0E084C006000F9CF10926000813079F7F0CF94
:10085A0061E08CE10E94E70161E08DE10E94E7011D
:10086A0061E08EE10E94E70161E08FE10E94E70109
:02087A000895DF
:10087C00DC01FC01672F71917723E1F7329704C0FB
:10088C007C916D9370836291AE17BF07C8F3089586
:10089C0061E08BE00E946C008FE99FE00197F1F71B
:0E08AC0000C0000060E08BE00E946C00089528
:1008BA0061E08AE00E94E70161E089E00E94E701C5
:0A08CA0061E08BE00E94E701089551
:1008D400349B03C00E94E00308953D9903C08FEF49
:0A08E40094E0089580ED9FEF089561
:1008EE00992777FD05C005900D920197E1F70895C0
:0A08FE0001900D920197E1F70895B3
:10090800873021F094EF980F923020F460E00E9435
:08091800E701089583E0089552
:10092000BB274A3031F4992322F4BDE2909581959A
:060930009F4F0C94FD0333
:1009360090EF980F933020F461E00E94E70108954C
:0409460083E00895AD
:10094A0080E10E949B0481E10E949B0482E10E9453
:04095A009B0408955D
:10095E0087E00E9484048CE00E9484048DE00E9453
:04096E008404089560
:100972002770286826B94072607C642B8F71682BBF
:0409820067B90895B4
:100986008F3011F4369A0895807E80BF86B18066D6
:0409960086B9089581
:10099A0090EF980F933018F40E946C00089583E04A
:0209AA000895AE
:0409AC000C940000A7
:00000001FF
