:100000000C9439000C94AC080C946E0D0C946E0D8D
:100010000C946E0D0C946E0D0C946E0D0C946E0D74
:100020000C946E0D0C946E0D0C94990A0C943C0B70
:100030000C946E0D0C9460070C94C60B0C94D40AAF
:100040000C946A090C946E0D0C946E0D0C946E0D4C
:100050000C946E0D006000828000820118001AEC82
:1000600001180138800138015E001B82015E0163C6
:10007000800011241FBECFE5D8E0DEBFCDBFE4E590
:10008000F0E040E017C0B591A5913591259105911B
:1000900007FD0CC095918591EF01F92FE82F059090
:1000A0000D92A217B307D9F7FE0104C01D92A21743
:1000B000B307E1F7E137F40731F70E94650C0C94C0
:0600C0006100F894FFCF7F
:1000C6004E4F5420434F4D504C4554454421212119
:1000D600212121210054454D5020004E65772043B3
:1000E6006F6E76657273696F6E205365742E2E2E51
:0600F60000747261660057
:1000FC007F928F929F92AF92BF92CF92DF92EF92AC
:10010C00FF920F931F93CF93DF93CDB7DEB7182FCA
:10011C00D62EB42E922E7A8810928000970140E051
:10012C0050E060E074E284EF90E00E940D0C622FCE
:10013C00732F842F952FA11001C48110F4C320E1DB
:10014C0030E040E050E0F3C3F0BCE9B8C0FE4CC175
:10015C00C1FEA5C0AA2009F451C02C89222339F173
:10016C008B89882391F070FE08C0769419F080B5C5
:10017C008FEF85C280B58FED82C2769419F080B571
:10018C008FEE7DC280B58FEC7AC270FE08C076947B
:10019C0019F080B587EF73C280B587ED70C2769485
:1001AC0019F080B587EE6BC280B587EC68C22B89DD
:1001BC00222391F070FE08C0769419F080B58EEF72
:1001CC005EC280B58EED5BC2769419F080B58EEE72
:1001DC0056C280B58EEC53C270FE08C0769419F0EE
:1001EC0080B586EF4CC280B586ED49C2769419F085
:1001FC0080B586EE44C280B586EC41C28C898823DA
:10020C0039F12B89222391F070FE08C0769419F0F5
:10021C0080B58FEB34C280B58FE931C2769419F07A
:10022C0080B58FEA2CC280B58FE829C270FE08C059
:10023C00769419F080B587EB22C280B587E91FC28E
:10024C00769419F080B587EA1AC280B587E817C290
:10025C008B89882391F070FE08C0769419F080B5D4
:10026C008EEB0DC280B58EE90AC2769419F080B57A
:10027C008EEA05C280B58EE802C270FE08C0769484
:10028C0019F080B586EBFBC180B586E9F8C1769490
:10029C0019F080B586EAF3C180B586E8F0C1AA20D2
:1002AC0009F451C02C89222339F18B89882391F0D0
:1002BC0070FE08C0769419F080B58BEFE0C180B564
:1002CC008BEDDDC1769419F080B58BEED8C180B57D
:1002DC008BECD5C170FE08C0769419F080B583EF15
:1002EC00CEC180B583EDCBC1769419F080B583EE89
:1002FC00C6C180B583ECC3C12B89222391F070FE5B
:10030C0008C0769419F080B58AEFB9C180B58AED32
:10031C00B6C1769419F080B58AEEB1C180B58AEC7D
:10032C00AEC170FE08C0769419F080B582EFA7C1FB
:10033C0080B582EDA4C1769419F080B582EE9FC190
:10034C0080B582EC9CC18C89882339F12B892223BE
:10035C0091F070FE08C0769419F080B58BEB8FC1CC
:10036C0080B58BE98CC1769419F080B58BEA87C186
:10037C0080B58BE884C170FE08C0769419F080B506
:10038C0083EB7DC180B583E97AC1769419F080B591
:10039C0083EA75C180B583E872C18B89882391F09B
:1003AC0070FE08C0769419F080B58AEB68C180B5F0
:1003BC008AE965C1769419F080B58AEA60C180B586
:1003CC008AE85DC170FE08C0769419F080B582EBA6
:1003DC0056C180B582E953C1769419F080B582EA92
:1003EC004EC180B582E84BC1C1FEA5C0AA2009F45C
:1003FC0051C02C89222339F18B89882391F070FE0E
:10040C0008C0769419F080B58DEF39C180B58DEDAB
:10041C0036C1769419F080B58DEE31C180B58DEC76
:10042C002EC170FE08C0769419F080B585EF27C1F7
:10043C0080B585ED24C1769419F080B585EE1FC189
:10044C0080B585EC1CC12B89222391F070FE08C06D
:10045C00769419F080B58CEF12C180B58CED0FC17C
:10046C00769419F080B58CEE0AC180B58CEC07C17E
:10047C0070FE08C0769419F080B584EF00C180B589
:10048C0084EDFDC0769419F080B584EEF8C080B58B
:10049C0084ECF5C08C89882339F12B89222391F0C7
:1004AC0070FE08C0769419F080B58DEBE8C080B56D
:1004BC008DE9E5C0769419F080B58DEAE0C080B581
:1004CC008DE8DDC070FE08C0769419F080B585EB20
:1004DC00D6C080B585E9D3C0769419F080B585EA8D
:1004EC00CEC080B585E8CBC08B89882391F070FE97
:1004FC0008C0769419F080B58CEBC1C080B58CE93E
:10050C00BEC0769419F080B58CEAB9C080B58CE881
:10051C00B6C070FE08C0769419F080B584EBAFC0FD
:10052C0080B584E9ACC0769419F080B584EAA7C094
:10053C0080B584E8A4C0AA2009F451C02C892223D8
:10054C0039F18B89882391F070FE08C0769419F0EC
:10055C0080B589EF94C080B589ED91C0769419F07F
:10056C0080B589EE8CC080B589EC89C070FE08C05E
:10057C00769419F080B581EF82C080B581ED7FC093
:10058C00769419F080B581EE7AC080B581EC77C095
:10059C002B89222391F070FE08C0769419F080B557
:1005AC0088EF6DC080B588ED6AC0769419F080B57F
:1005BC0088EE65C080B588EC62C070FE08C0769489
:1005CC0019F080B580EF5BC080B580ED58C0769493
:1005DC0019F080B580EE53C080B580EC50C08C898A
:1005EC00882339F12B89222391F070FE08C0769470
:1005FC0019F080B589EB43C080B589E940C0769489
:10060C0019F080B589EA3BC080B589E838C070FE26
:10061C0008C0769419F080B581EB31C080B581E9C2
:10062C002EC0769419F080B581EA29C080B581E896
:10063C0026C08B89882391F070FE08C0769419F03F
:10064C0080B588EB1CC080B588E919C0769419F088
:10065C0080B588EA14C080B588E811C070FE08C067
:10066C00769419F080B580EB0AC080B580E907C09C
:10067C00769419F080B580EA02C080B580E880BD20
:10068C008989882321F0811006C081E207C081107E
:10069C0004C080E203C083E201C082E28BB9DD209A
:1006AC0009F47FC0112309F43EC0BB20F1F00023F4
:1006BC0071F0992031F0C694C69409F0F1C088EF1E
:1006CC002EC1C694C69409F0EDC088EB28C19920C0
:1006DC0031F0C694C69409F0E7C088E720C1C694EF
:1006EC00C69409F0E3C088E31AC1002371F0992085
:1006FC0031F0C694C69409F0DBC088ED10C1C694E5
:10070C00C69409F0D7C088E90AC1992031F0C69483
:10071C00C69409F0D1C088E502C1C694C69409F00C
:10072C00CDC088E1FCC0BB20F1F0002371F0992012
:10073C0031F0C694C69409F0C3C080EFF0C0C694E3
:10074C00C69409F0BFC080EBEAC0992031F0C69482
:10075C00C69409F0B9C080E7E2C0C694C69409F00B
:10076C00B5C080E3DCC0002371F0992031F0C69451
:10077C00C69409F0ADC080EDD2C0C694C69409F001
:10078C00A9C080E9CCC0992031F0C694C69409F078
:10079C00A3C080E5C4C0C694C69409F09FC080E194
:1007AC00BEC0112309F43EC0BB20F1F0002371F050
:1007BC00992031F0C694C69409F092C088EEAFC06F
:1007CC00C694C69409F08EC088EAA9C0992031F06D
:1007DC00C694C69409F088C088E6A1C0C694C69495
:1007EC0009F084C088E29BC0002371F0992031F09D
:1007FC00C694C69409F07CC088EC91C0C694C6948B
:10080C0009F078C088E88BC0992031F0C694C69462
:10081C0009F072C088E483C0C694C69409F06EC017
:10082C0088E07DC0BB20F1F0002371F0992031F0FD
:10083C00C694C69409F064C080EE71C0C694C69488
:10084C0009F060C080EA6BC0992031F0C694C69460
:10085C0009F05AC080E663C0C694C69409F056C02D
:10086C0080E25DC0002371F0992031F0C694C694EB
:10087C0009F04EC080EC53C0C694C69409F04AC02F
:10088C0080E84DC0992031F0C694C69409F044C05C
:10089C0080E445C0C694C69409F040C080E03FC0D7
:1008AC008CEF3DC08CEB3BC08CE739C08CE337C080
:1008BC008CED35C08CE933C08CE531C08CE12FC098
:1008CC0084EF2DC084EB2BC084E729C084E327C0C0
:1008DC0084ED25C084E923C084E521C084E11FC0D8
:1008EC008CEE1DC08CEA1BC08CE619C08CE217C0C4
:1008FC008CEC15C08CE813C08CE411C08CE00FC0DC
:10090C0084EE0DC084EA0BC084E609C084E207C003
:10091C0084EC05C084E803C084E401C084E08AB997
:10092C00809180001AC028E030E040E050E00E9446
:10093C000D0C790181E0E81AF10806CCDA01C90145
:10094C00B695A795979587957C0121E0E21AF10859
:10095C00688988E00E941F08F7CBDF91CF911F9127
:10096C000F91FF90EF90DF90CF90BF90AF909F9042
:06097C008F907F900895AA
:10098200109280008830E8F4662369F04BB321E0CE
:1009920030E0B90102C0660F771F8A95E2F7CB01FA
:1009A200842B8BBBDDC04BB321E030E0B90102C028
:1009B200660F771F8A95E2F7CB01809584238BBB64
:1009C200CFC098EF980F9830F0F4662369F048B3DF
:1009D20021E030E0B90102C0660F771F9A95E2F775
:1009E200CB01842B88BBBCC048B3885021E030E0E7
:1009F200B90102C0660F771F8A95E2F7CB01809595
:100A0200842388BBADC090EF980F9830F0F4662332
:100A120069F045B321E030E0B90102C0660F771FEB
:100A22009A95E2F7CB01842B85BB9AC045B38051DE
:100A320021E030E0B90102C0660F771F8A95E2F724
:100A4200CB018095842385BB8BC098EE980F98309C
:100A5200F0F4662369F042B321E030E0B90102C04C
:100A6200660F771F9A95E2F7CB01842B82BB78C081
:100A720042B3885121E030E0B90102C0660F771F0E
:100A82008A95E2F7CB018095842382BB69C090EE00
:100A9200980F9830F0F4662369F047B121E030E016
:100AA200B90102C0660F771F9A95E2F7CB01842B3A
:100AB20087B956C047B1805221E030E0B90102C087
:100AC200660F771F8A95E2F7CB018095842387B959
:100AD20047C098ED980F9830F0F4662369F046B15C
:100AE20021E030E0B90102C0660F771F9A95E2F764
:100AF200CB01842B86B934C046B1885221E030E064
:100B0200B90102C0660F771F8A95E2F7CB01809583
:100B1200842386B925C090ED980F9830F0F46623AF
:100B220069F040B721E030E0B90102C0660F771FDB
:100B32009A95E2F7CB01842B80BF12C040B7805355
:100B420021E030E0B90102C0660F771F8A95E2F713
:100B5200CB018095842380BF03C083E08093800013
:060B62008091800008955F
:100B6800E0E8F0E010821182883020F52AB330E006
:100B7800082E02C0359527950A94E2F720FF0CC08D
:100B88004BB321E030E0B90102C0660F771F8A95A8
:100B9800E2F7CB0184230BC049B321E030E0B9016F
:100BA80002C0660F771F8A95E2F7CB0184238093F2
:100BB8008100A9C028EF280F283000F587B390E0FE
:100BC800022E02C0959587950A94E2F780FF0AC025
:100BD80038B381E090E002C0880F991F2A95E2F7A8
:100BE800832309C036B381E090E002C0880F991FC3
:100BF8002A95E2F783238093810085C020EF280F90
:100C0800283000F584B390E0022E02C095958795B0
:100C18000A94E2F780FF0AC035B381E090E002C091
:100C2800880F991F2A95E2F7832309C033B381E01F
:100C380090E002C0880F991F2A95E2F783238093DA
:100C4800810061C098EE980F983020F521B330E00C
:100C5800092E02C0359527950A94E2F720FF0CC0AB
:100C680042B321E030E0B90102C0660F771F9A95C0
:100C7800E2F7CB0184230BC040B321E030E0B90197
:100C880002C0660F771F9A95E2F7CB018423809301
:100C9800810039C090EE980F983070F447B121E088
:100CA80030E0B90102C0660F771F9A95E2F7CB01D1
:100CB80084238093810027C098ED980F983070F4B2
:100CC80046B121E030E0B90102C0660F771F9A955E
:100CD800E2F7CB0184238093810015C090ED980F33
:100CE800983070F440B721E030E0B90102C0660FD7
:100CF800771F9A95E2F7CB0184238093810003C084
:100D080083E0809380008091800090918100089515
:100D18000E94290D81E00E94BC0960E080E00E94E9
:100D28007D0CC8E3D1E00F2EF5E5DF2EF02DD8823B
:100D38000F2EF3E5BF2EF02DB9820F2EF1E49F2E72
:100D4800F02D9A8212E51B8394E59C8300E20D83C3
:100D580089E48E832EE42F83888799878A879B86E8
:100D68009CE49C878D878AE58E870F2EF5E4FF2EFD
:100D7800F02DFF86188ACE010E94EB0B60E081E01F
:100D88000E947D0CF88219831A838FE48B831C835D
:100D98000D838DE38E830F831886CE010E94EB0BA3
:100DA8001F921F921F921F921F92812CA12C0F2E0F
:100DB800F3E0CF2EF02D0F2EF0E8EF2EF5E2FF2E08
:100DC800F02D01E020E040E061E081E00E947E003B
:100DD80090E00E94A00B2FEF83ED90E3215080401C
:100DE8009040E1F700C0000081E00E94BC09C0E625
:100DF800D0E0D8820F2EF3E4EF2EF02DE982BA82EC
:100E08001B839C820AE30D831E8260E080E00E94BF
:100E18007D0CCE010E94EB0B0E94700D90E00E94A9
:100E2800A00BD882E982BA821B830F2EF2E4FF2E30
:100E3800F02DFC820D831E8260E081E00E947D0C13
:100E4800CE010E94EB0B0E94720D90E00E94A00B55
:100E580081E00E94BC09D882E982BA821B83FC82A5
:100E68000D831E8260E080E00E947D0CCE010E940E
:100E7800EB0B0E94740D90E00E94A00BD882F982BF
:100E88001A831B830C831D8260E081E00E947D0C25
:100E9800CE010E94EB0B0E94690D0E94A00B81E01D
:100EA8000E94BC0980E090E00E945E0D0F900F90B8
:080EB8000F900F900F90FFCF87
:100EC0001F920F920FB60F9211242F933F934F93BF
:100ED0005F936F937F938F939F93AF93BF93EF93A2
:100EE000FF930E94FA0C8D3069F4E0916001F0E00C
:100EF000E85EFE4F108288E191E00E940C0910929A
:100F000060018CC090916001903248F4E92FF0E0CC
:100F1000E85EFE4F80839F5F909360017FC01092D8
:100F200060010E946E0BE0916001AE2FB0E0A85E00
:100F3000BE4F82E48C93A1E0AE0FB0E0A85EBE4F3E
:100F400085E78C93A2E0AE0FB0E0A85EBE4F96E6B8
:100F50009C93A3E0AE0FB0E0A85EBE4F9C93A4E0CC
:100F6000AE0FB0E0A85EBE4F45E64C93A5E0AE0FD5
:100F7000B0E0A85EBE4F32E73C93A6E0AE0FB0E013
:100F8000A85EBE4F20E22C93A7E0AE0FB0E0A85EB3
:100F9000BE4F8FE68C93A8E0AE0FB0E0A85EBE4FC8
:100FA00056E75C93A9E0AE0FB0E0A85EBE4F4C934D
:100FB000AAE0AE0FB0E0A85EBE4F3C93ABE0AE0F30
:100FC000B0E0A85EBE4F2C93ACE0AE0FB0E0A85EE0
:100FD000BE4F9C93ADE0AE0FB0E0A85EBE4F9CE666
:100FE0009C93AEE0AE0FB0E0A85EBE4F8C9380E164
:100FF0008E0F80936001E15FF0E0E85EFE4F87E7CF
:10100000808388E191E00E94EB0B2FEF83ED90E36A
:10101000215080409040E1F700C00000FF91EF9127
:10102000BF91AF919F918F917F916F915F914F9100
:0E1030003F912F910F900FBE0F901F901895BB
:10103E00109280008830E8F4662369F04AB321E00C
:10104E0030E0B90102C0660F771F8A95E2F7CB0137
:10105E00842B8ABB77C04AB321E030E0B90102C0CD
:10106E00660F771F8A95E2F7CB01809584238ABBA2
:10107E0069C098EF980F9830F0F4662369F047B383
:10108E0021E030E0B90102C0660F771F9A95E2F7B2
:10109E00CB01842B87BB56C047B3885021E030E08C
:1010AE00B90102C0660F771F8A95E2F7CB018095D2
:1010BE00842387BB47C090EF980F9830F0F46623D7
:1010CE0069F044B321E030E0B90102C0660F771F2A
:1010DE009A95E2F7CB01842B84BB34C044B3805184
:1010EE0021E030E0B90102C0660F771F8A95E2F762
:1010FE00CB018095842384BB25C098EE980F983041
:10110E00F0F4662369F041B321E030E0B90102C08A
:10111E00660F771F9A95E2F7CB01842B81BB12C025
:10112E0041B3885121E030E0B90102C0660F771F4C
:10113E008A95E2F7CB018095842381BB03C083E0BF
:0A114E0080938000809180000895D6
:101158001F920F920FB60F9211241F932F933F9354
:101168004F935F936F937F938F939F93AF93BF93A7
:10117800CF93DF93EF93FF9361E080E10E94470DE7
:1011880061E081E10E94470D61E082E10E94470D24
:10119800DBE0C1E010E02FEF81EE94E021508040C9
:1011A8009040E1F700C0000082E10E94500D6C2FD2
:1011B800913009F4612F82E10E94470D81E10E947C
:1011C800500D6C2F913009F4612F81E10E94470D79
:1011D80080E10E94500D6C2F913009F4612F80E15D
:1011E8000E94470DD150B9F6FF91EF91DF91CF9151
:1011F800BF91AF919F918F917F916F915F914F9127
:101208003F912F911F910F900FBE0F901F9018952F
:10121800CF92DF92EF92FF920F931F93CF93DF93BA
:10122800CDB7DEB762970FB6F894DEBF0FBECDBF5D
:101238006C0184E798E79A8389831B8281E694E6A8
:101248009D838C8383E690E09F838E8327EF30E035
:1012580040E085E0F901DE011896742F0E94070D21
:10126800CE0101969E878D870396988B8F8704966B
:101278009A8B898B7E018DE0E80EF11C00E010E06E
:10128800F701619171917F0141E0C6010E94540A02
:10129800882341F0F801E85AFE4F0190F081E02DD3
:1012A800099505C00E5F1F4F0630110549F7629674
:1012B8000FB6F894DEBF0FBECDBFDF91CF911F915F
:0C12C8000F91FF90EF90DF90CF90089501
:1012D4001F920F920FB60F9211242F933F934F93A7
:1012E4005F936F937F938F939F93AF93BF93EF938A
:1012F400FF9381E00E94BC090E942F0C0E94A00B66
:101304002FEF83ED90E3215080409040E1F700C03F
:10131400000066B1607181E10E94470D66B160749E
:1013240082E10E94470D2FEF83ED90E3215080402E
:101334009040E1F700C000008FE00E943D0D66B1CF
:10134400607482E10E94470D66B1607181E10E9480
:10135400470DFF91EF91BF91AF919F918F917F9135
:101364006F915F914F913F912F910F900FBE0F900E
:041374001F90189519
:10137800CF92DF92EF92FF920F931F93CF93DF9359
:10138800F82E60E089E00E94C10460E08AE00E94D3
:10139800C10407E010E0CFE1EF2CCC24C394D12C9A
:1013A800DE2DB601002E02C0660F771F0A94E2F701
:1013B8006F218C2F0E94C104C15001501109CB31FB
:1013C80079F70E94DE0C03E010E0CFE1EE24E3940D
:1013D800F12CB701002E02C0660F771F0A94E2F7BE
:1013E8006D238C2F0E94C104C15001501109CB31CB
:1013F80081F70E94DE0CDF91CF911F910F91FF9032
:08140800EF90DF90CF900895F2
:10141000CF92DF92EF92FF920F931F93CF93DF93C0
:10142000F82E60E089E00E94C10461E08AE00E9439
:10143000C10407E010E0CFE1EF2CCC24C394D12C01
:10144000DE2DB601002E02C0660F771F0A94E2F768
:101450006F218C2F0E94C104C15001501109CB3162
:1014600079F70E94DE0C03E010E0CFE1EE24E39474
:10147000F12CB701002E02C0660F771F0A94E2F725
:101480006D238C2F0E94C104C15001501109CB3132
:1014900081F70E94DE0CDF91CF911F910F91FF9099
:0814A000EF90DF90CF9008955A
:1014A800DC01E62FF72F29C0442319F18FEB820FB7
:1014B8008A3148F080818F7D81548A3120F08FE90C
:1014C800820F8A31B0F42B3548F4622F70E0605EE9
:1014D8007F4F808190E068177907B9F460816B3598
:1014E80058F470E0605E7F4F30E06217730721F0B8
:1014F8000EC0808128130DC031962D912111D4CFB3
:10150800808181110AC081E0089580E0089580E01B
:10151800089580E0089580E008954423E1F38081F0
:0A1528008F7D81548A3188F2CACF0A
:101532001F920F920FB60F9211242F933F934F9346
:101542005F936F937F938F939F93AF93BF93EF9329
:10155200FF93809161018F5F809361018F3F91F4CE
:1015620081E10E94500D61E0911160E081E10E94F1
:10157200470D81E10E94500D61E0911160E082E12E
:101582000E94470DFF91EF91BF91AF919F918F9173
:101592007F916F915F914F913F912F910F900FBE6D
:0615A2000F901F90189548
:1015A8001F920F920FB60F9211242F933F934F93D0
:1015B8005F936F937F938F939F93AF93BF93EF93B3
:1015C800FF9380915F01882314F410925F0180914A
:1015D8005F0191E0980F90935F0190E00E945E0D8B
:1015E8008DE090E00E945E0DFF91EF91BF91AF9169
:1015F8009F918F917F916F915F914F913F912F9123
:0A1608000F900FBE0F901F90189571
:10161200CF93DF9357980E94290D60E080E10E94EA
:10162200470D60E081E10E94470D60E082E10E9487
:10163200470DDFEFC2E06C2F627080E10E94470D20
:101642006C2F647081E10E94470D6C2F687082E1FB
:101652000E94470DC83011F0CC0F01C0C2E08FE3E9
:101662009CE90197F1F700C00000D15021F7579A89
:06167200DF91CF91089505
:101678001F920F920FB60F9211242F933F934F93FF
:101688005F936F937F938F939F93AF93BF93EF93E2
:10169800FF93809162018F5F809362018F3F49F4CD
:1016A80080E10E94500D61E0911160E080E10E94AC
:1016B800470DFF91EF91BF91AF919F918F917F91CE
:1016C8006F915F914F913F912F910F900FBE0F90A7
:0416D8001F901895B2
:1016DC000E94BD0C0E94ED0C82E00E94BC098FE9B7
:1016EC009FE00197F1F700C0000088E20E94BC095E
:1016FC008FE99FE00197F1F700C000008FE00E9496
:10170C00BC098FE99FE00197F1F700C0000081E070
:10171C000E94BC098FE99FE00197F1F700C000001F
:10172C0080E80E94BC098FE99FE00197F1F700C0A7
:04173C00000008950C
:101740000F931F93CF93DF93CDB7DEB72B970FB6D1
:10175000F894DEBF0FBECDBF8E010F5F1F4F2BE091
:10176000F80111922A95E9F74AE0B8010E94140D98
:10177000C8010E94EB0B2B960FB6F894DEBF0FBE8C
:0C178000CDBFDF91CF911F910F91089514
:10178C001F920F920FB60F9211248F93EF93FF932A
:10179C00E0915E01E53970F4F0E0EE57FF4F808187
:1017AC00803209F48DE08CB980915E018F5F80935B
:1017BC005E0103C0559810925E01FF91EF918F91DD
:0A17CC000F900FBE0F901F901895AC
:1017D6001F93CF93DF93EC01892BC1F08881811190
:1017E6000DC014C0103159F480EC0E94BC098FE979
:1017F6009FE00197F1F700C0000001C010E0899159
:101806000E94080A1F5F88818111ECCFDF91CF917A
:041816001F91089581
:10181A00A1E21A2EAA1BBB1BFD010DC0AA1FBB1FEA
:10182A00EE1FFF1FA217B307E407F50720F0A21B5C
:10183A00B30BE40BF50B661F771F881F991F1A94C9
:10184A0069F760957095809590959B01AC01BD01F3
:04185A00CF0108951D
:10185E00CF93DF9300D0CDB7DEB73D9B0AC084B1E6
:10186E0025B130E4839FC0011124922B9A83898382
:10187E0004C084B1898385B18A8389819A810F904E
:08188E000F90DF91CF91089546
:10189600BB27FB015527AA27880F991FAA1FA41744
:1018A60010F0A41B83955051B9F7A05DAA3308F038
:1018B600A95DA193009779F7B111B1931192CB016C
:0418C6000C94CE0CA4
:1018CA000E946E0B8FE39CE90197F1F700C00000BC
:1018DA0088E391E00E94EB0B9FEF23ED80E39150A8
:1018EA0020408040E1F700C0000078940E948C06F6
:1018FA00603160F4823050F40DC080E801C080ECA1
:10190A00860F0E94BC0980918000089583E080932D
:0E191A008000F9CF10928000813079F7F0CF75
:1019280057980E946E0B27E040E060E480E00E9438
:10193800330D33988FE00E943D0D16B817B80E94FA
:0A194800640D0E94A00B579A089549
:10195200CF93DF935798C0E0D0E0CE010E94580D9C
:101962008DE090E00E94580D2196C038D105A9F76C
:08197200579ADF91CF9108950F
:10197A0061E08CE10E941F0861E08DE10E941F086E
:10198A0061E08EE10E941F0861E08FE10E941F085A
:02199A000895AE
:10199C00DC01FC01672F71917723E1F7329704C0CA
:1019AC007C916D9370836291AE17BF07C8F3089555
:1019BC0061E088E00E94C1048FE99FE00197F1F794
:0E19CC0000C0000060E088E00E94C1040895A1
:1019DA0061E08AE00E941F0861E089E00E941F0816
:0A19EA0061E088E00E941F080895E4
:1019F400529B08C08AB12CB1827090E0982F88273E
:0A1A0400822B08958CB190E0089544
:101A0E00992777FD05C005900D920197E1F708958E
:0A1A1E0001900D920197E1F7089581
:101A2800BB274A3031F4992322F4BDE29095819581
:061A38009F4F0C944C0CC2
:101A3E0090EF980F933020F461E00E941F080895F4
:041A4E0083E0089594
:101A520080E10E941F0D81E10E941F0D82E10E9420
:041A62001F0D0895B7
:101A66002770286826B94072607C642B8F71682BBA
:041A760067B90895AF
:101A7A008F3011F4369A0895807E80BF86B18066D1
:041A8A0086B908957C
:101A8E0090EF980F933018F40E94C104089583E0EC
:021A9E000895A9
:101AA00090EF980F933008F08FEF0E94B4050895DF
:0C1AB000529903C05D9BFECF8CB90895D5
:0C1ABC00529903C05D9BFECF8CB90895C9
:0A1AC800349BFECF0E942F0C0895FE
:0A1AD20089B120B590E0922B089531
:041ADC000C94000066
:041AE0008BB1089529
:041AE4008AB1089526
:041AE80080B5089528
:101AEC00696E20746865206E616D65206F6620617B
:101AFC006C6C616820746865206D6F7374206772FC
:101B0C006163696F757320746865206D6F737420E1
:101B1C006D6572636966756C207468656E20657698
:101B2C00657279207468696E672077696C6C2062C5
:101B3C006520676F6F6420616E642069276C6C2070
:101B4C007374616E64206F6E20746F70206F6620EA
:101B5C0074686520776F726C64206C6F6F6B696E44
:101B6C00672068756D626C6520746F2068697320DE
:061B7C0067726163650061
:101B8200696E20746865206E616D65206F662061E4
:101B92006C6C6168206D6F737420472026204D00A5
:061BA200A90C940C090BD4
:00000001FF
