:100000000C9499000C942F040C949B060C949B0662
:100010000C949B060C949B060C949B060C949B06DC
:100020000C949B060C949B060C949B060C949B06CC
:100030000C949B060C949B060C949B060C949B06BC
:100040000C949B060C949B060C949B060C949B06AC
:100050000C949B0679037D038103850389038D033B
:100060009103950399039D037503A103CD00D5006A
:10007000DD00E500ED00F500FD0005010D011501B5
:100080001D0125012D0135013D0145014D015501A0
:100090005D0165016D0175017D0185018D01950190
:1000A0009D01A501AD01B501BD01C501D901E10168
:1000B000E901F101F901010209021102190221020B
:1000C00029023102390241024902510259026102F8
:1000D0006902710279028102890291029902A102E8
:1000E000A902B102B902C102C902D102BD03C00313
:1000F000C303C603C903CC03CF03D203D503D8037C
:10010000DB03DE03E103E403E703EA03ED03F003AB
:10011000F303F603F903FC03FF03020405040804D8
:100120000B040E041104140417041A040060006286
:10013000800011241FBECFE5D8E0DEBFCDBFECE2CA
:10014000F1E041E017C0B591A59135912591059158
:1001500007FD0CC095918591EF01F92FE82F0590CF
:100160000D92A217B307D9F7FE0104C01D92A21782
:10017000B307E1F7E133F40731F70E94DB020C9497
:06018000C100F894FFCF5E
:1001860090E08032910508F005C1FC01EA5CFF4F62
:100196000C949506662319F0D09A80E00895D098BD
:1001A60080E00895662319F0D19A80E00895D198E9
:1001B60080E00895662319F0D29A80E00895D298D7
:1001C60080E00895662319F0D39A80E00895D398C5
:1001D60080E00895662319F0D49A80E00895D598B2
:1001E60080E00895662319F0D59A80E00895D598A1
:1001F60080E00895662319F0D69A80E00895D6988F
:1002060080E00895662319F0D79A80E00895D7987C
:1002160080E00895662319F0B89A80E00895B898AA
:1002260080E00895662319F0B99A80E00895B99898
:1002360080E00895662319F0BA9A80E00895BA9886
:1002460080E00895662319F0BB9A80E00895BB9874
:1002560080E00895662319F0BC9A80E00895BD9861
:1002660080E00895662319F0BD9A80E00895BD9850
:1002760080E00895662319F0BE9A80E00895BE983E
:1002860080E00895662319F0BF9A80E00895BF982C
:1002960080E00895662319F0A09A80E00895889872
:1002A60080E00895662319F0A19A80E00895A19848
:1002B60080E00895662319F0A29A80E00895A29836
:1002C60080E00895662319F0A39A80E00895A39824
:1002D60080E00895662319F0A49A80E00895A59811
:1002E60080E00895662319F0A59A80E00895A59800
:1002F60080E00895662319F0A69A80E00895A698EE
:1003060080E00895662319F0A79A80E00895A798DB
:1003160080E00895662319F0889A80E00895889809
:1003260080E00895662319F0899A80E008958998F7
:1003360080E00895662319F08A9A80E008958A98E5
:1003460080E00895662319F08B9A80E008958B98D3
:1003560080E00895662319F08C9A80E008958D98C0
:1003660080E00895662319F08D9A80E008958D98AF
:1003760080E00895662319F08E9A80E008958E989D
:1003860080E00895662319F08F9A80E008958F988B
:0803960080E0089583E0089562
:10039E0090E08032910508F005C1FC01EA5AFF4F4A
:1003AE000C949506662319F0D89A80E00895D89893
:1003BE0080E00895662319F0D99A80E00895D998BF
:1003CE0080E00895662319F0DA9A80E00895DA98AD
:1003DE0080E00895662319F0DB9A80E00895DB989B
:1003EE0080E00895662319F0DC9A80E00895DC9889
:1003FE0080E00895662319F0DD9A80E00895DD9877
:10040E0080E00895662319F0DE9A80E00895DE9864
:10041E0080E00895662319F0DF9A80E00895DF9852
:10042E0080E00895662319F0C09A80E00895C09880
:10043E0080E00895662319F0C19A80E00895C1986E
:10044E0080E00895662319F0C29A80E00895C2985C
:10045E0080E00895662319F0C39A80E00895C3984A
:10046E0080E00895662319F0C49A80E00895C49838
:10047E0080E00895662319F0C59A80E00895C59826
:10048E0080E00895662319F0C69A80E00895C69814
:10049E0080E00895662319F0C79A80E00895C79802
:1004AE0080E00895662319F0A89A80E00895A89830
:1004BE0080E00895662319F0A99A80E00895A9981E
:1004CE0080E00895662319F0AA9A80E00895AA980C
:1004DE0080E00895662319F0AB9A80E00895AB98FA
:1004EE0080E00895662319F0AC9A80E00895AC98E8
:1004FE0080E00895662319F0AD9A80E00895AD98D6
:10050E0080E00895662319F0AE9A80E00895AE98C3
:10051E0080E00895662319F0AF9A80E00895AF98B1
:10052E0080E00895662319F0909A80E008959098DF
:10053E0080E00895662319F0919A80E008959198CD
:10054E0080E00895662319F0929A80E008959298BB
:10055E0080E00895662319F0939A80E008959398A9
:10056E0080E00895662319F0949A80E00895949897
:10057E0080E00895662319F0959A80E00895959885
:10058E0080E00895662319F0969A80E00895969873
:10059E0080E00895662319F0979A80E00895979861
:0805AE0080E0089583E0089548
:1005B6000E942E060E946D060E948E060E947A06F2
:1005C6000E94840663E086E00E944F05833021F492
:1005D60061E081E10E944F0678940E94CE05C1E059
:1005E600D0E087E00E94B105913011F568E383E021
:1005F6000E94060680E10E94EB056C2F913009F4FB
:100606006D2F80E10E944F0681E10E94EB056C2F61
:10061600913009F46D2F81E10E944F0682E10E941C
:10062600EB056C2F913009F46D2F82E10E944F0685
:100636008CE00E94B105913011F56C2F83E00E9489
:10064600060680E10E94EB056C2F913009F46D2FB0
:1006560080E10E944F0681E10E94EB056C2F9130EC
:1006660009F46D2F81E10E944F0682E10E94EB059D
:100676006C2F913009F46D2F82E10E944F068DE0B8
:100686000E94B105913011F562E083E00E940606F2
:1006960080E10E94EB056C2F913009F46D2F80E10B
:1006A6000E944F0681E10E94EB056C2F913009F400
:1006B6006D2F81E10E944F0682E10E94EB056C2FAF
:1006C600913009F46D2F82E10E944F060E940F05BA
:1006D60090E0FC013197EC30F10598F5E65DFF4FAF
:1006E6000C94950680E30E94CF042BC081E30E9400
:1006F600CF0427C082E30E94CF0423C083E30E9475
:10070600CF041FC084E30E94CF041BC085E30E9470
:10071600CF0417C086E30E94CF0413C087E30E946C
:10072600CF040FC088E30E94CF040BC089E30E9468
:10073600CF0407C08AE20E94CF0403C083E20E946E
:10074600CF042FEF81EE94E0215080409040E1F7F6
:0607560000C0000046CFC8
:10075C00A0E6B0E01C9211961C9290E080329105BC
:10076C0008F065C0FC01EA58FF4F0C94950689B35C
:10077C0020E065C089B321E062C089B322E05FC08C
:10078C0089B323E05CC089B324E059C089B325E068
:10079C0056C089B326E053C089B327E050C086B356
:1007AC0020E04DC086B321E04AC086B322E047C0AA
:1007BC0086B323E044C086B324E041C086B325E071
:1007CC003EC086B326E03BC086B327E038C083B377
:1007DC0020E035C083B321E032C083B322E02FC0C8
:1007EC0083B323E02CC083B324E029C083B325E07A
:1007FC0026C083B326E023C083B327E020C080B398
:10080C0020E01DC080B321E01AC080B322E017C0E5
:10081C0080B323E014C080B324E011C080B325E082
:10082C000EC080B326E00BC080B327E008C083E085
:10083C00809360008091600090916100089590E039
:10084C0002C0959587952A95E2F781708093610097
:02085C00F1CFDA
:10085E001F920F920FB60F9211241F932F933F9357
:10086E004F935F936F937F938F939F93AF93BF93AA
:10087E00CF93DF93EF93FF9361E080E10E944F06E9
:10088E0061E081E10E944F0661E082E10E944F0625
:10089E00DBE0C1E010E02FEF81EE94E021508040CC
:1008AE009040E1F700C0000082E10E94EB056C2F42
:1008BE00913009F4612F82E10E944F0681E10E947E
:1008CE00EB056C2F913009F4612F81E10E944F06E8
:1008DE0080E10E94EB056C2F913009F4612F80E1CD
:1008EE000E944F06D150B9F6FF91EF91DF91CF9153
:1008FE00BF91AF919F918F917F916F915F914F912A
:10090E003F912F911F910F900FBE0F901F90189532
:10091E00CF93C82F60E089E00E94CF0160E08AE0AB
:10092E000E94CF01C4FB662760F98CE10E94CF01C3
:10093E00C5FB662760F98DE10E94CF01C6FB6627D5
:10094E0060F98EE10E94CF016C2F661F6627661F2D
:10095E008FE10E94CF010E945E066C2F61708CE1C8
:10096E000E94CF01C1FB662760F98DE10E94CF0185
:10097E00C2FB662760F98EE10E94CF01C3FB66279A
:10098E0060F98FE10E94CF010E945E06CF9108951B
:10099E00CF93C82F60E089E00E94CF0161E08AE02A
:1009AE000E94CF01C4FB662760F98CE10E94CF0143
:1009BE00C5FB662760F98DE10E94CF01C6FB662755
:1009CE0060F98EE10E94CF016C2F661F6627661FAD
:1009DE008FE10E94CF010E945E066C2F61708CE148
:1009EE000E94CF01C1FB662760F98DE10E94CF0105
:1009FE00C2FB662760F98EE10E94CF01C3FB66271A
:100A0E0060F98FE10E94CF010E945E06CF9108959A
:100A1E00FF920F931F93CF93DF9340E060E081E04E
:100A2E000E94820514E0D1E001E0F12C28C0402F95
:100A3E00163009F04F2D602F153009F06F2D802FD5
:100A4E00143009F08F2D0E9482051430A9F0153054
:100A5E00A9F0D3E014C08C2F0E94AE03913029F080
:100A6E00CF5FDD5FC831B9F702C0DF3F51F41F5FC2
:100A7E001730E9F6DFEF05C0D1E001C0D2E0C4E1E6
:100A8E00EACF8D2FDF91CF911F910F91FF90089597
:100A9E00982F643060F58BEF890F833050F59630C8
:100AAE0029F0973041F09530B1F40CC085B7682B22
:100ABE0065BF80E011C085B7660F660F682B65BFF6
:100ACE0080E00AC084B721E0633009F020E0822B79
:100ADE0084BF80E001C083E04BB721E030E002C06C
:100AEE00220F331F9A95E2F7242B2BBF089583E034
:060AFE00089583E0089555
:100B0400CF93DF93813029F4613009F1413029F426
:100B140020C0613011F44130F1F091E0811101C045
:100B240090E0D42FC62F692F84E00E94CF0161E0AA
:100B3400C11101C060E085E00E94CF0161E0D111E4
:100B440001C060E086E00E94CF0180E005C083E040
:0E0B540003C083E001C083E0DF91CF910895DC
:100B6200873021F094EF980F923038F40E94AE0350
:100B7200909361008093600003C083E080936000E3
:100B8200E0E6F0E081E09181911101C080E0818393
:0A0B920080916000909161000895C9
:100B9C0060E084E10E94C30060E085E10E94C30034
:100BAC0060E086E10E94C30060E087E10E94C30020
:100BBC0061E084E00E94C30061E085E00E94C30014
:0A0BCC0061E086E00E94C300089576
:100BD60090EF980F933038F40E94AE039093610023
:100BE6008093600003C083E080936000E0E6F0E05D
:100BF60081E09181911101C080E081838091600044
:060C0600909161000895C9
:100C0C00813049F028F0823049F0833051F00CC02B
:100C1C006BBB80E0089568BB80E0089565BB80E005
:0C0C2C00089562BB80E0089581E0089507
:100C3800873021F094EF980F923030F460E00E94F2
:100C4800C3008093600003C083E0809360008091BC
:040C5800600008959B
:100C5C0061E08CE10E94C30061E08DE10E94C30061
:100C6C0061E08EE10E94C30061E08FE10E94C3004D
:020C7C000895D9
:100C7E0090EF980F933030F461E00E94C3008093A0
:100C8E00600003C083E0809360008091600008954F
:100C9E0090EF980F933028F40E94CF01809360005C
:0E0CAE0003C083E08093600080916000089591
:100CBC0061E08BE00E94CF018FE99FE00197F1F793
:0E0CCC0000C0000060E08BE00E94CF010895A0
:100CDA0061E08AE00E94C30061E089E00E94C300EB
:0A0CEA0061E08BE00E94C300089552
:100CF40080E10E943F0681E10E943F0682E10E945A
:040D04003F06089509
:100D080087E00E941C068CE00E941C068DE00E9471
:040D18001C06089518
:0E0D1C0082E00E948F048FE00E948F040895F1
:0C0D2A00EE0FFF1F0590F491E02D0994DE
:040D36000C94000019
:00000001FF
