:100000000C942D000C9423040C9423040C942304CE
:100010000C9423040C9423040C9423040C942304C4
:100020000C9423040C9423040C9423040C942304B4
:100030000C9423040C9423040C9423040C942304A4
:100040000C94CC010C9423040C9423040C942304EE
:100050000C94230400600062800011241FBECFE5D1
:10006000D8E0DEBFCDBFE4E5F0E040E017C0B591D9
:10007000A59135912591059107FD0CC0959185912C
:10008000EF01F92FE82F05900D92A217B307D9F7CA
:10009000FE0104C01D92A217B307E1F7E935F4078A
:0E00A00031F70E94EA020C945500F894FFCF4D
:1000AE00109260008830E8F4662369F04BB321E0CB
:1000BE0030E0B90102C0660F771F8A95E2F7CB01D7
:1000CE00842B8BBBD6C04BB321E030E0B90102C00C
:1000DE00660F771F8A95E2F7CB01809584238BBB41
:1000EE00C8C098EF980F9830E8F4662369F048B3CB
:1000FE0021E030E0B90102C0660F771F9A95E2F752
:10010E00CB01842B88BBB5C048B321E030E0B901E8
:10011E0002C0660F771F9A95E2F7CB018095842374
:10012E0088BBA7C090EF980F9830E8F4662369F06B
:10013E0045B321E030E0B90102C0660F771F9A95F2
:10014E00E2F7CB01842B85BB94C045B321E030E0B0
:10015E00B90102C0660F771F9A95E2F7CB01809521
:10016E00842385BB86C098EE980F9830E8F46623FA
:10017E0069F042B321E030E0B90102C0660F771F8B
:10018E009A95E2F7CB01842B82BB73C042B321E078
:10019E0030E0B90102C0660F771F9A95E2F7CB01E6
:1001AE008095842382BB65C090EE980F9830E8F45A
:1001BE00662369F047B121E030E0B90102C0660F55
:1001CE00771F9A95E2F7CB01842B87B952C047B1BE
:1001DE0021E030E0B90102C0660F771F9A95E2F771
:1001EE00CB018095842387B944C098ED980F983041
:1001FE00E8F4662369F046B121E030E0B90102C0AF
:10020E00660F771F9A95E2F7CB01842B86B931C022
:10021E0046B121E030E0B90102C0660F771F9A9512
:10022E00E2F7CB018095842386B923C080538830B2
:10023E00E8F4662369F040B721E030E0B90102C06E
:10024E00660F771F8A95E2F7CB01842B80BF11C012
:10025E0040B721E030E0B90102C0660F771F8A95E2
:10026E00E2F7CB018095842380BF03C083E08093A7
:08027E0060008091600008950A
:10028600109260008830E8F4662369F04AB321E0F2
:1002960030E0B90102C0660F771F8A95E2F7CB01FD
:1002A600842B8ABB73C04AB321E030E0B90102C097
:1002B600660F771F8A95E2F7CB01809584238ABB68
:1002C60065C098EF980F9830E8F4662369F047B355
:1002D60021E030E0B90102C0660F771F9A95E2F778
:1002E600CB01842B87BB52C047B321E030E0B90174
:1002F60002C0660F771F9A95E2F7CB01809584239B
:1003060087BB44C090EF980F9830E8F4662369F0F5
:1003160044B321E030E0B90102C0660F771F9A9519
:10032600E2F7CB01842B84BB31C044B321E030E03B
:10033600B90102C0660F771F9A95E2F7CB01809547
:10034600842384BB23C088518830E8F4662369F08F
:1003560041B321E030E0B90102C0660F771F8A95EC
:10036600E2F7CB01842B81BB11C041B321E030E021
:10037600B90102C0660F771F8A95E2F7CB01809517
:10038600842381BB03C083E080936000809160007A
:020396000895C8
:100398001F920F920FB60F9211242F933F934F93F2
:1003A8005F936F937F938F939F93AF93BF93EF93D5
:1003B800FF9381E00E941E020E94CD030E94150354
:1003C8002FEF83ED90E3215080409040E1F700C08B
:1003D800000066B1607181E10E94AF0366B160748C
:1003E80082E10E94AF032FEF83ED90E3215080401C
:1003F8009040E1F700C000008FE00E94120466B14F
:10040800607482E10E94AF0366B1607181E10E946D
:10041800AF03FF91EF91BF91AF919F918F917F9122
:100428006F915F914F913F912F910F900FBE0F9059
:040438001F90189564
:10043C00CF93C82F60E089E00E94570060E08AE00B
:10044C000E9457006C2F60718CE10E9457006C2F3A
:10045C0060728DE10E9457006C2F60748EE10E94D7
:10046C0057006C2F60788FE10E9457000E94BE03EA
:10047C006C2F61708CE10E9457006C2F62708DE1C3
:10048C000E9457006C2F64708EE10E9457006C2FF5
:10049C0068708FE10E9457000E94BE03CF910895AF
:1004AC00CF93C82F60E089E00E94570061E08AE09A
:1004BC000E9457006C2F60718CE10E9457006C2FCA
:1004CC0060728DE10E9457006C2F60748EE10E9467
:1004DC0057006C2F60788FE10E9457000E94BE037A
:1004EC006C2F61708CE10E9457006C2F62708DE153
:1004FC000E9457006C2F64708EE10E9457006C2F85
:10050C0068708FE10E9457000E94BE03CF9108953E
:10051C00EF92FF920F931F93CF93DF930097F9F015
:10052C00FC01208121110BC01AC0C03160F0D11127
:10053C000AC060E081E00E945503D1E004C07C0158
:10054C008C01C0E0D0E0F80180810E945602CF5FA0
:10055C0087010C0F111DF80190819111E6CFDF91ED
:0C056C00CF911F910F91FF90EF90089528
:100578009BEF980F933030F5643030F5863039F0C2
:10058800873019F0853081F406C0660F660F95B77D
:10059800692B65BF09C0633021F494B7906494BF98
:1005A80003C094B79F7B94BF4BB721E030E0B901FB
:1005B80002C0660F771F8A95E2F7CB01842B8BBFA9
:0C05C80080E0089583E0089583E008952A
:1005D4000E947E030E94DC030E941C0427E040E08A
:1005E40060E480E00E9408040E94F4030E94FE0379
:1005F40063E086E00E94BC02833021F461E081E183
:100604000E94AF0378948FE39CE90197F1F700C04F
:10061400000081E00E941E0281E00E941E028FE021
:060624000E941204FFCF4A
:10062A000F931F93CF93DF93CDB7DEB72B970FB6F8
:10063A00F894DEBF0FBECDBF8E010F5F1F4F2BE0B8
:10064A00F80111922A95E9F74AE0B8010E94E903F4
:10065A00C8010E948E022B960FB6F894DEBF0FBE19
:0C066A00CDBFDF91CF911F910F9108953B
:10067600BB27FB015527AA27880F991FAA1FA41776
:1006860010F0A41B83955051B9F7A05DAA3308F06A
:10069600A95DA193009779F7B111B1931192CB019E
:0406A6000C949F030E
:1006AA00603160F4823050F40DC080E801C080EC03
:1006BA00862B0E941E0280916000089583E0809339
:0E06CA006000F9CF10926000813079F7F0CF18
:1006D800873021F094EF980F923030F460E00E9458
:1006E80043018093600003C083E0809360008091A1
:0406F8006000089501
:1006FC0061E08CE10E94430161E08DE10E944301C5
:10070C0061E08EE10E94430161E08FE10E944301B0
:02071C0008953E
:10071E0090EF980F933030F461E00E944301809384
:10072E00600003C083E080936000809160000895B4
:10073E00DC01FC01672F71917723E1F7329704C03A
:10074E007C916D9370836291AE17BF07C8F30895C5
:10075E0090EF980F933028F40E945700809360001A
:0E076E0003C083E080936000809160000895D6
:10077C0061E08BE00E9457008FE99FE00197F1F751
:0E078C0000C0000060E08BE00E94570008955E
:10079A003D9B08C084B125B130E4839FC001112478
:0E07AA00922B089584B125B190E0922B089512
:1007B80061E08AE00E94430161E089E00E94430110
:0A07C80061E08BE00E9443010895F8
:1007D200BB274A3031F4992322F4BDE290958195EA
:0607E2009F4F0C943C0344
:1007E80080E10E948F0381E10E948F0382E10E94D1
:0407F8008F030895CE
:1007FC0087E00E946C038CE00E946C038DE00E94E9
:04080C006C030895DC
:100810002770286826B94072607C642B8F71682B22
:0408200067B9089517
:100824008F3011F4369A089596B1906696B9807E09
:0408340080BF0895E4
:0E08380082E00E941E028FE00E941E020895C0
:040846000C9400000E
:00000001FF
