:100000000C948D000C9489050C9489050C94890539
:100010000C9489050C9489050C9489050C94890528
:100020000C9489050C9489050C9489050C94890518
:100030000C9489050C9489050C9489050C94890508
:100040000C9489050C9489050C9489050C948905F8
:100050000C948905CC00D400DC00E400EC00F40032
:10006000FC0004010C0114011C0124012C013401C9
:100070003C0144014C0154015C0164016C017401B8
:100080007C0184018C0194019C01A401AC01B401A8
:10009000BC01C401D801E001E801F001F80100024F
:1000A0000802100218022002280230023802400220
:1000B0004802500258026002680270027802800210
:1000C000880290029802A002A802B002B802C00200
:1000D000C802D002C803CB03CE03D103D403D70395
:1000E000DA03DD03E003E303E603E903EC03EF03D4
:1000F000F203F503F803FB03FE0301040404070401
:100100000A040D0410041304160419041C041F042B
:100110002204250400600062800011241FBECFE588
:10012000D8E0DEBFCDBFE4E1F1E041E017C0B5911A
:10013000A59135912591059107FD0CC0959185916B
:10014000EF01F92FE82F05900D92A217B307D9F709
:10015000FE0104C01D92A217B307E1F7E931F407CD
:0E01600031F70E94DA020C94B500F894FFCF3C
:10016E00494E20546865204E616D65204F662041D2
:05017E006C6C616800DB
:1001840090E08032910508F005C1FC01E65DFF4F67
:100194000C948305662319F0D09A80E00895D098D2
:1001A40080E00895662319F0D19A80E00895D198EB
:1001B40080E00895662319F0D29A80E00895D298D9
:1001C40080E00895662319F0D39A80E00895D398C7
:1001D40080E00895662319F0D49A80E00895D598B4
:1001E40080E00895662319F0D59A80E00895D598A3
:1001F40080E00895662319F0D69A80E00895D69891
:1002040080E00895662319F0D79A80E00895D7987E
:1002140080E00895662319F0B89A80E00895B898AC
:1002240080E00895662319F0B99A80E00895B9989A
:1002340080E00895662319F0BA9A80E00895BA9888
:1002440080E00895662319F0BB9A80E00895BB9876
:1002540080E00895662319F0BC9A80E00895BD9863
:1002640080E00895662319F0BD9A80E00895BD9852
:1002740080E00895662319F0BE9A80E00895BE9840
:1002840080E00895662319F0BF9A80E00895BF982E
:1002940080E00895662319F0A09A80E00895889874
:1002A40080E00895662319F0A19A80E00895A1984A
:1002B40080E00895662319F0A29A80E00895A29838
:1002C40080E00895662319F0A39A80E00895A39826
:1002D40080E00895662319F0A49A80E00895A59813
:1002E40080E00895662319F0A59A80E00895A59802
:1002F40080E00895662319F0A69A80E00895A698F0
:1003040080E00895662319F0A79A80E00895A798DD
:1003140080E00895662319F0889A80E0089588980B
:1003240080E00895662319F0899A80E008958998F9
:1003340080E00895662319F08A9A80E008958A98E7
:1003440080E00895662319F08B9A80E008958B98D5
:1003540080E00895662319F08C9A80E008958D98C2
:1003640080E00895662319F08D9A80E008958D98B1
:1003740080E00895662319F08E9A80E008958E989F
:1003840080E00895662319F08F9A80E008958F988D
:0803940080E0089583E0089564
:10039C0090E08032910508F005C1FC01E65BFF4F4F
:1003AC000C948305662319F0D89A80E00895D898A8
:1003BC0080E00895662319F0D99A80E00895D998C1
:1003CC0080E00895662319F0DA9A80E00895DA98AF
:1003DC0080E00895662319F0DB9A80E00895DB989D
:1003EC0080E00895662319F0DC9A80E00895DD988A
:1003FC0080E00895662319F0DD9A80E00895DD9879
:10040C0080E00895662319F0DE9A80E00895DE9866
:10041C0080E00895662319F0DF9A80E00895DF9854
:10042C0080E00895662319F0C09A80E00895C09882
:10043C0080E00895662319F0C19A80E00895C19870
:10044C0080E00895662319F0C29A80E00895C2985E
:10045C0080E00895662319F0C39A80E00895C3984C
:10046C0080E00895662319F0C49A80E00895C59839
:10047C0080E00895662319F0C59A80E00895C59828
:10048C0080E00895662319F0C69A80E00895C69816
:10049C0080E00895662319F0C79A80E00895C79804
:1004AC0080E00895662319F0A89A80E00895A89832
:1004BC0080E00895662319F0A99A80E00895A99820
:1004CC0080E00895662319F0AA9A80E00895AA980E
:1004DC0080E00895662319F0AB9A80E00895AB98FC
:1004EC0080E00895662319F0AC9A80E00895AD98E9
:1004FC0080E00895662319F0AD9A80E00895AD98D8
:10050C0080E00895662319F0AE9A80E00895AE98C5
:10051C0080E00895662319F0AF9A80E00895AF98B3
:10052C0080E00895662319F0909A80E008959098E1
:10053C0080E00895662319F0919A80E008959198CF
:10054C0080E00895662319F0929A80E008959298BD
:10055C0080E00895662319F0939A80E008959398AB
:10056C0080E00895662319F0949A80E00895959898
:10057C0080E00895662319F0959A80E00895959887
:10058C0080E00895662319F0969A80E00895969875
:10059C0080E00895662319F0979A80E00895979863
:0805AC0080E0089583E008954A
:1005B400CF93DF93CDB7DEB765970FB6F894DEBF60
:1005C4000FBECDBF2EE631E040E085E1F901DE014A
:1005D4001196742F0E9462050E946B040E945505B7
:1005E4000E9436050E946F050E947905CE0101968E
:1005F4000E943A0461E080E10E94460561E081E1E5
:100604000E94460561E082E10E9446050F2EFBE050
:10061400FF2EF02D01E010E02FEF83EC99E0215044
:1006240080409040E1F700C0000082E10E94A904EC
:10063400602F913009F4612F82E10E94460581E127
:100644000E94A904602F913009F4612F81E10E9476
:10065400460580E10E94A904602F913009F4612FBE
:1006640080E10E944605FA94F110D6CF11E000E033
:1006740087E00E948C04913011F568E383E00E94C6
:10068400C40480E10E94A904612F913009F4602F11
:1006940080E10E94460581E10E94A904612F913006
:1006A40009F4602F81E10E94460582E10E94A904B9
:1006B400612F913009F4602F82E10E9446058CE09D
:1006C4000E948C04913011F5612F83E00E94C404D0
:1006D40080E10E94A904612F913009F4602F80E128
:1006E4000E94460581E10E94A904612F913009F41A
:1006F400602F81E10E94460582E10E94A904612FD6
:10070400913009F4602F82E10E9446058DE00E9439
:100714008C04913011F562E083E00E94C40480E10E
:100724000E94A904612F913009F4602F80E10E9496
:10073400460581E10E94A904612F913009F4602FDC
:1007440081E10E94460582E10E94A904612F913053
:1007540009F4602F82E10E9446052FEF89E698E1B3
:0E076400215080409040E1F700C0000081CF9E
:10077200A0E6B0E01C9211961C9290E080329105A6
:1007820008F065C0FC01E659FF4F0C94830589B35C
:1007920020E065C089B321E062C089B322E05FC076
:1007A20089B323E05CC089B324E059C089B325E052
:1007B20056C089B326E053C089B327E050C086B340
:1007C20020E04DC086B321E04AC086B322E047C094
:1007D20086B323E044C086B324E041C086B325E05B
:1007E2003EC086B326E03BC086B327E038C083B361
:1007F20020E035C083B321E032C083B322E02FC0B2
:1008020083B323E02CC083B324E029C083B325E063
:1008120026C083B326E023C083B327E020C080B381
:1008220020E01DC080B321E01AC080B322E017C0CF
:1008320080B323E014C080B324E011C080B325E06C
:100842000EC080B326E00BC080B327E008C083E06F
:10085200809360008091600090916100089590E023
:1008620002C0959587952A95E2F781708093610081
:02087200F1CFC4
:10087400DF92EF92FF920F931F93CF93DF93009732
:1008840001F1FC01208121110AC01BC0C03168F0B4
:10089400D1110BC080EC0E940205DD2D06C07C0145
:1008A4008C01C0E0D0E0DD24D394F80180810E9463
:1008B4001405CF5F87010C0F111DF8019081911170
:1008C400E5CFDF91CF911F910F91FF90EF90DF90D3
:0208D400089585
:1008D60061E088E10E94C20061E089E10E94C200F5
:1008E60061E08AE10E94C20061E08BE10E94C200E1
:1008F60061E08CE10E94C20061E08DE10E94C200CD
:1009060061E08EE10E94C20061E08FE10E94C200B8
:02091600089542
:10091800873021F094EF980F923038F40E94B90391
:10092800909361008093600003C083E0809360002F
:10093800E0E6F0E081E09181911101C080E08183DF
:0A0948008091600090916100089515
:1009520090EF980F933038F40E94B903909361009E
:100962008093600003C083E080936000E0E6F0E0E3
:1009720081E09181911101C080E0818380916000CA
:0609820090916100089550
:10098800813049F028F0823049F0833051F00CC0B2
:100998006BBB80E0089568BB80E0089565BB80E08C
:0C09A800089562BB80E0089581E008958E
:1009B40060E08BE00E94CE0161E08BE00E94CE01FA
:1009C4002FEF85EA9EE0215080409040E1F700C07F
:0C09D400000060E08BE00E94CE0108955E
:1009E000873021F094EF980F923030F460E00E944D
:1009F000C2008093600003C083E080936000809118
:040A000060000895F5
:100A0400CF93C82F60E089E00E94CE0160E08AE0C5
:100A14000E94CE016C2F83E00E94C4040E94DA0479
:040A2400CF910895D1
:100A2800CF93C82F60E089E00E94CE0161E08AE0A0
:100A38000E94CE016C2F83E00E94C4040E94DA0455
:040A4800CF910895AD
:100A4C0090EF980F933030F461E00E94C2008093D5
:100A5C00600003C083E08093600080916000089583
:100A6C008CE30E9402058FE00E94020581E00E9447
:100A7C00020588E30E94020580E80E9402050895A1
:100A8C0090EF980F933028F40E94CE018093600071
:0E0A9C0003C083E080936000809160000895A5
:100AAA0061E08AE00E94C20061E089E00E94C2001F
:0A0ABA0061E08BE00E94C200089585
:100AC400992777FD05C005900D920197E1F70895E8
:0A0AD40001900D920197E1F70895DB
:100ADE0080E10E94260581E10E94260582E10E94A6
:040AEE00260508953C
:100AF20087E00E94F0048CE00E94F0048DE00E94E6
:040B0200F00408955E
:0C0B0600EE0FFF1F0590F491E02D099404
:040B12000C9400003F
:00000001FF
