:100000000C9433000C94FB070C946D0B0C946D0B4B
:100010000C946D0B0C946D0B0C946D0B0C946D0B80
:100020000C946D0B0C946D0B0C9445090C94B50954
:100030000C946D0B0C947D070C946D0B0C94800943
:100040000C945B080C946D0B0C946D0B0C946D0B65
:100050000C946D0B0060008280008200A20016EA02
:1000600000A200A8800011241FBECFE5D8E0DEBFAB
:10007000CDBFE4E5F0E040E017C0B591A591359122
:100080002591059107FD0CC095918591EF01F92F00
:10009000E82F05900D92A217B307D9F7FE0104C00F
:1000A0001D92A217B307E1F7E536F40731F70E9476
:0A00B000B90A0C945B00F894FFCF2E
:1000BA007F928F929F92AF92BF92CF92DF92EF92EE
:1000CA00FF920F931F93CF93DF93CDB7DEB7182F0D
:1000DA00D62EB42E922E7A8810928000970140E094
:1000EA0050E060E074E284EF90E00E94610A622FBF
:1000FA00732F842F952FA11001C48110F4C320E11E
:10010A0030E040E050E0F3C3F0BCE9B8C0FE4CC1B7
:10011A00C1FEA5C0AA2009F451C02C89222339F1B5
:10012A008B89882391F070FE08C0769419F080B507
:10013A008FEF85C280B58FED82C2769419F080B5B3
:10014A008FEE7DC280B58FEC7AC270FE08C07694BD
:10015A0019F080B587EF73C280B587ED70C27694C7
:10016A0019F080B587EE6BC280B587EC68C22B891F
:10017A00222391F070FE08C0769419F080B58EEFB4
:10018A005EC280B58EED5BC2769419F080B58EEEB4
:10019A0056C280B58EEC53C270FE08C0769419F030
:1001AA0080B586EF4CC280B586ED49C2769419F0C7
:1001BA0080B586EE44C280B586EC41C28C8988231C
:1001CA0039F12B89222391F070FE08C0769419F038
:1001DA0080B58FEB34C280B58FE931C2769419F0BD
:1001EA0080B58FEA2CC280B58FE829C270FE08C09C
:1001FA00769419F080B587EB22C280B587E91FC2D1
:10020A00769419F080B587EA1AC280B587E817C2D2
:10021A008B89882391F070FE08C0769419F080B516
:10022A008EEB0DC280B58EE90AC2769419F080B5BC
:10023A008EEA05C280B58EE802C270FE08C07694C6
:10024A0019F080B586EBFBC180B586E9F8C17694D2
:10025A0019F080B586EAF3C180B586E8F0C1AA2014
:10026A0009F451C02C89222339F18B89882391F012
:10027A0070FE08C0769419F080B58BEFE0C180B5A6
:10028A008BEDDDC1769419F080B58BEED8C180B5BF
:10029A008BECD5C170FE08C0769419F080B583EF57
:1002AA00CEC180B583EDCBC1769419F080B583EECB
:1002BA00C6C180B583ECC3C12B89222391F070FE9D
:1002CA0008C0769419F080B58AEFB9C180B58AED75
:1002DA00B6C1769419F080B58AEEB1C180B58AECC0
:1002EA00AEC170FE08C0769419F080B582EFA7C13E
:1002FA0080B582EDA4C1769419F080B582EE9FC1D3
:10030A0080B582EC9CC18C89882339F12B89222300
:10031A0091F070FE08C0769419F080B58BEB8FC10E
:10032A0080B58BE98CC1769419F080B58BEA87C1C8
:10033A0080B58BE884C170FE08C0769419F080B548
:10034A0083EB7DC180B583E97AC1769419F080B5D3
:10035A0083EA75C180B583E872C18B89882391F0DD
:10036A0070FE08C0769419F080B58AEB68C180B532
:10037A008AE965C1769419F080B58AEA60C180B5C8
:10038A008AE85DC170FE08C0769419F080B582EBE8
:10039A0056C180B582E953C1769419F080B582EAD4
:1003AA004EC180B582E84BC1C1FEA5C0AA2009F49E
:1003BA0051C02C89222339F18B89882391F070FE50
:1003CA0008C0769419F080B58DEF39C180B58DEDEE
:1003DA0036C1769419F080B58DEE31C180B58DECB9
:1003EA002EC170FE08C0769419F080B585EF27C13A
:1003FA0080B585ED24C1769419F080B585EE1FC1CC
:10040A0080B585EC1CC12B89222391F070FE08C0AF
:10041A00769419F080B58CEF12C180B58CED0FC1BE
:10042A00769419F080B58CEE0AC180B58CEC07C1C0
:10043A0070FE08C0769419F080B584EF00C180B5CB
:10044A0084EDFDC0769419F080B584EEF8C080B5CD
:10045A0084ECF5C08C89882339F12B89222391F009
:10046A0070FE08C0769419F080B58DEBE8C080B5AF
:10047A008DE9E5C0769419F080B58DEAE0C080B5C3
:10048A008DE8DDC070FE08C0769419F080B585EB62
:10049A00D6C080B585E9D3C0769419F080B585EACF
:1004AA00CEC080B585E8CBC08B89882391F070FED9
:1004BA0008C0769419F080B58CEBC1C080B58CE980
:1004CA00BEC0769419F080B58CEAB9C080B58CE8C4
:1004DA00B6C070FE08C0769419F080B584EBAFC040
:1004EA0080B584E9ACC0769419F080B584EAA7C0D7
:1004FA0080B584E8A4C0AA2009F451C02C8922231B
:10050A0039F18B89882391F070FE08C0769419F02E
:10051A0080B589EF94C080B589ED91C0769419F0C1
:10052A0080B589EE8CC080B589EC89C070FE08C0A0
:10053A00769419F080B581EF82C080B581ED7FC0D5
:10054A00769419F080B581EE7AC080B581EC77C0D7
:10055A002B89222391F070FE08C0769419F080B599
:10056A0088EF6DC080B588ED6AC0769419F080B5C1
:10057A0088EE65C080B588EC62C070FE08C07694CB
:10058A0019F080B580EF5BC080B580ED58C07694D5
:10059A0019F080B580EE53C080B580EC50C08C89CC
:1005AA00882339F12B89222391F070FE08C07694B2
:1005BA0019F080B589EB43C080B589E940C07694CB
:1005CA0019F080B589EA3BC080B589E838C070FE69
:1005DA0008C0769419F080B581EB31C080B581E905
:1005EA002EC0769419F080B581EA29C080B581E8D9
:1005FA0026C08B89882391F070FE08C0769419F082
:10060A0080B588EB1CC080B588E919C0769419F0CA
:10061A0080B588EA14C080B588E811C070FE08C0A9
:10062A00769419F080B580EB0AC080B580E907C0DE
:10063A00769419F080B580EA02C080B580E880BD62
:10064A008989882321F0811006C081E207C08110C0
:10065A0004C080E203C083E201C082E28BB9DD20DC
:10066A0009F47FC0112309F43EC0BB20F1F0002336
:10067A0071F0992031F0C694C69409F0F1C088EF60
:10068A002EC1C694C69409F0EDC088EB28C1992002
:10069A0031F0C694C69409F0E7C088E720C1C69431
:1006AA00C69409F0E3C088E31AC1002371F09920C7
:1006BA0031F0C694C69409F0DBC088ED10C1C69427
:1006CA00C69409F0D7C088E90AC1992031F0C694C6
:1006DA00C69409F0D1C088E502C1C694C69409F04F
:1006EA00CDC088E1FCC0BB20F1F0002371F0992055
:1006FA0031F0C694C69409F0C3C080EFF0C0C69426
:10070A00C69409F0BFC080EBEAC0992031F0C694C4
:10071A00C69409F0B9C080E7E2C0C694C69409F04D
:10072A00B5C080E3DCC0002371F0992031F0C69493
:10073A00C69409F0ADC080EDD2C0C694C69409F043
:10074A00A9C080E9CCC0992031F0C694C69409F0BA
:10075A00A3C080E5C4C0C694C69409F09FC080E1D6
:10076A00BEC0112309F43EC0BB20F1F0002371F092
:10077A00992031F0C694C69409F092C088EEAFC0B1
:10078A00C694C69409F08EC088EAA9C0992031F0AF
:10079A00C694C69409F088C088E6A1C0C694C694D7
:1007AA0009F084C088E29BC0002371F0992031F0DF
:1007BA00C694C69409F07CC088EC91C0C694C694CD
:1007CA0009F078C088E88BC0992031F0C694C694A5
:1007DA0009F072C088E483C0C694C69409F06EC05A
:1007EA0088E07DC0BB20F1F0002371F0992031F040
:1007FA00C694C69409F064C080EE71C0C694C694CB
:10080A0009F060C080EA6BC0992031F0C694C694A2
:10081A0009F05AC080E663C0C694C69409F056C06F
:10082A0080E25DC0002371F0992031F0C694C6942D
:10083A0009F04EC080EC53C0C694C69409F04AC071
:10084A0080E84DC0992031F0C694C69409F044C09E
:10085A0080E445C0C694C69409F040C080E03FC019
:10086A008CEF3DC08CEB3BC08CE739C08CE337C0C2
:10087A008CED35C08CE933C08CE531C08CE12FC0DA
:10088A0084EF2DC084EB2BC084E729C084E327C002
:10089A0084ED25C084E923C084E521C084E11FC01A
:1008AA008CEE1DC08CEA1BC08CE619C08CE217C006
:1008BA008CEC15C08CE813C08CE411C08CE00FC01E
:1008CA0084EE0DC084EA0BC084E609C084E207C046
:1008DA0084EC05C084E803C084E401C084E08AB9DA
:1008EA00809180001AC028E030E040E050E00E9489
:1008FA00610A790181E0E81AF10806CCDA01C90136
:10090A00B695A795979587957C0121E0E21AF1089B
:10091A00688988E00E946806F7CBDF91CF911F9122
:10092A000F91FF90EF90DF90CF90BF90AF909F9084
:06093A008F907F900895EC
:10094000109280008830E8F4662369F04BB321E010
:1009500030E0B90102C0660F771F8A95E2F7CB013C
:10096000842B8BBBDDC04BB321E030E0B90102C06A
:10097000660F771F8A95E2F7CB01809584238BBBA6
:10098000CFC098EF980F9830F0F4662369F048B321
:1009900021E030E0B90102C0660F771F9A95E2F7B7
:1009A000CB01842B88BBBCC048B3885021E030E029
:1009B000B90102C0660F771F8A95E2F7CB018095D7
:1009C000842388BBADC090EF980F9830F0F4662375
:1009D00069F045B321E030E0B90102C0660F771F2E
:1009E0009A95E2F7CB01842B85BB9AC045B3805121
:1009F00021E030E0B90102C0660F771F8A95E2F767
:100A0000CB018095842385BB8BC098EE980F9830DE
:100A1000F0F4662369F042B321E030E0B90102C08E
:100A2000660F771F9A95E2F7CB01842B82BB78C0C3
:100A300042B3885121E030E0B90102C0660F771F50
:100A40008A95E2F7CB018095842382BB69C090EE42
:100A5000980F9830F0F4662369F047B121E030E058
:100A6000B90102C0660F771F9A95E2F7CB01842B7C
:100A700087B956C047B1805221E030E0B90102C0C9
:100A8000660F771F8A95E2F7CB018095842387B99B
:100A900047C098ED980F9830F0F4662369F046B19E
:100AA00021E030E0B90102C0660F771F9A95E2F7A6
:100AB000CB01842B86B934C046B1885221E030E0A6
:100AC000B90102C0660F771F8A95E2F7CB018095C6
:100AD000842386B925C090ED980F9830F0F46623F2
:100AE00069F040B721E030E0B90102C0660F771F1E
:100AF0009A95E2F7CB01842B80BF12C040B7805398
:100B000021E030E0B90102C0660F771F8A95E2F755
:100B1000CB018095842380BF03C083E08093800055
:060B2000809180000895A1
:100B260080E10E943D0B81E00E94AD0860E080E01C
:100B36000E94D10AC2E8D0E00F2EF5E5DF2EF02D97
:100B4600D8820F2EF3E5BF2EF02DB9820F2EF1E4D9
:100B56009F2EF02D9A8212E51B8394E59C8300E27A
:100B66000D8389E48E832EE42F83888799878A876D
:100B76009B869CE49C878D878AE58E870F2EF5E4FD
:100B8600FF2EF02DFF86188ACE010E943F0A60E0F4
:100B960081E00E94D10AF88219831A838FE48B833D
:100BA6001C830D838DE38E830F831886CE010E94EE
:100BB6003F0A1F921F921F921F921F92812CA12CF7
:100BC6000F2EF3E0CF2EF02D0F2EF0E8EF2EF5E2EC
:100BD600FF2EF02D01E021E040E061E081E00E947F
:100BE6005D0090E00E94190A2FEF83ED90E32150FB
:100BF60080409040E1F700C0000081E00E94AD080F
:100C0600C0E6D0E0D8820F2EF3E4EF2EF02DE98275
:100C1600BA821B839C820AE30D831E8260E080E019
:100C26000E94D10ACE010E943F0A0E946F0B90E0FB
:100C36000E94190AD882E982BA821B830F2EF2E437
:100C4600FF2EF02DFC820D831E8260E081E00E9463
:100C5600D10ACE010E943F0A0E94710B90E00E94C9
:100C6600190A81E00E94AD08D882E982BA821B8304
:100C7600FC820D831E8260E080E00E94D10ACE01D4
:100C86000E943F0A0E94730B90E00E94190AD882C4
:100C9600F9821A831B830C831D8260E081E00E9427
:100CA600D10ACE010E943F0A0E94680B0E94190ACF
:100CB60081E00E94AD0880E090E00E94620B0F90F8
:0A0CC6000F900F900F900F90FFCFDA
:100CD000109280008830E8F4662369F04AB321E07E
:100CE00030E0B90102C0660F771F8A95E2F7CB01A9
:100CF000842B8ABB77C04AB321E030E0B90102C03F
:100D0000660F771F8A95E2F7CB01809584238ABB13
:100D100069C098EF980F9830F0F4662369F047B3F4
:100D200021E030E0B90102C0660F771F9A95E2F723
:100D3000CB01842B87BB56C047B3885021E030E0FD
:100D4000B90102C0660F771F8A95E2F7CB01809543
:100D5000842387BB47C090EF980F9830F0F4662348
:100D600069F044B321E030E0B90102C0660F771F9B
:100D70009A95E2F7CB01842B84BB34C044B38051F5
:100D800021E030E0B90102C0660F771F8A95E2F7D3
:100D9000CB018095842384BB25C098EE980F9830B2
:100DA000F0F4662369F041B321E030E0B90102C0FC
:100DB000660F771F9A95E2F7CB01842B81BB12C097
:100DC00041B3885121E030E0B90102C0660F771FBE
:100DD0008A95E2F7CB018095842381BB03C083E031
:0A0DE0008093800080918000089548
:100DEA00E0E8F0E010821182883070F44BB321E021
:100DFA0030E0B90102C0660F771F8A95E2F7CB018E
:100E0A008423809381006FC098EF980F983070F414
:100E1A0048B321E030E0B90102C0660F771F9A9506
:100E2A00E2F7CB018423809381005DC090EF980F95
:100E3A00983070F445B321E030E0B90102C0660F82
:100E4A00771F9A95E2F7CB018423809381004BC0E8
:100E5A0098EE980F983070F442B321E030E0B9016F
:100E6A0002C0660F771F9A95E2F7CB01842380931D
:100E7A00810039C090EE980F983070F447B121E0A4
:100E8A0030E0B90102C0660F771F9A95E2F7CB01ED
:100E9A0084238093810027C098ED980F983070F4CE
:100EAA0046B121E030E0B90102C0660F771F9A957A
:100EBA00E2F7CB0184238093810015C090ED980F4F
:100ECA00983070F440B721E030E0B90102C0660FF3
:100EDA00771F9A95E2F7CB0184238093810003C0A0
:100EEA0083E0809380008091800090918100089532
:100EFA001F920F920FB60F9211242F933F934F9385
:100F0A005F936F937F938F939F93AF93BF93EF9367
:100F1A00FF938091A500811107C00E94250B809341
:100F2A00A5000E94F90811C08091A400811107C090
:100F3A000E94250B8093A4000E94F90806C00E9413
:100F4A00250B8093A3000E94F9088091A4008F7D4D
:100F5A008F3431F49091A3009F7D9E3481F507C0B0
:100F6A009091A5009F7D9F34F9F48E3459F461E085
:100F7A0080E10E94510B1092A3001092A4001092DB
:100F8A00A50023C0863481F48091A3008F7D863426
:100F9A0059F460E080E10E94510B1092A300109274
:100FAA00A4001092A50011C08091A300882369F0C3
:100FBA001092A3001092A4001092A50006C090916E
:100FCA00A5009F7D9F3481F7DDCFFF91EF91BF91FF
:100FDA00AF919F918F917F916F915F914F913F91C7
:0C0FEA002F910F900FBE0F901F901895D4
:100FF6001F920F920FB60F9211241F932F933F93B8
:101006004F935F936F937F938F939F93AF93BF930A
:10101600CF93DF93EF93FF9361E080E10E94510B42
:1010260061E081E10E94510B61E082E10E94510B77
:10103600DBE0C1E010E02FEF81EE94E0215080402C
:101046009040E1F700C0000082E10E945A0B6C2F2D
:10105600913009F4612F82E10E94510B81E10E94D7
:101066005A0B6C2F913009F4612F81E10E94510BCC
:1010760080E10E945A0B6C2F913009F4612F80E1B8
:101086000E94510BD150B9F6FF91EF91DF91CF91AC
:10109600BF91AF919F918F917F916F915F914F918A
:1010A6003F912F911F910F900FBE0F901F90189593
:1010B6001F920F920FB60F9211242F933F934F93C7
:1010C6005F936F937F938F939F93AF93BF93EF93AA
:1010D600FF9381E00E94AD080E94830A0E94190ACC
:1010E6002FEF83ED90E3215080409040E1F700C060
:1010F600000066B1607181E10E94510B66B16074B7
:1011060082E10E94510B2FEF83ED90E32150804046
:101116009040E1F700C000008FE00E94470B66B1E7
:10112600607482E10E94510B66B1607181E10E9498
:10113600510BFF91EF91BF91AF919F918F917F914D
:101146006F915F914F913F912F910F900FBE0F902E
:041156001F90189539
:10115A00CF92DF92EF92FF920F931F93CF93DF9379
:10116A00F82E60E089E00E94A00460E08AE00E9414
:10117A00A00407E010E0CFE1EF2CCC24C394D12CDB
:10118A00DE2DB601002E02C0660F771F0A94E2F721
:10119A006F218C2F0E94A004C15001501109CB313C
:1011AA0079F70E94090B03E010E0CFE1EE24E39403
:1011BA00F12CB701002E02C0660F771F0A94E2F7DE
:1011CA006D238C2F0E94A004C15001501109CB310C
:1011DA0081F70E94090BDF91CF911F910F91FF9028
:0811EA00EF90DF90CF90089513
:1011F200CF92DF92EF92FF920F931F93CF93DF93E1
:10120200F82E60E089E00E94A00461E08AE00E947A
:10121200A00407E010E0CFE1EF2CCC24C394D12C42
:10122200DE2DB601002E02C0660F771F0A94E2F788
:101232006F218C2F0E94A004C15001501109CB31A3
:1012420079F70E94090B03E010E0CFE1EE24E3946A
:10125200F12CB701002E02C0660F771F0A94E2F745
:101262006D238C2F0E94A004C15001501109CB3173
:1012720081F70E94090BDF91CF911F910F91FF908F
:08128200EF90DF90CF9008957A
:10128A001F920F920FB60F9211242F933F934F93F1
:10129A005F936F937F938F939F93AF93BF93EF93D4
:1012AA00FF938091A6008F5F8093A6008F3F91F4F1
:1012BA0081E10E945A0B61E0911160E081E10E9494
:1012CA00510B81E10E945A0B61E0911160E082E1C9
:1012DA000E94510BFF91EF91BF91AF919F918F9116
:1012EA007F916F915F914F913F912F910F900FBE18
:0612FA000F901F901895F3
:101300001F920F920FB60F9211242F933F934F937A
:101310005F936F937F938F939F93AF93BF93EF935D
:10132000FF938091A200882314F41092A200809170
:10133000A20091E0980F9093A20090E00E94620BAF
:101340008DE090E00E94620BFF91EF91BF91AF9111
:101350009F918F917F916F915F914F913F912F91CD
:0A1360000F900FBE0F901F9018951C
:10136A001F920F920FB60F9211242F933F934F9310
:10137A005F936F937F938F939F93AF93BF93EF93F3
:10138A00FF938091A7008F5F8093A7008F3F49F456
:10139A0080E10E945A0B61E0911160E080E10E94B5
:1013AA00510BFF91EF91BF91AF919F918F917F91D7
:1013BA006F915F914F913F912F910F900FBE0F90B8
:0413CA001F901895C3
:1013CE000E94E80A0E94180B82E00E94AD088FE985
:1013DE009FE00197F1F700C0000088E20E94AD087F
:1013EE008FE99FE00197F1F700C000008FE00E94A7
:1013FE00AD088FE99FE00197F1F700C0000081E092
:10140E000E94AD088FE99FE00197F1F700C0000040
:10141E0080E80E94AD088FE99FE00197F1F700C0C8
:04142E00000008951D
:101432000F931F93CF93DF93CDB7DEB72B970FB6E2
:10144200F894DEBF0FBECDBF8E010F5F1F4F2BE0A2
:10145200F80111922A95E9F74AE0B8010E94320B8D
:10146200C8010E943F0A2B960FB6F894DEBF0FBE4A
:0C147200CDBFDF91CF911F910F91089525
:10147E001F93CF93DF93EC01892BC1F088818111EB
:10148E000DC014C0103159F480EC0E94AD088FE9E4
:10149E009FE00197F1F700C0000001C010E08991B4
:1014AE000E94F9081F5F88818111ECCFDF91CF91E7
:0414BE001F910895DD
:1014C200A1E21A2EAA1BBB1BFD010DC0AA1FBB1F46
:1014D200EE1FFF1FA217B307E407F50720F0A21BB8
:1014E200B30BE40BF50B661F771F881F991F1A9425
:1014F20069F760957095809590959B01AC01BD014F
:04150200CF01089578
:10150600CF93DF9300D0CDB7DEB73D9B0AC084B141
:1015160025B130E4839FC0011124922B9A838983DD
:1015260004C084B1898385B18A8389819A810F90A9
:081536000F90DF91CF910895A1
:10153E00BB27FB015527AA27880F991FAA1FA4179F
:10154E0010F0A41B83955051B9F7A05DAA3308F093
:10155E00A95DA193009779F7B111B1931192CB01C7
:04156E000C94F90AD6
:101572000E94E7098FE39CE90197F1F700C00000A0
:1015820082E890E00E943F0A9FEF23ED80E39150B2
:1015920020408040E1F700C0000078940E9493054B
:1015A200603160F4823050F40DC080E801C080ECFC
:1015B200860F0E94AD0880918000089583E0809399
:0E15C2008000F9CF10928000813079F7F0CFD1
:1015D00061E08CE10E94680661E08DE10E9468068E
:1015E00061E08EE10E94680661E08FE10E9468067A
:0215F00008955C
:1015F200DC01FC01672F71917723E1F7329704C078
:101602007C916D9370836291AE17BF07C8F3089502
:1016120061E088E00E94A0048FE99FE00197F1F762
:0E16220000C0000060E088E00E94A00408956F
:1016300061E08AE00E94680661E089E00E94680635
:0A16400061E088E00E94680608954A
:10164A00529B08C08AB12CB1827090E0982F8827EB
:0A165A00822B08958CB190E00895F2
:10166400BB274A3031F4992322F4BDE29095819549
:061674009F4F0C94A00A38
:10167A0090EF980F933020F461E00E946806089575
:04168A0083E008955C
:10168E008F3011F4369A0895807E80BF86B18066C1
:04169E0086B908956C
:1016A20090EF980F933018F40E94A004089583E0FD
:0216B200089599
:1016B40090EF980F933008F08FEF0E94F50608958D
:0C16C400529903C05D9BFECF8CB90895C5
:0A16D00089B120B590E0922B089537
:0416DA000C9400006C
:0416DE008BB108952F
:0416E2008AB108952C
:0416E60080B508952E
:1016EA00696E20746865206E616D65206F66206181
:1016FA006C6C6168206D6F737420472026204D0042
:00000001FF
