:100000000C9439000C94A70B0C94B6110C94B611F7
:100010000C94B6110C94B6110C94B6110C94B61144
:100020000C94B6110C94B6110C94140E0C94F10EA1
:100030000C944F0E0C94F1090C94DA0F0C94890E69
:100040000C94650C0C94B6110C94B6110C94B6116A
:100050000C94B6110060006280006200F80023700A
:1000600000F80118800118013F002406013F0144F7
:10007000800011241FBECFE5D8E0DEBFCDBFE4E590
:10008000F0E040E017C0B591A5913591259105911B
:1000900007FD0CC095918591EF01F92FE82F059090
:1000A0000D92A217B307D9F7FE0104C01D92A21743
:1000B000B307E1F7E137F40731F70E949B100C9486
:0600C0006100F894FFCF7F
:1000C6004E4F5420434F4D504C4554454421212119
:1000D600212121210054454D5020004E65772043B3
:1000E6006F6E76657273696F6E205365742E2E2E51
:0600F60000747261660057
:1000FC007F928F929F92AF92BF92CF92DF92EF92AC
:10010C00FF920F931F93CF93DF93CDB7DEB7182FCA
:10011C00D62EB42E922E7A8810926000970140E071
:10012C0050E060E074E284EF90E00E944310622F94
:10013C00732F842F952FA11001C48110F4C320E1DB
:10014C0030E040E050E0F3C3F0BCE9B8C0FE4CC175
:10015C00C1FEA5C0AA2009F451C02C89222339F173
:10016C008B89882391F070FE08C0769419F080B5C5
:10017C008FEF85C280B58FED82C2769419F080B571
:10018C008FEE7DC280B58FEC7AC270FE08C076947B
:10019C0019F080B587EF73C280B587ED70C2769485
:1001AC0019F080B587EE6BC280B587EC68C22B89DD
:1001BC00222391F070FE08C0769419F080B58EEF72
:1001CC005EC280B58EED5BC2769419F080B58EEE72
:1001DC0056C280B58EEC53C270FE08C0769419F0EE
:1001EC0080B586EF4CC280B586ED49C2769419F085
:1001FC0080B586EE44C280B586EC41C28C898823DA
:10020C0039F12B89222391F070FE08C0769419F0F5
:10021C0080B58FEB34C280B58FE931C2769419F07A
:10022C0080B58FEA2CC280B58FE829C270FE08C059
:10023C00769419F080B587EB22C280B587E91FC28E
:10024C00769419F080B587EA1AC280B587E817C290
:10025C008B89882391F070FE08C0769419F080B5D4
:10026C008EEB0DC280B58EE90AC2769419F080B57A
:10027C008EEA05C280B58EE802C270FE08C0769484
:10028C0019F080B586EBFBC180B586E9F8C1769490
:10029C0019F080B586EAF3C180B586E8F0C1AA20D2
:1002AC0009F451C02C89222339F18B89882391F0D0
:1002BC0070FE08C0769419F080B58BEFE0C180B564
:1002CC008BEDDDC1769419F080B58BEED8C180B57D
:1002DC008BECD5C170FE08C0769419F080B583EF15
:1002EC00CEC180B583EDCBC1769419F080B583EE89
:1002FC00C6C180B583ECC3C12B89222391F070FE5B
:10030C0008C0769419F080B58AEFB9C180B58AED32
:10031C00B6C1769419F080B58AEEB1C180B58AEC7D
:10032C00AEC170FE08C0769419F080B582EFA7C1FB
:10033C0080B582EDA4C1769419F080B582EE9FC190
:10034C0080B582EC9CC18C89882339F12B892223BE
:10035C0091F070FE08C0769419F080B58BEB8FC1CC
:10036C0080B58BE98CC1769419F080B58BEA87C186
:10037C0080B58BE884C170FE08C0769419F080B506
:10038C0083EB7DC180B583E97AC1769419F080B591
:10039C0083EA75C180B583E872C18B89882391F09B
:1003AC0070FE08C0769419F080B58AEB68C180B5F0
:1003BC008AE965C1769419F080B58AEA60C180B586
:1003CC008AE85DC170FE08C0769419F080B582EBA6
:1003DC0056C180B582E953C1769419F080B582EA92
:1003EC004EC180B582E84BC1C1FEA5C0AA2009F45C
:1003FC0051C02C89222339F18B89882391F070FE0E
:10040C0008C0769419F080B58DEF39C180B58DEDAB
:10041C0036C1769419F080B58DEE31C180B58DEC76
:10042C002EC170FE08C0769419F080B585EF27C1F7
:10043C0080B585ED24C1769419F080B585EE1FC189
:10044C0080B585EC1CC12B89222391F070FE08C06D
:10045C00769419F080B58CEF12C180B58CED0FC17C
:10046C00769419F080B58CEE0AC180B58CEC07C17E
:10047C0070FE08C0769419F080B584EF00C180B589
:10048C0084EDFDC0769419F080B584EEF8C080B58B
:10049C0084ECF5C08C89882339F12B89222391F0C7
:1004AC0070FE08C0769419F080B58DEBE8C080B56D
:1004BC008DE9E5C0769419F080B58DEAE0C080B581
:1004CC008DE8DDC070FE08C0769419F080B585EB20
:1004DC00D6C080B585E9D3C0769419F080B585EA8D
:1004EC00CEC080B585E8CBC08B89882391F070FE97
:1004FC0008C0769419F080B58CEBC1C080B58CE93E
:10050C00BEC0769419F080B58CEAB9C080B58CE881
:10051C00B6C070FE08C0769419F080B584EBAFC0FD
:10052C0080B584E9ACC0769419F080B584EAA7C094
:10053C0080B584E8A4C0AA2009F451C02C892223D8
:10054C0039F18B89882391F070FE08C0769419F0EC
:10055C0080B589EF94C080B589ED91C0769419F07F
:10056C0080B589EE8CC080B589EC89C070FE08C05E
:10057C00769419F080B581EF82C080B581ED7FC093
:10058C00769419F080B581EE7AC080B581EC77C095
:10059C002B89222391F070FE08C0769419F080B557
:1005AC0088EF6DC080B588ED6AC0769419F080B57F
:1005BC0088EE65C080B588EC62C070FE08C0769489
:1005CC0019F080B580EF5BC080B580ED58C0769493
:1005DC0019F080B580EE53C080B580EC50C08C898A
:1005EC00882339F12B89222391F070FE08C0769470
:1005FC0019F080B589EB43C080B589E940C0769489
:10060C0019F080B589EA3BC080B589E838C070FE26
:10061C0008C0769419F080B581EB31C080B581E9C2
:10062C002EC0769419F080B581EA29C080B581E896
:10063C0026C08B89882391F070FE08C0769419F03F
:10064C0080B588EB1CC080B588E919C0769419F088
:10065C0080B588EA14C080B588E811C070FE08C067
:10066C00769419F080B580EB0AC080B580E907C09C
:10067C00769419F080B580EA02C080B580E880BD20
:10068C008989882321F0811006C081E207C081107E
:10069C0004C080E203C083E201C082E28BB9DD209A
:1006AC0009F47FC0112309F43EC0BB20F1F00023F4
:1006BC0071F0992031F0C694C69409F0F1C088EF1E
:1006CC002EC1C694C69409F0EDC088EB28C19920C0
:1006DC0031F0C694C69409F0E7C088E720C1C694EF
:1006EC00C69409F0E3C088E31AC1002371F0992085
:1006FC0031F0C694C69409F0DBC088ED10C1C694E5
:10070C00C69409F0D7C088E90AC1992031F0C69483
:10071C00C69409F0D1C088E502C1C694C69409F00C
:10072C00CDC088E1FCC0BB20F1F0002371F0992012
:10073C0031F0C694C69409F0C3C080EFF0C0C694E3
:10074C00C69409F0BFC080EBEAC0992031F0C69482
:10075C00C69409F0B9C080E7E2C0C694C69409F00B
:10076C00B5C080E3DCC0002371F0992031F0C69451
:10077C00C69409F0ADC080EDD2C0C694C69409F001
:10078C00A9C080E9CCC0992031F0C694C69409F078
:10079C00A3C080E5C4C0C694C69409F09FC080E194
:1007AC00BEC0112309F43EC0BB20F1F0002371F050
:1007BC00992031F0C694C69409F092C088EEAFC06F
:1007CC00C694C69409F08EC088EAA9C0992031F06D
:1007DC00C694C69409F088C088E6A1C0C694C69495
:1007EC0009F084C088E29BC0002371F0992031F09D
:1007FC00C694C69409F07CC088EC91C0C694C6948B
:10080C0009F078C088E88BC0992031F0C694C69462
:10081C0009F072C088E483C0C694C69409F06EC017
:10082C0088E07DC0BB20F1F0002371F0992031F0FD
:10083C00C694C69409F064C080EE71C0C694C69488
:10084C0009F060C080EA6BC0992031F0C694C69460
:10085C0009F05AC080E663C0C694C69409F056C02D
:10086C0080E25DC0002371F0992031F0C694C694EB
:10087C0009F04EC080EC53C0C694C69409F04AC02F
:10088C0080E84DC0992031F0C694C69409F044C05C
:10089C0080E445C0C694C69409F040C080E03FC0D7
:1008AC008CEF3DC08CEB3BC08CE739C08CE337C080
:1008BC008CED35C08CE933C08CE531C08CE12FC098
:1008CC0084EF2DC084EB2BC084E729C084E327C0C0
:1008DC0084ED25C084E923C084E521C084E11FC0D8
:1008EC008CEE1DC08CEA1BC08CE619C08CE217C0C4
:1008FC008CEC15C08CE813C08CE411C08CE00FC0DC
:10090C0084EE0DC084EA0BC084E609C084E207C003
:10091C0084EC05C084E803C084E401C084E08AB997
:10092C00809160001AC028E030E040E050E00E9466
:10093C004310790181E0E81AF10806CCDA01C9010B
:10094C00B695A795979587957C0121E0E21AF10859
:10095C00688988E00E94B00AF7CBDF91CF911F9194
:10096C000F91FF90EF90DF90CF90BF90AF909F9042
:06097C008F907F900895AA
:10098200CF92EF920F93882309F499C240FF40C19E
:1009920041FF9FC0002309F44EC0222331F1EE2013
:1009A20091F0662341F0CC2019F08DB18FEF6FC228
:1009B2008DB18FE76CC2CC2019F08DB18FEB67C27D
:1009C2008DB18FE364C2662341F0CC2019F08DB162
:1009D2008FED5DC28DB18FE55AC2CC2019F08DB179
:1009E2008FE955C28DB18FE152C2EE2091F066239C
:1009F20041F0CC2019F08DB187EF49C28DB187E764
:100A020046C2CC2019F08DB187EB41C28DB187E38C
:100A12003EC2662341F0CC2019F08DB187ED37C27A
:100A22008DB187E534C2CC2019F08DB187E92FC290
:100A32008DB187E12CC2222331F1EE2091F06623A1
:100A420041F0CC2019F08DB18BEF21C28DB18BE733
:100A52001EC2CC2019F08DB18BEB19C28DB18BE384
:100A620016C2662341F0CC2019F08DB18BED0FC276
:100A72008DB18BE50CC2CC2019F08DB18BE907C288
:100A82008DB18BE104C2EE2091F0662341F0CC20BF
:100A920019F08DB183EFFBC18DB183E7F8C1CC2092
:100AA20019F08DB183EBF3C18DB183E3F0C16623FD
:100AB20041F0CC2019F08DB183EDE9C18DB183E510
:100AC200E6C1CC2019F08DB183E9E1C18DB183E19A
:100AD200DEC1002309F44EC0222331F1EE2091F051
:100AE200662341F0CC2019F08DB18DEFD0C18DB1CC
:100AF2008DE7CDC1CC2019F08DB18DEBC8C18DB180
:100B02008DE3C5C1662341F0CC2019F08DB18DED86
:100B1200BEC18DB18DE5BBC1CC2019F08DB18DE97F
:100B2200B6C18DB18DE1B3C1EE2091F0662341F0E3
:100B3200CC2019F08DB185EFAAC18DB185E7A7C18F
:100B4200CC2019F08DB185EBA2C18DB185E39FC197
:100B5200662341F0CC2019F08DB185ED98C18DB19D
:100B620085E595C1CC2019F08DB185E990C18DB193
:100B720085E18DC1222331F1EE2091F0662341F00F
:100B8200CC2019F08DB189EF82C18DB189E77FC187
:100B9200CC2019F08DB189EB7AC18DB189E377C18F
:100BA200662341F0CC2019F08DB189ED70C18DB171
:100BB20089E56DC1CC2019F08DB189E968C18DB18B
:100BC20089E165C1EE2091F0662341F0CC2019F055
:100BD2008DB181EF5CC18DB181E759C1CC2019F093
:100BE2008DB181EB54C18DB181E351C1662341F0D6
:100BF200CC2019F08DB181ED4AC18DB181E547C19B
:100C0200CC2019F08DB181E942C18DB181E13FC1A2
:100C120041FF9FC0002309F44EC0222331F1EE2090
:100C220091F0662341F0CC2019F08DB18EEF2FC1E7
:100C32008DB18EE72CC1CC2019F08DB18EEB27C17E
:100C42008DB18EE324C1662341F0CC2019F08DB121
:100C52008EED1DC18DB18EE51AC1CC2019F08DB17A
:100C62008EE915C18DB18EE112C1EE2091F066239D
:100C720041F0CC2019F08DB186EF09C18DB186E724
:100C820006C1CC2019F08DB186EB01C18DB186E38E
:100C9200FEC0662341F0CC2019F08DB186EDF7C07D
:100CA2008DB186E5F4C0CC2019F08DB186E9EFC094
:100CB2008DB186E1ECC0222331F1EE2091F0662362
:100CC20041F0CC2019F08DB18AEFE1C08DB18AE7F5
:100CD200DEC0CC2019F08DB18AEBD9C08DB18AE388
:100CE200D6C0662341F0CC2019F08DB18AEDCFC079
:100CF2008DB18AE5CCC0CC2019F08DB18AE9C7C08C
:100D02008DB18AE1C4C0EE2091F0662341F0CC207F
:100D120019F08DB182EFBBC08DB182E7B8C0CC2093
:100D220019F08DB182EBB3C08DB182E3B0C06623FE
:100D320041F0CC2019F08DB182EDA9C08DB182E5D0
:100D4200A6C0CC2019F08DB182E9A1C08DB182E19B
:100D52009EC0002309F44EC0222331F1EE2091F00F
:100D6200662341F0CC2019F08DB18CEF90C08DB18B
:100D72008CE78DC0CC2019F08DB18CEB88C08DB181
:100D82008CE385C0662341F0CC2019F08DB18CED47
:100D92007EC08DB18CE57BC0CC2019F08DB18CE981
:100DA20076C08DB18CE173C0EE2091F0662341F0E4
:100DB200CC2019F08DB184EF6AC08DB184E767C091
:100DC200CC2019F08DB184EB62C08DB184E35FC099
:100DD200662341F0CC2019F08DB184ED58C08DB15D
:100DE20084E555C0CC2019F08DB184E950C08DB195
:100DF20084E14DC0222331F1EE2091F0662341F0CF
:100E0200CC2019F08DB188EF42C08DB188E73FC088
:100E1200CC2019F08DB188EB3AC08DB188E337C090
:100E2200662341F0CC2019F08DB188ED30C08DB130
:100E320088E52DC0CC2019F08DB188E928C08DB18C
:100E420088E125C0EE2091F0662341F0CC2019F014
:100E52008DB180EF1CC08DB180E719C0CC2019F094
:100E62008DB180EB14C08DB180E311C0662341F0D7
:100E7200CC2019F08DB180ED0AC08DB180E507C09C
:100E8200CC2019F08DB180E902C08DB180E18DB91D
:100E9200709861E08DE00E94B00A61E08FE00E94EC
:100EA200B00A61E08CE00E94B00A2FEF81EE94E07C
:100EB200215080409040E1F700C00000C2C00023F2
:100EC20009F45EC0222371F1EE20B1F0662351F0E5
:100ED200CC2021F08DB18F7E8C6EAEC08DB183702F
:100EE2008C66AAC0CC2021F08DB183708C6AA4C01C
:100EF2008DB183708C62A0C0662351F0CC2021F0AA
:100F02008DB183708C6C98C08DB183708C6494C0E9
:100F1200CC2021F08DB183708C688EC08DB183702E
:100F22008C608AC0EE20B1F0662351F0CC2021F013
:100F32008DB18370846E80C08DB1837084667CC0F5
:100F4200CC2021F08DB18370846A76C08DB183701C
:100F5200846272C0662351F0CC2021F08DB183707F
:100F6200846C6AC08DB18370846466C0CC2021F029
:100F72008DB18370846860C08DB1837084605CC001
:100F8200222371F1EE20B1F0662351F0CC2021F042
:100F92008DB18B7E886E50C08DB1837088664CC0D7
:100FA200CC2021F08DB18370886A46C08DB18370E8
:100FB200886242C0662351F0CC2021F08DB183704B
:100FC200886C3AC08DB18370886436C0CC2021F021
:100FD2008DB18370886830C08DB1837088602CC0F9
:100FE200EE20B1F0662351F0CC2021F08DB1837E4A
:100FF200806E22C08DB1837080661EC0CC2021F02D
:101002008DB18370806A18C08DB18370806214C004
:10101200662351F0CC2021F08DB1837C806C0CC012
:101022008DB18370806408C0CC2021F08DB18378AB
:10103200806802C08DB183708DB961E08EE00E943C
:0A104200B00A0F91EF90CF900895CF
:10104C00109260008830E8F4662369F04BB321E01D
:10105C0030E0B90102C0660F771F8A95E2F7CB0129
:10106C00842B8BBBDDC04BB321E030E0B90102C057
:10107C00660F771F8A95E2F7CB01809584238BBB93
:10108C00CFC098EF980F9830F0F4662369F048B30E
:10109C0021E030E0B90102C0660F771F9A95E2F7A4
:1010AC00CB01842B88BBBCC048B3885021E030E016
:1010BC00B90102C0660F771F8A95E2F7CB018095C4
:1010CC00842388BBADC090EF980F9830F0F4662362
:1010DC0069F045B321E030E0B90102C0660F771F1B
:1010EC009A95E2F7CB01842B85BB9AC045B380510E
:1010FC0021E030E0B90102C0660F771F8A95E2F754
:10110C00CB018095842385BB8BC098EE980F9830CB
:10111C00F0F4662369F042B321E030E0B90102C07B
:10112C00660F771F9A95E2F7CB01842B82BB78C0B0
:10113C0042B3885121E030E0B90102C0660F771F3D
:10114C008A95E2F7CB018095842382BB69C090EE2F
:10115C00980F9830F0F4662369F047B121E030E045
:10116C00B90102C0660F771F9A95E2F7CB01842B69
:10117C0087B956C047B1805221E030E0B90102C0B6
:10118C00660F771F8A95E2F7CB018095842387B988
:10119C0047C098ED980F9830F0F4662369F046B18B
:1011AC0021E030E0B90102C0660F771F9A95E2F793
:1011BC00CB01842B86B934C046B1885221E030E093
:1011CC00B90102C0660F771F8A95E2F7CB018095B3
:1011DC00842386B925C090ED980F9830F0F46623DF
:1011EC0069F040B721E030E0B90102C0660F771F0B
:1011FC009A95E2F7CB01842B80BF12C040B7805385
:10120C0021E030E0B90102C0660F771F8A95E2F742
:10121C00CB018095842380BF03C083E08093600062
:06122C00809160000895AE
:10123200E0E6F0E010821182883020F52AB330E037
:10124200082E02C0359527950A94E2F720FF0CC0BC
:101252004BB321E030E0B90102C0660F771F8A95D7
:10126200E2F7CB0184230BC049B321E030E0B9019E
:1012720002C0660F771F8A95E2F7CB018423809321
:101282006100A9C028EF280F283000F587B390E04D
:10129200022E02C0959587950A94E2F780FF0AC054
:1012A20038B381E090E002C0880F991F2A95E2F7D7
:1012B200832309C036B381E090E002C0880F991FF2
:1012C2002A95E2F783238093610085C020EF280FDF
:1012D200283000F584B390E0022E02C095958795E0
:1012E2000A94E2F780FF0AC035B381E090E002C0C1
:1012F200880F991F2A95E2F7832309C033B381E04F
:1013020090E002C0880F991F2A95E2F78323809309
:10131200610061C098EE980F983020F521B330E05B
:10132200092E02C0359527950A94E2F720FF0CC0DA
:1013320042B321E030E0B90102C0660F771F9A95EF
:10134200E2F7CB0184230BC040B321E030E0B901C6
:1013520002C0660F771F9A95E2F7CB018423809330
:10136200610039C090EE980F983070F447B121E0D7
:1013720030E0B90102C0660F771F9A95E2F7CB0100
:1013820084238093610027C098ED980F983070F401
:1013920046B121E030E0B90102C0660F771F9A958D
:1013A200E2F7CB0184238093610015C090ED980F82
:1013B200983070F440B721E030E0B90102C0660F06
:1013C200771F9A95E2F7CB0184238093610003C0D3
:1013D20083E08093600080916000909161000895A5
:1013E2001F920F920FB60F9211242F933F934F9398
:1013F2005F936F937F938F939F93AF93BF93EF937B
:10140200FF930E9415118D3069F4E0914101F0E0E3
:10141200E850FF4F108288EF90E00E94070C109274
:1014220041018CC090914101903248F4E92FF0E0E3
:10143200E850FF4F80839F5F909341017FC01092DD
:1014420041010E94230FE0914101AE2FB0E0A8506C
:10145200BF4F82E48C93A1E0AE0FB0E0A850BF4F23
:1014620085E78C93A2E0AE0FB0E0A850BF4F96E69E
:101472009C93A3E0AE0FB0E0A850BF4F9C93A4E0B2
:10148200AE0FB0E0A850BF4F45E64C93A5E0AE0FBB
:10149200B0E0A850BF4F32E73C93A6E0AE0FB0E0F9
:1014A200A850BF4F20E22C93A7E0AE0FB0E0A850A7
:1014B200BF4F8FE68C93A8E0AE0FB0E0A850BF4FAD
:1014C20056E75C93A9E0AE0FB0E0A850BF4F4C9333
:1014D200AAE0AE0FB0E0A850BF4F3C93ABE0AE0F16
:1014E200B0E0A850BF4F2C93ACE0AE0FB0E0A850D4
:1014F200BF4F9C93ADE0AE0FB0E0A850BF4F9CE64B
:101502009C93AEE0AE0FB0E0A850BF4F8C9380E149
:101512008E0F80934101E15FF0E0E850FF4F87E7D3
:10152200808388EF90E00E94FF0F2FEF83ED90E31E
:10153200215080409040E1F700C00000FF91EF9100
:10154200BF91AF919F918F917F916F915F914F91D9
:0E1552003F912F910F900FBE0F901F90189594
:10156000109260008830E8F4662369F04AB321E005
:1015700030E0B90102C0660F771F8A95E2F7CB0110
:10158000842B8ABB77C04AB321E030E0B90102C0A6
:10159000660F771F8A95E2F7CB01809584238ABB7B
:1015A00069C098EF980F9830F0F4662369F047B35C
:1015B00021E030E0B90102C0660F771F9A95E2F78B
:1015C000CB01842B87BB56C047B3885021E030E065
:1015D000B90102C0660F771F8A95E2F7CB018095AB
:1015E000842387BB47C090EF980F9830F0F46623B0
:1015F00069F044B321E030E0B90102C0660F771F03
:101600009A95E2F7CB01842B84BB34C044B380515C
:1016100021E030E0B90102C0660F771F8A95E2F73A
:10162000CB018095842384BB25C098EE980F983019
:10163000F0F4662369F041B321E030E0B90102C063
:10164000660F771F9A95E2F7CB01842B81BB12C0FE
:1016500041B3885121E030E0B90102C0660F771F25
:101660008A95E2F7CB018095842381BB03C083E098
:0A16700080936000809160000895EF
:10167A000FC00E948A1138F00E94911120F0952320
:10168A0011F00C94A4110C94B31111240C9484112C
:10169A000E94211070F3959FC1F3950F50E0551FDA
:1016AA00629FF001729FBB27F00DB11D639FAA27AD
:1016BA00F00DB11DAA1F649F6627B00DA11D661FFC
:1016CA00829F2227B00DA11D621F739FB00DA11D1D
:1016DA00621F839FA00D611D221F749F3327A00DD7
:1016EA00611D231F849F600D211D822F762F6A2F73
:1016FA0011249F5750409AF0F1F088234AF0EE0FD8
:10170A00FF1FBB1F661F771F881F91505040A9F704
:10171A009E3F510580F00C94A4110C9484115F3FF4
:10172A00E4F3983ED4F3869577956795B795F79540
:10173A00E7959F5FC1F7FE2B880F911D96958795B8
:04174A0097F908956E
:10174E001F920F920FB60F9211241F932F933F9358
:10175E004F935F936F937F938F939F93AF93BF93AB
:10176E00CF93DF93EF93FF9361E080E10E946211CC
:10177E0061E081E10E94621161E082E10E946211EA
:10178E00DBE0C1E010E02FEF81EE94E021508040CD
:10179E009040E1F700C0000082E10E9474116C2FAE
:1017AE00913009F4612F82E10E94621181E10E9461
:1017BE0074116C2F913009F4612F81E10E94621136
:1017CE0080E10E9474116C2F913009F4612F80E139
:1017DE000E946211D150B9F6FF91EF91DF91CF9136
:1017EE00BF91AF919F918F917F916F915F914F912B
:1017FE003F912F911F910F900FBE0F901F90189534
:10180E00CF92DF92EF92FF920F931F93CF93DF93BE
:10181E00CDB7DEB762970FB6F894DEBF0FBECDBF61
:10182E006C0184E798E79A8389831B8281E694E6AC
:10183E009D838C8383E690E09F838E8327EF30E039
:10184E0040E085E0F901DE011896742F0E94221106
:10185E00CE0101969E878D870396988B8F8704966F
:10186E009A8B898B7E018DE0E80EF11C00E010E072
:10187E00F701619171917F0141E0C6010E944F0D08
:10188E00882341F0F801E85CFE4F0190F081E02DD5
:10189E00099505C00E5F1F4F0630110549F7629678
:1018AE000FB6F894DEBF0FBECDBFDF91CF911F9163
:0C18BE000F91FF90EF90DF90CF90089505
:1018CA001F920F920FB60F9211242F933F934F93AB
:1018DA005F936F937F938F939F93AF93BF93EF938E
:1018EA00FF9381E00E94B70C0E9465100E94B40F1A
:1018FA002FEF83ED90E3215080409040E1F700C044
:10190A00000066B1607181E10E94621166B1607483
:10191A0082E10E9462112FEF83ED90E32150804013
:10192A009040E1F700C000008FE00E94581166B1B4
:10193A00607482E10E94621166B1607181E10E9465
:10194A006211FF91EF91BF91AF919F918F917F911A
:10195A006F915F914F913F912F910F900FBE0F9012
:04196A001F9018951D
:10196E00CF92DF92EF92FF920F931F93CF93DF935D
:10197E00F82E60E089E00E94260860E08AE00E946E
:10198E00260807E010E0CFE1EF2CCC24C394D12C35
:10199E00DE2DB601002E02C0660F771F0A94E2F705
:1019AE006F218C2F0E942608C15001501109CB3196
:1019BE0079F70E94F91003E010E0CFE1EE24E394F2
:1019CE00F12CB701002E02C0660F771F0A94E2F7C2
:1019DE006D238C2F0E942608C15001501109CB3166
:1019EE0081F70E94F910DF91CF911F910F91FF9017
:0819FE00EF90DF90CF900895F7
:101A0600CF92DF92EF92FF920F931F93CF93DF93C4
:101A1600F82E60E089E00E94260861E08AE00E94D4
:101A2600260807E010E0CFE1EF2CCC24C394D12C9C
:101A3600DE2DB601002E02C0660F771F0A94E2F76C
:101A46006F218C2F0E942608C15001501109CB31FD
:101A560079F70E94F91003E010E0CFE1EE24E39459
:101A6600F12CB701002E02C0660F771F0A94E2F729
:101A76006D238C2F0E942608C15001501109CB31CD
:101A860081F70E94F910DF91CF911F910F91FF907E
:081A9600EF90DF90CF9008955E
:101A9E00DC01E62FF72F29C0442319F18FEB820FBB
:101AAE008A3148F080818F7D81548A3120F08FE910
:101ABE00820F8A31B0F42B3548F4622F70E0605EED
:101ACE007F4F808190E068177907B9F460816B359C
:101ADE0058F470E0605E7F4F30E06217730721F0BC
:101AEE000EC0808128130DC031962D912111D4CFB7
:101AFE00808181110AC081E0089580E0089580E020
:101B0E00089580E0089580E008954423E1F38081F4
:0A1B1E008F7D81548A3188F2CACF0E
:101B280057980E94230F27E040E060E480E00E947D
:101B38004E1133988FE00E94581116B817B8E8E193
:101B4800F1E084E5808385E681839DE6928390E7D2
:101B5800938392E79483858324E7268325E7278365
:101B6800908781878AE382871386CF010E94FF0FBF
:101B78000E94AA11BC01990F880B990B0E94D90DDC
:101B880020E93EE34AEF5EE30E94AF110E947C1118
:101B9800CB010E94B40F80E20E94030D83E40E94EF
:061BA800030D579A089599
:101BAE00E89409C097FB3EF49095809570956195E9
:101BBE007F4F8F4F9F4F9923A9F0F92F96E9BB279F
:101BCE009395F695879577956795B795F111F8CF1B
:101BDE00FAF4BB0F11F460FF1BC06F5F7F4F8F4F86
:101BEE009F4F16C0882311F096E911C0772321F07C
:101BFE009EE8872F762F05C0662371F096E8862F14
:101C0E0070E060E02AF09A95660F771F881FDAF76A
:0A1C1E00880F9695879597F90895B1
:101C28001F920F920FB60F9211242F933F934F9349
:101C38005F936F937F938F939F93AF93BF93EF932C
:101C4800FF93809142018F5F809342018F3F91F40F
:101C580081E10E94741161E0911160E081E10E94CC
:101C6800621181E10E94741161E0911160E082E1EA
:101C78000E946211FF91EF91BF91AF919F918F9157
:101C88007F916F915F914F913F912F910F900FBE70
:061C98000F901F9018954B
:101C9E001F920F920FB60F9211242F933F934F93D3
:101CAE005F936F937F938F939F93AF93BF93EF93B6
:101CBE00FF938FB190E00E94981180913E0191E0C8
:101CCE00980F90933E010E946B1180913E018B37CD
:101CDE0018F081E480933E016EB1607881E10E943C
:101CEE006211FF91EF91BF91AF919F918F917F9173
:101CFE006F915F914F913F912F910F900FBE0F906B
:041D0E001F90189575
:101D12001F920F920FB60F9211242F933F934F935E
:101D22005F936F937F938F939F93AF93BF93EF9341
:101D3200FF9380914001882314F410924001809116
:101D4200400191E0980F9093400190E00E949E1113
:101D52008DE090E00E949E11FF91EF91BF91AF91B3
:101D62009F918F917F916F915F914F913F912F91B1
:0A1D72000F900FBE0F901F90189500
:101D7C00CF93DF9357980E94441160E080E10E945A
:101D8C00621160E081E10E94621160E082E10E94D8
:101D9C006211DFEFC2E06C2F627080E10E94621171
:101DAC006C2F647081E10E9462116C2F687082E16B
:101DBC000E946211C83011F0CC0F01C0C2E08FE359
:101DCC009CE90197F1F700C00000D15021F7579A18
:061DDC00DF91CF91089594
:101DE2001F920F920FB60F9211242F933F934F938E
:101DF2005F936F937F938F939F93AF93BF93EF9371
:101E0200FF93809143018F5F809343018F3F49F499
:101E120080E10E94741161E0911160E080E10E9412
:101E22006211FF91EF91BF91AF919F918F917F913D
:101E32006F915F914F913F912F910F900FBE0F9035
:041E42001F90189540
:101E46000E94C7100E94081182E00E94B70C8FE919
:101E56009FE00197F1F700C0000088E20E94B70CEE
:101E66008FE99FE00197F1F700C000008FE00E9424
:101E7600B70C8FE99FE00197F1F700C0000081E001
:101E86000E94B70C8FE99FE00197F1F700C00000B0
:101E960080E80E94B70C8FE99FE00197F1F700C038
:041EA600000008959B
:101EAA000E9444111F921F921F921F921F92812C0F
:101EBA00A12C0F2EF3E0CF2EF02D0F2EF0E8EF2EEF
:101ECA00F5E2FF2EF02D01E020E040E061E081E044
:101EDA000E947E00CC24C394E12C00E020E043E081
:101EEA0061E081E00E94C10481E00E94B70C80E0B9
:101EFA000E946B110F900F900F900F900F90FFCFD1
:101F0A000E94291088F09F5798F0B92F9927B75146
:101F1A00B0F0E1F0660F771F881F991F1AF0BA9583
:101F2A00C9F714C0B13091F00E948311B1E008954D
:101F3A000C948311672F782F8827B85F39F0B93F3F
:101F4A00CCF3869577956795B395D9F73EF4909536
:0E1F5A008095709561957F4F8F4F9F4F089532
:101F68000F931F93CF93DF93CDB7DEB72B970FB6A1
:101F7800F894DEBF0FBECDBF8E010F5F1F4F2BE061
:101F8800F80111922A95E9F74AE0B8010E942F1149
:101F9800C8010E94FF0F2B960FB6F894DEBF0FBE44
:0C1FA800CDBFDF91CF911F910F910895E4
:101FB4001F920F920FB60F9211248F93EF93FF93FA
:101FC400E0913F01E53970F4F0E0EE59FF4F808174
:101FD400803209F48DE08CB980913F018F5F80934A
:101FE4003F0103C0559810923F01FF91EF918F91EB
:0A1FF4000F900FBE0F901F9018957C
:101FFE001F93CF93DF93EC01892BC1F08881811160
:10200E000DC014C0103159F480EC0E94B70C8FE94A
:10201E009FE00197F1F700C0000001C010E0899128
:10202E000E94030D1F5F88818111ECCFDF91CF914C
:04203E001F91089551
:1020420057FD9058440F551F59F05F3F71F0479567
:10205200880F97FB991F61F09F3F79F0879508954C
:10206200121613061406551FF2CF4695F1DF08C06B
:10207200161617061806991FF1CF86957105610588
:042082000894089521
:10208600A1E21A2EAA1BBB1BFD010DC0AA1FBB1F76
:10209600EE1FFF1FA217B307E407F50720F0A21BE8
:1020A600B30BE40BF50B661F771F881F991F1A9455
:1020B60069F760957095809590959B01AC01BD017F
:0420C600CF010895A9
:1020CA00CF93DF9300D0CDB7DEB73D9B0AC084B172
:1020DA0025B130E4839FC0011124922B9A8389830E
:1020EA0004C084B1898385B18A8389819A810F90DA
:0820FA000F90DF91CF910895D2
:10210200BB27FB015527AA27880F991FAA1FA417CF
:1021120010F0A41B83955051B9F7A05DAA3308F0C3
:10212200A95DA193009779F7B111B1931192CB01F7
:042132000C94E91010
:102136000E94230F8FE39CE90197F1F700C000008E
:1021460088E191E00E94FF0F9FEF23ED80E391501D
:1021560020408040E1F700C0000078940E94550FAF
:10216600CF93DF935798C0E0D0E0CE010E9498113C
:102176008DE090E00E9498112196C038D105A9F70C
:08218600579ADF91CF910895F3
:10218E0061E08CE10E94B00A61E08DE10E94B00A2C
:10219E0061E08EE10E94B00A61E08FE10E94B00A18
:0221AE00089592
:1021B000092E0394000C11F4882352F0BB0F40F455
:1021C000BF2B11F460FF04C06F5F7F4F8F4F9F4F95
:0221D000089570
:1021D200DC01FC01672F71917723E1F7329704C08C
:1021E2007C916D9370836291AE17BF07C8F3089517
:1021F20061E08BE00E9426088FE99FE00197F1F7EA
:0E22020000C0000060E08BE00E9426080895F6
:1022100061E08AE00E94B00A61E089E00E94B00AB1
:0A22200061E08BE00E94B00A08950F
:10222A00529B08C08AB12CB1827090E0982F8827FF
:0A223A00822B08958CB190E0089506
:10224400992777FD05C005900D920197E1F7089550
:0A22540001900D920197E1F7089543
:10225E00BB274A3031F4992322F4BDE29095819543
:06226E009F4F0C9482104A
:1022740090EF980F933020F461E00E94B00A089523
:0422840083E0089556
:1022880080E10E943A1181E10E943A1182E10E94A4
:042298003A1108955A
:10229C002770286826B94072607C642B8F71682B7C
:0422AC0067B9089571
:1022B0008F3011F4369A0895807E80BF86B1806693
:0422C00086B908953E
:1022C40090EF980F933018F40E942608089583E045
:0222D40008956B
:1022D600CF93C82F60E08CE00E942608CFB9CF913B
:0222E600089559
:1022E80090EF980F933008F08FEF0E941909089526
:0E22F8000E94850F6894B1110C948411089512
:0E230600E894BB2766277727CB0197F9089547
:0E23140000240A9416161706180609060895E6
:0E23220000240A9412161306140605060895E8
:0C233000529903C05D9BFECF8CB908954C
:0C233C00529903C05D9BFECF8CB9089540
:0C23480097F99F6780E870E060E008955E
:0A235400349BFECF0E94651008952F
:08235E000E943D0B0C94D81005
:062366009FEF80EC0895DA
:04236C000C940000CD
:10237000696E20746865206E616D65206F662061EE
:102380006C6C616820746865206D6F73742067726F
:102390006163696F757320746865206D6F73742055
:1023A0006D6572636966756C207468656E2065760C
:1023B000657279207468696E672077696C6C206239
:1023C0006520676F6F6420616E642069276C6C20E4
:1023D0007374616E64206F6E20746F70206F66205E
:1023E00074686520776F726C64206C6F6F6B696EB8
:1023F000672068756D626C6520746F206869732052
:06240000677261636500D4
:10240600696E20746865206E616D65206F66206157
:102416006C6C6168206D6F737420472026204D0018
:06242600B310940DBE0E80
:01242C00416E
:00000001FF
