:100000000C942D000C94B2020C94B2020C94B20227
:100010000C94B2020C94B2020C94B2020C94B20290
:100020000C94B2020C94B2020C94B2020C94B20280
:100030000C94B2020C94B2020C94B2020C94B20270
:100040000C94B2020C94B2020C94B2020C94B20260
:100050000C94B20200600062800011241FBECFE544
:10006000D8E0DEBFCDBFE4E5F0E040E017C0B591D9
:10007000A59135912591059107FD0CC0959185912C
:10008000EF01F92FE82F05900D92A217B307D9F7CA
:10009000FE0104C01D92A217B307E1F7E935F4078A
:0E00A00031F70E944F010C945500F894FFCFE9
:1000AE00683008F075C0813011F130F08230D1F136
:1000BE00833009F452C06EC0442361F02AB381E04C
:1000CE0090E002C0880F991F6A95E2F7822B8ABBD7
:1000DE0080E008952AB381E090E002C0880F991F56
:1000EE006A95E2F7809582238ABB80E008954423C7
:1000FE0061F027B381E090E002C0880F991F6A95E6
:10010E00E2F7822B87BB80E0089527B381E090E071
:10011E0002C0880F991F6A95E2F78095822387BBEC
:10012E0080E00895442361F024B381E090E002C0A2
:10013E00880F991F6A95E2F7822B84BB80E00895A1
:10014E0024B381E090E002C0880F991F6A95E2F710
:10015E008095822384BB80E00895442361F021B30F
:10016E0081E090E002C0880F991F6A95E2F7822B1A
:10017E0081BB80E0089521B381E090E002C0880F3A
:10018E00991F6A95E2F78095822381BB80E00895DE
:08019E0082E0089581E008955C
:1001A600683008F075C0813011F130F08230D1F13D
:1001B600833009F452C06EC0442361F02BB381E052
:1001C60090E002C0880F991F6A95E2F7822B8BBBDD
:1001D60080E008952BB381E090E002C0880F991F5C
:1001E6006A95E2F7809582238BBB80E008954423CD
:1001F60061F028B381E090E002C0880F991F6A95EC
:10020600E2F7822B88BB80E0089528B381E090E076
:1002160002C0880F991F6A95E2F78095822388BBF2
:1002260080E00895442361F025B381E090E002C0A8
:10023600880F991F6A95E2F7822B85BB80E00895A7
:1002460025B381E090E002C0880F991F6A95E2F716
:100256008095822385BB80E00895442361F022B314
:1002660081E090E002C0880F991F6A95E2F7822B21
:1002760082BB80E0089522B381E090E002C0880F3F
:10028600991F6A95E2F78095822382BB80E00895E4
:0802960082E0089581E0089563
:10029E0061E083E00E941F0261E083E00E949D0204
:1002AE0061E084E00E949D0261E085E00E949D0273
:1002BE0062E082E00E94700262E087E00E947002BB
:1002CE0083E00E94EE019130D9F468E383E00E944E
:1002DE00870283E00E94EE01692F82E00E944D02A8
:1002EE0083E00E94EE01692F87E00E944D022FEFFE
:1002FE0089E698E1215080409040E1F700C000006F
:10030E0084E00E94EE01913091F461E083E00E945E
:10031E00870284E00E94EE01692F82E00E944D0266
:10032E0084E00E94EE01692F87E00E944D0285E075
:10033E000E94EE01913021F662E083E00E94870276
:02034E00BFCF1F
:10035000E0E6F0E010821182683020F082E08093C5
:10036000600037C0813089F028F08230C9F08330D6
:1003700011F12CC089B390E002C0959587956A95DC
:10038000E2F781708093610024C086B390E002C0E0
:10039000959587956A95E2F781708093610019C001
:1003A00083B390E002C0959587956A95E2F78170D6
:1003B000809361000EC080B390E002C09595879550
:1003C0006A95E2F781708093610003C081E08093B9
:0C03D00060008091600090916100089531
:1003DC00843069F08530A1F08330D9F463E081E09A
:1003EC000E94A801909361008093600015C064E0A6
:1003FC0083E00E94A80190936100809360000CC080
:10040C0065E083E00E94A8019093610080936000F6
:10041C0003C083E080936000E0E6F0E081E091812E
:10042C00911101C080E08183809160009091610006
:02043C00089521
:10043E00813079F028F08230A9F08330E1F024C0C9
:10044E00662321F08FEF8ABB80E008951ABA80E010
:10045E000895662321F08FEF87BB80E0089517BAC9
:10046E0080E00895662321F08FEF84BB80E008952D
:10047E0014BA80E00895662321F08FEF81BB80E0EF
:0C048E00089511BA80E0089581E00895FF
:10049A00833099F0873049F08230B9F4462F62E010
:1004AA000E94D3008093600013C0462F67E082E069
:1004BA000E94D300809360000BC0462F63E083E064
:1004CA000E94D3008093600003C083E080936000A1
:0604DA008091600008950E
:1004E0009EEF980F923010F0873059F4643048F442
:1004F000962F682F41E0892F0E945700809360005B
:0E05000003C083E08093600080916000089546
:10050E00813049F028F0823049F0833051F00CC030
:10051E006BBB80E0089568BB80E0089565BB80E00A
:0C052E00089562BB80E0089581E008950C
:10053A009DEF980F933058F4643048F4962F682F43
:10054A0040E0892F0E9457008093600003C083E037
:0A055A008093600080916000089516
:040564000C940000F3
:00000001FF
