:100000000C9433000C9441070C945C0A0C945C0A29
:100010000C945C0A0C945C0A0C945C0A0C945C0AC8
:100020000C945C0A0C945C0A0C948B080C94C60823
:100030000C945C0A0C945C0A0C945C0A0C945C0AA8
:100040000C94A1070C945C0A0C945C0A0C945C0A56
:100050000C945C0A0060008280008200A20014C838
:1000600000A200A4800011241FBECFE5D8E0DEBFAF
:10007000CDBFE4E5F0E040E017C0B591A591359122
:100080002591059107FD0CC095918591EF01F92F00
:10009000E82F05900D92A217B307D9F7FE0104C00F
:1000A0001D92A217B307E1F7E536F40731F70E9476
:0A00B000CA090C945B00F894FFCF1E
:1000BA007F928F929F92AF92BF92CF92DF92EF92EE
:1000CA00FF920F931F93CF93DF9300D0CDB7DEB784
:1000DA00182FD62EB42E922E7C8810928000A11052
:1000EA00CDC38110B3C380E190E0B2C3E9B88A817D
:1000FA0080BDC0FEECC0C1FE75C0AA2009F439C09B
:10010A008E898823D9F08D89882361F070FE05C015
:10011A00769409F0C8C18FED45C2769409F0C5C13D
:10012A008FEC40C270FE05C0769409F0C0C187ED1D
:10013A0039C2769409F0BDC187EC34C28D8988230F
:10014A0061F070FE05C0769409F0B5C18EED2AC241
:10015A00769409F0B2C18EEC25C270FE05C0769481
:10016A0009F0ADC186ED1EC2769409F0AAC186ECEB
:10017A0019C28E898823D9F08D89882361F070FE8F
:10018A0005C0769409F09FC18FE90CC2769409F0F4
:10019A009CC18FE807C270FE05C0769409F097C12A
:1001AA0087E900C2769409F094C187E8FBC18D897A
:1001BA00882361F070FE05C0769409F08CC18EE93F
:1001CA00F1C1769409F089C18EE8ECC170FE05C0D0
:1001DA00769409F084C186E9E5C1769409F081C173
:1001EA0086E8E0C1AA2009F439C08E898823D9F0AB
:1001FA008D89882361F070FE05C0769409F073C179
:10020A008BEDD0C1769409F070C18BECCBC170FE36
:10021A0005C0769409F06BC183EDC4C1769409F0E8
:10022A0068C183ECBFC18D89882361F070FE05C067
:10023A00769409F060C18AEDB5C1769409F05DC182
:10024A008AECB0C170FE05C0769409F058C182EDFF
:10025A00A9C1769409F055C182ECA4C18E8988237C
:10026A00D9F08D89882361F070FE05C0769409F073
:10027A004AC18BE997C1769409F047C18BE892C1CC
:10028A0070FE05C0769409F042C183E98BC1769469
:10029A0009F03FC183E886C18D89882361F070FE29
:1002AA0005C0769409F037C18AE97CC1769409F0D1
:1002BA0034C18AE877C170FE05C0769409F02FC16F
:1002CA0082E970C1769409F02CC182E86BC1C1FE43
:1002DA0075C0AA2009F439C08E898823D9F08D897E
:1002EA00882361F070FE05C0769409F01CC18DED7B
:1002FA0059C1769409F019C18DEC54C170FE05C03C
:10030A00769409F014C185ED4DC1769409F011C1B6
:10031A0085EC48C18D89882361F070FE05C076940A
:10032A0009F009C18CED3EC1769409F006C18CEC46
:10033A0039C170FE05C0769409F001C184ED32C15D
:10034A00769409F0FEC084EC2DC18E898823D9F0F9
:10035A008D89882361F070FE05C0769409F0F3C098
:10036A008DE920C1769409F0F0C08DE81BC170FEBA
:10037A0005C0769409F0EBC085E914C1769409F0BA
:10038A00E8C085E80FC18D89882361F070FE05C039
:10039A00769409F0E0C08CE905C1769409F0DDC0D5
:1003AA008CE800C170FE05C0769409F0D8C084E9D3
:1003BA00F9C0769409F0D5C084E8F4C0AA2009F4FB
:1003CA0039C08E898823D9F08D89882361F070FE1F
:1003DA0005C0769409F0C7C089EDE4C0769409F0A7
:1003EA00C4C089ECDFC070FE05C0769409F0BFC0B6
:1003FA0081EDD8C0769409F0BCC081ECD3C08D8958
:10040A00882361F070FE05C0769409F0B4C088EDC7
:10041A00C9C0769409F0B1C088ECC4C070FE05C0AA
:10042A00769409F0ACC080EDBDC0769409F0A9C0FD
:10043A0080ECB8C08E898823D9F08D89882361F031
:10044A0070FE05C0769409F09EC089E9ABC0769427
:10045A0009F09BC089E8A6C070FE05C0769409F031
:10046A0096C081E99FC0769409F093C081E89AC04A
:10047A008D89882361F070FE05C0769409F08BC0DF
:10048A0088E990C0769409F088C088E88BC070FE2D
:10049A0005C0769409F083C080E984C0769409F097
:1004AA0080C080E87FC08FEF7DC08FEE7BC087EF72
:1004BA0079C087EE77C08EEF75C08EEE73C086EF77
:1004CA0071C086EE6FC08FEB6DC08FEA6BC087EB91
:1004DA0069C087EA67C08EEB65C08EEA63C086EBA7
:1004EA0061C086EA5FC08BEF5DC08BEE5BC083EFB5
:1004FA0059C083EE57C08AEF55C08AEE53C082EFC7
:10050A0051C082EE4FC08BEB4DC08BEA4BC083EBE0
:10051A0049C083EA47C08AEB45C08AEA43C082EBF6
:10052A0041C082EA3FC08DEF3DC08DEE3BC085EFF2
:10053A0039C085EE37C08CEF35C08CEE33C084EFFE
:10054A0031C084EE2FC08DEB2DC08DEA2BC085EB18
:10055A0029C085EA27C08CEB25C08CEA23C084EB2E
:10056A0021C084EA1FC089EF1DC089EE1BC081EF3C
:10057A0019C081EE17C088EF15C088EE13C080EF4E
:10058A0011C080EE0FC089EB0DC089EA0BC081EB68
:10059A0009C081EA07C088EB05C088EA03C080EB7E
:1005AA0001C080EA80BD8B89882321F0811006C0B2
:1005BA0081E207C0811004C080E203C083E201C067
:1005CA0082E28BB9DD2009F47FC0112309F43EC011
:1005DA00BB20F1F0002371F0992031F0C694C69443
:1005EA0009F0F1C088EF2EC1C694C69409F0EDC097
:1005FA0088EB28C1992031F0C694C69409F0E7C067
:10060A0088E720C1C694C69409F0E3C088E31AC1FA
:10061A00002371F0992031F0C694C69409F0DBC02A
:10062A0088ED10C1C694C69409F0D7C088E90AC1FA
:10063A00992031F0C694C69409F0D1C088E502C168
:10064A00C694C69409F0CDC088E1FCC0BB20F1F085
:10065A00002371F0992031F0C694C69409F0C3C002
:10066A0080EFF0C0C694C69409F0BFC080EBEAC020
:10067A00992031F0C694C69409F0B9C080E7E2C067
:10068A00C694C69409F0B5C080E3DCC0002371F0BB
:10069A00992031F0C694C69409F0ADC080EDD2C05D
:1006AA00C694C69409F0A9C080E9CCC0992031F05B
:1006BA00C694C69409F0A3C080E5C4C0C694C69483
:1006CA0009F09FC080E1BEC0112309F43EC0BB20DF
:1006DA00F1F0002371F0992031F0C694C69409F024
:1006EA0092C088EEAFC0C694C69409F08EC088EA5C
:1006FA00A9C0992031F0C694C69409F088C088E64A
:10070A00A1C0C694C69409F084C088E29BC00023A5
:10071A0071F0992031F0C694C69409F07CC088EC37
:10072A0091C0C694C69409F078C088E88BC0992015
:10073A0031F0C694C69409F072C088E483C0C694A6
:10074A00C69409F06EC088E07DC0BB20F1F000239A
:10075A0071F0992031F0C694C69409F064C080EE15
:10076A0071C0C694C69409F060C080EA6BC0992033
:10077A0031F0C694C69409F05AC080E663C0C694A4
:10078A00C69409F056C080E25DC0002371F099203A
:10079A0031F0C694C69409F04EC080EC53C0C6949A
:1007AA00C69409F04AC080E84DC0992031F0C69439
:1007BA00C69409F044C080E445C0C694C69409F0C2
:1007CA0040C080E03FC08CEF3DC08CEB3BC08CE763
:1007DA0039C08CE337C08CED35C08CE933C08CE569
:1007EA0031C08CE12FC084EF2DC084EB2BC084E78D
:1007FA0029C084E327C084ED25C084E923C084E5A9
:10080A0021C084E11FC08CEE1DC08CEA1BC08CE69F
:10081A0019C08CE217C08CEC15C08CE813C08CE4AC
:10082A0011C08CE00FC084EE0DC084EA0BC084E6D0
:10083A0009C084E207C084EC05C084E803C084E4EC
:10084A0001C084E08AB9809180002EC088E090E0DF
:10085A008E9D90018F9D300D9E9D300D112440E09C
:10086A0050E060E074E284EF90E00E94720979013E
:10087A0081E0E81AF108FA82E98238CC9701220F5E
:10088A00331F40E050E060E074E284EF90E00E94A1
:10089A007209790181E0E81AF108FA82E9826A8923
:1008AA0088E00E942C0622CC0F900F90DF91CF9106
:1008BA001F910F91FF90EF90DF90CF90BF90AF9074
:0808CA009F908F907F9008952C
:1008D200109280008830E8F4662369F04BB321E07F
:1008E20030E0B90102C0660F771F8A95E2F7CB01AB
:1008F200842B8BBBDDC04BB321E030E0B90102C0D9
:10090200660F771F8A95E2F7CB01809584238BBB14
:10091200CFC098EF980F9830F0F4662369F048B38F
:1009220021E030E0B90102C0660F771F9A95E2F725
:10093200CB01842B88BBBCC048B3885021E030E097
:10094200B90102C0660F771F8A95E2F7CB01809545
:10095200842388BBADC090EF980F9830F0F46623E3
:1009620069F045B321E030E0B90102C0660F771F9C
:100972009A95E2F7CB01842B85BB9AC045B380518F
:1009820021E030E0B90102C0660F771F8A95E2F7D5
:10099200CB018095842385BB8BC098EE980F98304D
:1009A200F0F4662369F042B321E030E0B90102C0FD
:1009B200660F771F9A95E2F7CB01842B82BB78C032
:1009C20042B3885121E030E0B90102C0660F771FBF
:1009D2008A95E2F7CB018095842382BB69C090EEB1
:1009E200980F9830F0F4662369F047B121E030E0C7
:1009F200B90102C0660F771F9A95E2F7CB01842BEB
:100A020087B956C047B1805221E030E0B90102C037
:100A1200660F771F8A95E2F7CB018095842387B909
:100A220047C098ED980F9830F0F4662369F046B10C
:100A320021E030E0B90102C0660F771F9A95E2F714
:100A4200CB01842B86B934C046B1885221E030E014
:100A5200B90102C0660F771F8A95E2F7CB01809534
:100A6200842386B925C090ED980F9830F0F4662360
:100A720069F040B721E030E0B90102C0660F771F8C
:100A82009A95E2F7CB01842B80BF12C040B7805306
:100A920021E030E0B90102C0660F771F8A95E2F7C4
:100AA200CB018095842380BF03C083E080938000C4
:060AB20080918000089510
:100AB80081E00E94F30760E080E00E94E209C2E85A
:100AC800D0E085E5888383E5898391E49A8312E5FC
:100AD8001B8324E52C8300E20D8389E48E833EE4A6
:100AE8003F83888729878A879B879CE49C878D8793
:100AF8008AE58E870F2EF5E4FF2EF02DFF86188AE3
:100B0800CE010E94500960E081E00E94E209F8826B
:100B180019831A838FE48B831C830D838DE38E8363
:100B28000F831886CE010E9450091F921F921F92B0
:100B38001F921F92812CA12C0F2EF3E0CF2EF02DA7
:100B48000F2EF0E8EF2EF5E2FF2EF02D00E020E06A
:100B580040E061E081E00E945D0090E00E942A0987
:100B68002FEF83ED90E3215080409040E1F700C0E3
:100B780000000F900F900F900F900F90C0E6D0E0FC
:100B88000F2EF5E5DF2EF02D0F2EF3E4EF2EF02DCE
:100B98000F2EF3E5FF2EF02D02E50F2EF1E4BF2E08
:100BA800F02D1AE30F2EF2E4CF2EF02D81E00E94F3
:100BB800F30760E080E00E94E209D882E982FA82C5
:100BC8000B83BC821D831E82CE010E9450090E94A5
:100BD8005E0A90E00E942A09D882E982FA820B8391
:100BE800CC821D831E8260E081E00E94E209CE0172
:100BF8000E9450090E94600A90E00E942A092FEF83
:100C080087EA91E6215080409040E1F700C000005B
:100C180081E00E94F30760E080E00E94E209D88248
:100C2800E982FA820B83CC821D831E82CE010E9448
:100C380050090E94620A90E00E942A092FEF83ED72
:100C480090E3215080409040E1F700C00000AECF13
:100C5800109280008830E8F4662369F04AB321E0F6
:100C680030E0B90102C0660F771F8A95E2F7CB0121
:100C7800842B8ABB77C04AB321E030E0B90102C0B7
:100C8800660F771F8A95E2F7CB01809584238ABB8C
:100C980069C098EF980F9830F0F4662369F047B36D
:100CA80021E030E0B90102C0660F771F9A95E2F79C
:100CB800CB01842B87BB56C047B3885021E030E076
:100CC800B90102C0660F771F8A95E2F7CB018095BC
:100CD800842387BB47C090EF980F9830F0F46623C1
:100CE80069F044B321E030E0B90102C0660F771F14
:100CF8009A95E2F7CB01842B84BB34C044B380516E
:100D080021E030E0B90102C0660F771F8A95E2F74B
:100D1800CB018095842384BB25C098EE980F98302A
:100D2800F0F4662369F041B321E030E0B90102C074
:100D3800660F771F9A95E2F7CB01842B81BB12C00F
:100D480041B3885121E030E0B90102C0660F771F36
:100D58008A95E2F7CB018095842381BB03C083E0A9
:0A0D680080938000809180000895C0
:100D7200E0E8F0E010821182883070F44BB321E099
:100D820030E0B90102C0660F771F8A95E2F7CB0106
:100D92008423809381006FC098EF980F983070F48D
:100DA20048B321E030E0B90102C0660F771F9A957F
:100DB200E2F7CB018423809381005DC090EF980F0E
:100DC200983070F445B321E030E0B90102C0660FFB
:100DD200771F9A95E2F7CB018423809381004BC061
:100DE20098EE980F983070F442B321E030E0B901E8
:100DF20002C0660F771F9A95E2F7CB018423809396
:100E0200810039C090EE980F983070F447B121E01C
:100E120030E0B90102C0660F771F9A95E2F7CB0165
:100E220084238093810027C098ED980F983070F446
:100E320046B121E030E0B90102C0660F771F9A95F2
:100E4200E2F7CB0184238093810015C090ED980FC7
:100E5200983070F440B721E030E0B90102C0660F6B
:100E6200771F9A95E2F7CB0184238093810003C018
:100E720083E08093800080918000909181000895AA
:100E82001F920F920FB60F9211241F932F933F932D
:100E92004F935F936F937F938F939F93AF93BF9380
:100EA200CF93DF93EF93FF9361E080E10E944B0ABF
:100EB20061E081E10E944B0A61E082E10E944B0AFB
:100EC200DBE0C1E010E02FEF81EE94E021508040A2
:100ED2009040E1F700C0000082E10E94540A6C2FAA
:100EE200913009F4612F82E10E944B0A81E10E9454
:100EF200540A6C2F913009F4612F81E10E944B0A50
:100F020080E10E94540A6C2F913009F4612F80E134
:100F12000E944B0AD150B9F6FF91EF91DF91CF9128
:100F2200BF91AF919F918F917F916F915F914F91FF
:100F32003F912F911F910F900FBE0F901F90189508
:100F42001F920F920FB60F9211242F933F934F933C
:100F52005F936F937F938F939F93AF93BF93EF931F
:100F6200FF9381E00E94F3070E9494090E942A09DC
:100F72002FEF83ED90E3215080409040E1F700C0D5
:100F8200000066B1607181E10E944B0A66B1607433
:100F920082E10E944B0A2FEF83ED90E321508040C3
:100FA2009040E1F700C000008FE00E94410A66B164
:100FB200607482E10E944B0A66B1607181E10E9415
:100FC2004B0AFF91EF91BF91AF919F918F917F91CA
:100FD2006F915F914F913F912F910F900FBE0F90A4
:040FE2001F901895AF
:100FE600CF92DF92EF92FF920F931F93CF93DF93EF
:100FF600F82E60E089E00E94690460E08AE00E94C1
:10100600690407E010E0CFE1EF2CCC24C394D12C87
:10101600DE2DB601002E02C0660F771F0A94E2F796
:101026006F218C2F0E946904C15001501109CB31E8
:1010360079F70E941A0A03E010E0CFE1EE24E39468
:10104600F12CB701002E02C0660F771F0A94E2F753
:101056006D238C2F0E946904C15001501109CB31B8
:1010660081F70E941A0ADF91CF911F910F91FF908D
:08107600EF90DF90CF90089588
:10107E00CF92DF92EF92FF920F931F93CF93DF9356
:10108E00F82E60E089E00E94690461E08AE00E9427
:10109E00690407E010E0CFE1EF2CCC24C394D12CEF
:1010AE00DE2DB601002E02C0660F771F0A94E2F7FE
:1010BE006F218C2F0E946904C15001501109CB3150
:1010CE0079F70E941A0A03E010E0CFE1EE24E394D0
:1010DE00F12CB701002E02C0660F771F0A94E2F7BB
:1010EE006D238C2F0E946904C15001501109CB3120
:1010FE0081F70E941A0ADF91CF911F910F91FF90F5
:08110E00EF90DF90CF900895EF
:101116001F920F920FB60F9211242F933F934F9366
:101126005F936F937F938F939F93AF93BF93EF9349
:10113600FF938091A2008F5F8093A2008F3F91F46E
:1011460081E10E94540A61E0911160E081E10E9410
:101156004B0A81E10E94540A61E0911160E082E14C
:101166000E944B0AFF91EF91BF91AF919F918F9192
:101176007F916F915F914F913F912F910F900FBE8D
:061186000F901F90189568
:10118C001F920F920FB60F9211242F933F934F93F0
:10119C005F936F937F938F939F93AF93BF93EF93D3
:1011AC00FF938091A3008F5F8093A3008F3F49F43E
:1011BC0080E10E94540A61E0911160E080E10E949C
:1011CC004B0AFF91EF91BF91AF919F918F917F91BE
:1011DC006F915F914F913F912F910F900FBE0F9098
:0411EC001F901895A3
:1011F0000E94F9090E94290A82E00E94F3078FE900
:101200009FE00197F1F700C0000088E20E94F30719
:101210008FE99FE00197F1F700C000008FE00E9486
:10122000F3078FE99FE00197F1F700C0000081E02C
:101230000E94F3078FE99FE00197F1F700C00000DB
:1012400080E80E94F3078FE99FE00197F1F700C063
:0412500000000895FD
:101254000F931F93CF93DF93CDB7DEB72B970FB6C2
:10126400F894DEBF0FBECDBF8E010F5F1F4F2BE082
:10127400F80111922A95E9F74AE0B8010E94360A6A
:10128400C8010E9450092B960FB6F894DEBF0FBE1A
:0C129400CDBFDF91CF911F910F91089505
:1012A0001F93CF93DF93EC01892BC1F088818111CB
:1012B0000DC014C0103159F480EC0E94F3078FE97F
:1012C0009FE00197F1F700C0000001C010E0899194
:1012D0000E943F081F5F88818111ECCFDF91CF9181
:0412E0001F910895BD
:1012E400A1E21A2EAA1BBB1BFD010DC0AA1FBB1F26
:1012F400EE1FFF1FA217B307E407F50720F0A21B98
:10130400B30BE40BF50B661F771F881F991F1A9404
:1013140069F760957095809590959B01AC01BD012E
:04132400CF01089558
:10132800CF93DF9300D0CDB7DEB73D9B0AC084B121
:1013380025B130E4839FC0011124922B9A838983BD
:1013480004C084B1898385B18A8389819A810F9089
:081358000F90DF91CF91089581
:10136000BB27FB015527AA27880F991FAA1FA4177F
:1013700010F0A41B83955051B9F7A05DAA3308F073
:10138000A95DA193009779F7B111B1931192CB01A7
:041390000C940A0AA5
:101394000E94F8088FE39CE90197F1F700C0000070
:1013A40082E890E00E9450099FEF23ED80E3915082
:1013B40020408040E1F700C0000078940E945C0562
:1013C400603160F4823050F40DC080E801C080ECDC
:1013D400860F0E94F30780918000089583E0809334
:0E13E4008000F9CF10928000813079F7F0CFB1
:1013F20061E08CE10E942C0661E08DE10E942C06E6
:1014020061E08EE10E942C0661E08FE10E942C06D1
:0214120008953B
:10141400DC01FC01672F71917723E1F7329704C057
:101424007C916D9370836291AE17BF07C8F30895E2
:1014340061E088E00E9469048FE99FE00197F1F779
:0E14440000C0000060E088E00E946904089586
:1014520061E08AE00E942C0661E089E00E942C068D
:0A14620061E088E00E942C06089566
:10146C00BB274A3031F4992322F4BDE29095819543
:06147C009F4F0C94B10922
:101482008F3011F4369A0895807E80BF86B18066CF
:0414920086B908957A
:1014960090EF980F933018F40E946904089583E042
:0214A6000895A7
:1014A80090EF980F933008F08FEF0E94B9060895D7
:0414B8000C94000090
:0414BC008BB1089553
:0414C0008AB1089550
:0414C40080B5089552
:1014C800696E20746865206E616D65206F662061A5
:1014D8006C6C6168206D6F737420472026204D0066
:00000001FF
