:100000000C942D000C946B050C946B050C946B05F3
:100010000C946B050C946B050C946B050C946B05A0
:100020000C946B050C946B050C946B050C946B0590
:100030000C946B050C946B050C946B050C946B0580
:100040000C94F7020C946B050C946B050C946B05E7
:100050000C946B0500600062800011241FBECFE588
:10006000D8E0DEBFCDBFE4E5F0E040E017C0B591D9
:10007000A59135912591059107FD0CC0959185912C
:10008000EF01F92FE82F05900D92A217B307D9F7CA
:10009000FE0104C01D92A217B307E1F7E935F4078A
:0E00A00031F70E944E010C945500F894FFCFEA
:1000AE00496E20546865204E616D65204F66204173
:0500BE004C4C4148001C
:1000C400109260008830E8F4662369F04BB321E0B5
:1000D40030E0B90102C0660F771F8A95E2F7CB01C1
:1000E400842B8BBBD6C04BB321E030E0B90102C0F6
:1000F400660F771F8A95E2F7CB01809584238BBB2B
:10010400C8C098EF980F9830E8F4662369F048B3B4
:1001140021E030E0B90102C0660F771F9A95E2F73B
:10012400CB01842B88BBB5C048B321E030E0B901D2
:1001340002C0660F771F9A95E2F7CB01809584235E
:1001440088BBA7C090EF980F9830E8F4662369F055
:1001540045B321E030E0B90102C0660F771F9A95DC
:10016400E2F7CB01842B85BB94C045B321E030E09A
:10017400B90102C0660F771F9A95E2F7CB0180950B
:10018400842385BB86C098EE980F9830E8F46623E4
:1001940069F042B321E030E0B90102C0660F771F75
:1001A4009A95E2F7CB01842B82BB73C042B321E062
:1001B40030E0B90102C0660F771F9A95E2F7CB01D0
:1001C4008095842382BB65C090EE980F9830E8F444
:1001D400662369F047B121E030E0B90102C0660F3F
:1001E400771F9A95E2F7CB01842B87B952C047B1A8
:1001F40021E030E0B90102C0660F771F9A95E2F75B
:10020400CB018095842387B944C098ED980F98302A
:10021400E8F4662369F046B121E030E0B90102C098
:10022400660F771F9A95E2F7CB01842B86B931C00C
:1002340046B121E030E0B90102C0660F771F9A95FC
:10024400E2F7CB018095842386B923C0805388309C
:10025400E8F4662369F040B721E030E0B90102C058
:10026400660F771F8A95E2F7CB01842B80BF11C0FC
:1002740040B721E030E0B90102C0660F771F8A95CC
:10028400E2F7CB018095842380BF03C083E0809391
:080294006000809160000895F4
:10029C00CF93DF93CDB7DEB765970FB6F894DEBF7B
:1002AC000FBECDBF2EEA30E040E085E1F901DE0162
:1002BC001196742F0E9404050E9432050E943C0581
:1002CC000E94C7040E94F7040E94490327E040E003
:1002DC0060E480E00E94460578948FE39CE90197E6
:1002EC00F1F700C00000CE0101960E9458049FEF68
:1002FC0029E688E1915020408040E1F700C00000E1
:10030C0081E00E949A033398D12C01E0FD2C10E877
:10031C0001C011EC80E10E946305602F91116F2DDB
:10032C0080E10E945A05812F0E949A039FEF21EED3
:10033C0084E0915020408040E1F700C000001F385D
:10034C0041F31F5F103D30F3ED2C10E080E10E9473
:10035C006305602F91116F2D80E10E945A05612F6A
:10036C008E2D0E94B0041F3071F4E11020C09FEF5D
:10037C0021EE84E0915020408040E1F700C0000065
:10038C00E02E11E0E3CF9FEF21EE84E0915020406E
:10039C008040E1F700C000001F5F802F103108F093
:1003AC008F2D882309F4B3CF0111D0CFB0CF9FEF9D
:1003BC0021EE84E0915020408040E1F700C0000025
:0203CC00A6CFBA
:1003CE00109260008830E8F4662369F04AB321E0A9
:1003DE0030E0B90102C0660F771F8A95E2F7CB01B4
:1003EE00842B8ABB73C04AB321E030E0B90102C04E
:1003FE00660F771F8A95E2F7CB01809584238ABB1F
:10040E0065C098EF980F9830E8F4662369F047B30B
:10041E0021E030E0B90102C0660F771F9A95E2F72E
:10042E00CB01842B87BB52C047B321E030E0B9012A
:10043E0002C0660F771F9A95E2F7CB018095842351
:10044E0087BB44C090EF980F9830E8F4662369F0AC
:10045E0044B321E030E0B90102C0660F771F9A95D0
:10046E00E2F7CB01842B84BB31C044B321E030E0F2
:10047E00B90102C0660F771F9A95E2F7CB018095FE
:10048E00842384BB23C088518830E8F4662369F046
:10049E0041B321E030E0B90102C0660F771F8A95A3
:1004AE00E2F7CB01842B81BB11C041B321E030E0D8
:1004BE00B90102C0660F771F8A95E2F7CB018095CE
:1004CE00842381BB03C083E0809360008091600031
:0204DE0008957F
:1004E000E0E6F0E010821182883070F44BB321E036
:1004F00030E0B90102C0660F771F8A95E2F7CB01A1
:100500008423809361006EC098EF980F983070F448
:1005100048B321E030E0B90102C0660F771F9A9519
:10052000E2F7CB018423809361005CC090EF980FC9
:10053000983070F445B321E030E0B90102C0660F95
:10054000771F9A95E2F7CB018423809361004AC01C
:1005500098EE980F983070F442B321E030E0B90182
:1005600002C0660F771F9A95E2F7CB018423809330
:10057000610038C090EE980F983070F447B121E0D8
:1005800030E0B90102C0660F771F9A95E2F7CB0100
:1005900084238093610026C098ED980F983070F402
:1005A00046B121E030E0B90102C0660F771F9A958D
:1005B000E2F7CB0184238093610014C0805388301C
:1005C00070F440B721E030E0B90102C0660F771F38
:1005D0008A95E2F7CB0184238093610003C083E016
:0E05E00080936000809160009091610008950A
:1005EE001F920F920FB60F9211242F933F934F939A
:1005FE005F936F937F938F939F93AF93BF93EF937D
:10060E00FF9381E00E949A030E947A040E943204B2
:10061E002FEF83ED90E3215080409040E1F700C032
:10062E00000066B1607181E10E945A0566B1607486
:10063E0082E10E945A052FEF83ED90E32150804016
:10064E009040E1F700C000008FE00E94500566B1B7
:10065E00607482E10E945A0566B1607181E10E9468
:10066E005A05FF91EF91BF91AF919F918F917F911D
:10067E006F915F914F913F912F910F900FBE0F9001
:04068E001F9018950C
:1006920082E00E949A0361E080E10E945A052FEFF6
:1006A20083ED90E3215080409040E1F700C00000CC
:1006B20088E20E949A0360E080E10E945A052FEFCF
:1006C20083ED90E3215080409040E1F700C00000AC
:1006D2008FE00E949A0361E080E10E945A052FEFA9
:1006E20083ED90E3215080409040E1F700C000008C
:1006F20081E00E949A0360E080E10E945A052FEF98
:1007020083ED90E3215080409040E1F700C000006B
:1007120080E80E949A0361E080E10E945A052FEF6F
:1007220083ED90E3215080409040E1F700C000004B
:02073200089528
:10073400CF92DF92EF92FF920F931F93CF93DF93A9
:10074400F82E60E089E00E94620060E08AE00E9486
:10075400620007E010E0CFE1EF2CCC24C394D12C4D
:10076400DE2DB601002E02C0660F771F0A94E2F751
:100774006F218C2F0E946200C15001501109CB31AE
:1007840079F70E94E80403E010E0CFE1EE24E3945B
:10079400F12CB701002E02C0660F771F0A94E2F70E
:1007A4006D238C2F0E946200C15001501109CB317E
:1007B40081F70E94E804DF91CF911F910F91FF9080
:0807C400EF90DF90CF90089543
:1007CC00CF92DF92EF92FF920F931F93CF93DF9311
:1007DC00F82E60E089E00E94620061E08AE00E94ED
:1007EC00620007E010E0CFE1EF2CCC24C394D12CB5
:1007FC00DE2DB601002E02C0660F771F0A94E2F7B9
:10080C006F218C2F0E946200C15001501109CB3115
:10081C0079F70E94E80403E010E0CFE1EE24E394C2
:10082C00F12CB701002E02C0660F771F0A94E2F775
:10083C006D238C2F0E946200C15001501109CB31E5
:10084C0081F70E94E804DF91CF911F910F91FF90E7
:08085C00EF90DF90CF900895AA
:100864000F931F93CF93DF93CDB7DEB72B970FB6BC
:10087400F894DEBF0FBECDBF8E010F5F1F4F2BE07C
:10088400F80111922A95E9F74AE0B8010E941D0582
:10089400C8010E9458042B960FB6F894DEBF0FBE11
:0C08A400CDBFDF91CF911F910F910895FF
:1008B0001F93CF93DF93EC01892BC1F088818111C5
:1008C0000DC014C0103159F480EC0E949A038FE9D6
:1008D0009FE00197F1F700C0000001C010E089918E
:1008E0000E94E6031F5F88818111ECCFDF91CF91D9
:0408F0001F910895B7
:1008F400CF93DF9300D0CDB7DEB73D9B0AC084B160
:1009040025B130E4839FC0011124922B9A838983FB
:1009140004C084B1898385B18A8389819A810F90C7
:080924000F90DF91CF910895BF
:10092C00BB27FB015527AA27880F991FAA1FA417BD
:10093C0010F0A41B83955051B9F7A05DAA3308F0B1
:10094C00A95DA193009779F7B111B1931192CB01E5
:04095C000C94D8041B
:10096000603160F4823050F40DC080E801C080EC4A
:10097000860F0E949A0380916000089583E080931F
:0E0980006000F9CF10926000813079F7F0CF5F
:10098E0061E08CE10E94E70161E08DE10E94E701E8
:10099E0061E08EE10E94E70161E08FE10E94E701D4
:0209AE000895AA
:1009B000DC01FC01672F71917723E1F7329704C0C6
:1009C0007C916D9370836291AE17BF07C8F3089551
:1009D00061E08BE00E9462008FE99FE00197F1F7F0
:0E09E00000C0000060E08BE00E9462000895FD
:1009EE0061E08AE00E94E70161E089E00E94E70190
:0A09FE0061E08BE00E94E70108951C
:100A0800992777FD05C005900D920197E1F70895A4
:0A0A180001900D920197E1F7089597
:100A2200873021F094EF980F923020F460E00E941A
:080A3200E701089583E0089537
:100A3A00BB274A3031F4992322F4BDE2909581957F
:060A4A009F4F0C9497047D
:100A500090EF980F933020F461E00E94E701089531
:040A600083E0089592
:100A640080E10E94280581E10E94280582E10E941C
:040A740028050895B4
:100A780087E00E9411058CE00E9411058DE00E941C
:040A880011050895B7
:100A8C002770286826B94072607C642B8F71682BA4
:040A9C0067B9089599
:100AA0008F3011F4369A0895807E80BF86B18066BB
:040AB00086B9089566
:100AB40090EF980F933018F40E946200089583E039
:020AC400089593
:100AC60090EF980F933008F08FEF0E947002089510
:040AD6000C9400007C
:00000001FF
