:100000000C943C000C94E3020C94ED050C94ED056B
:100010000C94ED050C94ED050C94ED050C94ED0598
:100020000C94ED050C94ED050C94ED050C94ED0588
:100030000C94ED050C94ED050C94ED050C94ED0578
:100040000C9443030C94ED050C94ED050C94ED0514
:100050000C94ED054A044E04520456045A045E04FE
:10006000620466046A046E0446047204006000625E
:100070008000620082000BDE11241FBECFE5D8E0B5
:10008000DEBFCDBFECE6F0E040E017C0B591A59132
:1000900035912591059107FD0CC095918591EF0152
:1000A000F92FE82F05900D92A217B307D9F7FE019B
:1000B00004C01D92A217B307E1F7E837F40731F740
:0C00C0000E9443050C946400F894FFCFEC
:1000CC00109260008830E8F4662369F04BB321E0AD
:1000DC0030E0B90102C0660F771F8A95E2F7CB01B9
:1000EC00842B8BBBD6C04BB321E030E0B90102C0EE
:1000FC00660F771F8A95E2F7CB01809584238BBB23
:10010C00C8C098EF980F9830E8F4662369F048B3AC
:10011C0021E030E0B90102C0660F771F9A95E2F733
:10012C00CB01842B88BBB5C048B321E030E0B901CA
:10013C0002C0660F771F9A95E2F7CB018095842356
:10014C0088BBA7C090EF980F9830E8F4662369F04D
:10015C0045B321E030E0B90102C0660F771F9A95D4
:10016C00E2F7CB01842B85BB94C045B321E030E092
:10017C00B90102C0660F771F9A95E2F7CB01809503
:10018C00842385BB86C098EE980F9830E8F46623DC
:10019C0069F042B321E030E0B90102C0660F771F6D
:1001AC009A95E2F7CB01842B82BB73C042B321E05A
:1001BC0030E0B90102C0660F771F9A95E2F7CB01C8
:1001CC008095842382BB65C090EE980F9830E8F43C
:1001DC00662369F047B121E030E0B90102C0660F37
:1001EC00771F9A95E2F7CB01842B87B952C047B1A0
:1001FC0021E030E0B90102C0660F771F9A95E2F753
:10020C00CB018095842387B944C098ED980F983022
:10021C00E8F4662369F046B121E030E0B90102C090
:10022C00660F771F9A95E2F7CB01842B86B931C004
:10023C0046B121E030E0B90102C0660F771F9A95F4
:10024C00E2F7CB018095842386B923C08053883094
:10025C00E8F4662369F040B721E030E0B90102C050
:10026C00660F771F8A95E2F7CB01842B80BF11C0F4
:10027C0040B721E030E0B90102C0660F771F8A95C4
:10028C00E2F7CB018095842380BF03C083E0809389
:08029C006000809160000895EC
:1002A400109260008830E8F4662369F04AB321E0D4
:1002B40030E0B90102C0660F771F8A95E2F7CB01DF
:1002C400842B8ABB73C04AB321E030E0B90102C079
:1002D400660F771F8A95E2F7CB01809584238ABB4A
:1002E40065C098EF980F9830E8F4662369F047B337
:1002F40021E030E0B90102C0660F771F9A95E2F75A
:10030400CB01842B87BB52C047B321E030E0B90155
:1003140002C0660F771F9A95E2F7CB01809584237C
:1003240087BB44C090EF980F9830E8F4662369F0D7
:1003340044B321E030E0B90102C0660F771F9A95FB
:10034400E2F7CB01842B84BB31C044B321E030E01D
:10035400B90102C0660F771F9A95E2F7CB01809529
:10036400842384BB23C088518830E8F4662369F071
:1003740041B321E030E0B90102C0660F771F8A95CE
:10038400E2F7CB01842B81BB11C041B321E030E003
:10039400B90102C0660F771F8A95E2F7CB018095F9
:1003A400842381BB03C083E080936000809160005C
:0203B4000895AA
:1003B600E0E6F0E010821182883070F44BB321E061
:1003C60030E0B90102C0660F771F8A95E2F7CB01CC
:1003D6008423809361006EC098EF980F983070F474
:1003E60048B321E030E0B90102C0660F771F9A9545
:1003F600E2F7CB018423809361005CC090EF980FF5
:10040600983070F445B321E030E0B90102C0660FC0
:10041600771F9A95E2F7CB018423809361004AC047
:1004260098EE980F983070F442B321E030E0B901AD
:1004360002C0660F771F9A95E2F7CB01842380935B
:10044600610038C090EE980F983070F447B121E003
:1004560030E0B90102C0660F771F9A95E2F7CB012B
:1004660084238093610026C098ED980F983070F42D
:1004760046B121E030E0B90102C0660F771F9A95B8
:10048600E2F7CB0184238093610014C08053883047
:1004960070F440B721E030E0B90102C0660F771F63
:1004A6008A95E2F7CB0184238093610003C083E041
:0E04B600809360008091600090916100089535
:1004C4001F93CF93DF9314E0143071F461E084E060
:1004D4000E94660060E085E00E94660060E086E0BD
:1004E4000E946600D1E059C0153071F460E084E0E8
:1004F4000E94660061E085E00E94660060E086E09C
:100504000E946600D2E049C060E084E00E94660078
:1005140060E085E00E94660061E086E00E9466007B
:10052400D3E03BC08D2F0E945B0580E20E94E10373
:100534008C2F0E94DB019923E1F061E080E10E94AD
:10054400D6052FEF8BE792E9215080409040E1F7E8
:1005540000C000002FEF83EC99E0215080409040D0
:10056400E1F700C0000081E00E949503DF3F79F0CD
:1005740023C02FEF83EC99E0215080409040E1F7B5
:1005840000C00000CF5FDD5FC83161F608C01F5FA7
:10059400173009F099CFDFEF0FC0C4E1C3CF2FEFBD
:1005A40083EC99E0215080409040E1F700C00000C6
:1005B40081E00E949503EBCF8D2FDF91CF911F91A6
:0205C400089598
:1005C6001F920F920FB60F9211241F932F933F93F2
:1005D6004F935F936F937F938F939F93AF93BF9345
:1005E600CF93DF93EF93FF9361E080E10E94D605FE
:1005F60061E081E10E94D60561E082E10E94D605B4
:10060600DBE0C1E010E02FEF81EE94E02150804066
:100616009040E1F700C0000082E10E94DF056C2FE8
:10062600913009F4612F82E10E94D60581E10E9492
:10063600DF056C2F913009F4612F81E10E94D60508
:1006460080E10E94DF056C2F913009F4612F80E173
:100656000E94D605D150B9F6FF91EF91DF91CF9167
:10066600BF91AF919F918F917F916F915F914F91C4
:100676003F912F911F910F900FBE0F901F901895CD
:100686001F920F920FB60F9211242F933F934F9301
:100696005F936F937F938F939F93AF93BF93EF93E4
:1006A600FF9381E00E9495030E940D050E94A80415
:1006B6002FEF83ED90E3215080409040E1F700C09A
:1006C600000066B1607181E10E94D60566B1607472
:1006D60082E10E94D6052FEF83ED90E32150804002
:1006E6009040E1F700C000008FE00E94CC0566B1A3
:1006F600607482E10E94D60566B1607181E10E9454
:10070600D605FF91EF91BF91AF919F918F917F9108
:100716006F915F914F913F912F910F900FBE0F9068
:040726001F90189573
:10072A00CF92DF92EF92FF920F931F93CF93DF93B3
:10073A00F82E60E089E00E94660060E08AE00E948C
:10074A00660007E010E0CFE1EF2CCC24C394D12C53
:10075A00DE2DB601002E02C0660F771F0A94E2F75B
:10076A006F218C2F0E946600C15001501109CB31B4
:10077A0079F70E94910503E010E0CFE1EE24E394BB
:10078A00F12CB701002E02C0660F771F0A94E2F718
:10079A006D238C2F0E946600C15001501109CB3184
:1007AA0081F70E949105DF91CF911F910F91FF90E0
:0807BA00EF90DF90CF9008954D
:1007C200CF92DF92EF92FF920F931F93CF93DF931B
:1007D200F82E60E089E00E94660061E08AE00E94F3
:1007E200660007E010E0CFE1EF2CCC24C394D12CBB
:1007F200DE2DB601002E02C0660F771F0A94E2F7C3
:100802006F218C2F0E946600C15001501109CB311B
:1008120079F70E94910503E010E0CFE1EE24E39422
:10082200F12CB701002E02C0660F771F0A94E2F77F
:100832006D238C2F0E946600C15001501109CB31EB
:1008420081F70E949105DF91CF911F910F91FF9047
:08085200EF90DF90CF900895B4
:10085A000E94F0040E94C2058FE39CE90197F1F718
:10086A0000C0000081E00E9495030E94620290E0AD
:10087A00FC013197EC30F105C0F7E65DFF4F0C94AF
:10088A00E70580E30E94E103F0CF81E30E94E103E0
:10089A00ECCF82E30E94E103E8CF83E30E94E10305
:1008AA00E4CF84E30E94E103E0CF85E30E94E10301
:1008BA00DCCF86E30E94E103D8CF87E30E94E103FD
:1008CA00D4CF88E30E94E103D0CF89E30E94E103F9
:1008DA00CCCF8AE20E94E103C8CF83E20E94E103FF
:0208EA00C4CF79
:1008EC000E9470050E94A00582E00E9495038FE98A
:1008FC009FE00197F1F700C0000088E20E94950389
:10090C008FE99FE00197F1F700C000008FE00E9493
:10091C0095038FE99FE00197F1F700C0000081E09B
:10092C000E9495038FE99FE00197F1F700C000004A
:10093C0080E80E9495038FE99FE00197F1F700C0D2
:04094C00000008950A
:100950000F931F93CF93DF93CDB7DEB72B970FB6CF
:10096000F894DEBF0FBECDBF8E010F5F1F4F2BE08F
:10097000F80111922A95E9F74AE0B8010E94AD0505
:10098000C8010E94CE042B960FB6F894DEBF0FBEAE
:0C099000CDBFDF91CF911F910F91089512
:10099C001F93CF93DF93EC01892BC1F088818111D8
:1009AC000DC014C0103159F480EC0E9495038FE9EE
:1009BC009FE00197F1F700C0000001C010E08991A1
:1009CC000E94E1031F5F88818111ECCFDF91CF91F1
:0409DC001F910895CA
:1009E00060E084E10E94520160E085E10E945201D2
:1009F00060E086E10E94520160E087E10E945201BE
:100A000061E084E00E94520161E085E00E945201B1
:0A0A100061E086E00E9452010895A3
:100A1A00CF93DF9300D0CDB7DEB73D9B0AC084B138
:100A2A0025B130E4839FC0011124922B9A838983D4
:100A3A0004C084B1898385B18A8389819A810F90A0
:080A4A000F90DF91CF91089598
:100A5200BB27FB015527AA27880F991FAA1FA41796
:100A620010F0A41B83955051B9F7A05DAA3308F08A
:100A7200A95DA193009779F7B111B1931192CB01BE
:040A82000C9481054A
:100A86000E9476048FE39CE90197F1F700C000000D
:100A960082E690E00E94CE049FEF23ED80E3915022
:100AA60020408040E1F700C0000078940E942D04A9
:100AB6008A3069F018F4813040F40CC08B3019F09C
:100AC6008C3039F007C080E305C0805D03C08AE240
:0A0AD60001C083E20E94E1030895CD
:100AE00061E08CE10E94520161E08DE10E945201BF
:100AF00061E08EE10E94520161E08FE10E945201AB
:020B0000089556
:100B0200DC01FC01672F71917723E1F7329704C072
:100B12007C916D9370836291AE17BF07C8F30895FD
:100B220061E08BE00E9466008FE99FE00197F1F798
:0E0B320000C0000060E08BE00E9466000895A5
:100B400061E08AE00E94520161E089E00E94520166
:0A0B500061E08BE00E94520108955D
:100B5A00BB274A3031F4992322F4BDE2909581955E
:060B6A009F4F0C942A05C8
:100B700090EF980F933020F461E00E9452010895A5
:040B800083E0089571
:100B840080E10E94B80581E10E94B80582E10E94DB
:040B9400B805089503
:100B98008F3011F4369A0895807E80BF86B18066C2
:040BA80086B908956D
:100BAC0090EF980F933018F40E946600089583E03C
:020BBC0008959A
:100BBE0090EF980F933008F08FEF0E94DB010895AD
:0C0BCE00EE0FFF1F0590F491E02D09943C
:040BDA000C94000077
:100BDE00696E20746865206E616D65206F66206198
:100BEE006C6C6168206D6F737420472026204D0059
:00000001FF
