:100000000C9439000C94FF030C94E70A0C94E70A53
:100010000C94E70A0C94E70A0C94E70A0C94E70A9C
:100020000C94E70A0C94E70A0C94FC060C94D9078C
:100030000C9437070C9449020C94C0080C94710777
:100040000C94BD040C94E70A0C94E70A0C94E70A9C
:100050000C94E70A0060006280006200F80015D28C
:1000600000F80118800118014000166801400145A0
:10007000800011241FBECFE5D8E0DEBFCDBFE4E590
:10008000F0E040E017C0B591A5913591259105911B
:1000900007FD0CC095918591EF01F92FE82F059090
:1000A0000D92A217B307D9F7FE0104C01D92A21743
:1000B000B307E1F7E137F40731F70E94BD090C946B
:0600C0006100F894FFCF7F
:1000C6004E4F5420434F4D504C4554454421212119
:1000D600212121210054454D5020004E65772043B3
:1000E6006F6E76657273696F6E205365742E2E2E51
:0600F60000747261660057
:1000FC00109260008830E8F4662369F04BB321E07D
:10010C0030E0B90102C0660F771F8A95E2F7CB0188
:10011C00842B8BBBDDC04BB321E030E0B90102C0B6
:10012C00660F771F8A95E2F7CB01809584238BBBF2
:10013C00CFC098EF980F9830F0F4662369F048B36D
:10014C0021E030E0B90102C0660F771F9A95E2F703
:10015C00CB01842B88BBBCC048B3885021E030E075
:10016C00B90102C0660F771F8A95E2F7CB01809523
:10017C00842388BBADC090EF980F9830F0F46623C1
:10018C0069F045B321E030E0B90102C0660F771F7A
:10019C009A95E2F7CB01842B85BB9AC045B380516D
:1001AC0021E030E0B90102C0660F771F8A95E2F7B3
:1001BC00CB018095842385BB8BC098EE980F98302B
:1001CC00F0F4662369F042B321E030E0B90102C0DB
:1001DC00660F771F9A95E2F7CB01842B82BB78C010
:1001EC0042B3885121E030E0B90102C0660F771F9D
:1001FC008A95E2F7CB018095842382BB69C090EE8F
:10020C00980F9830F0F4662369F047B121E030E0A4
:10021C00B90102C0660F771F9A95E2F7CB01842BC8
:10022C0087B956C047B1805221E030E0B90102C015
:10023C00660F771F8A95E2F7CB018095842387B9E7
:10024C0047C098ED980F9830F0F4662369F046B1EA
:10025C0021E030E0B90102C0660F771F9A95E2F7F2
:10026C00CB01842B86B934C046B1885221E030E0F2
:10027C00B90102C0660F771F8A95E2F7CB01809512
:10028C00842386B925C090ED980F9830F0F466233E
:10029C0069F040B721E030E0B90102C0660F771F6A
:1002AC009A95E2F7CB01842B80BF12C040B78053E4
:1002BC0021E030E0B90102C0660F771F8A95E2F7A2
:1002CC00CB018095842380BF03C083E080936000C2
:0602DC008091600008950E
:1002E200E0E6F0E010821182883020F52AB330E097
:1002F200082E02C0359527950A94E2F720FF0CC01C
:100302004BB321E030E0B90102C0660F771F8A9536
:10031200E2F7CB0184230BC049B321E030E0B901FD
:1003220002C0660F771F8A95E2F7CB018423809380
:100332006100A9C028EF280F283000F587B390E0AC
:10034200022E02C0959587950A94E2F780FF0AC0B3
:1003520038B381E090E002C0880F991F2A95E2F736
:10036200832309C036B381E090E002C0880F991F51
:100372002A95E2F783238093610085C020EF280F3E
:10038200283000F584B390E0022E02C0959587953F
:100392000A94E2F780FF0AC035B381E090E002C020
:1003A200880F991F2A95E2F7832309C033B381E0AE
:1003B20090E002C0880F991F2A95E2F78323809369
:1003C200610061C098EE980F983020F521B330E0BB
:1003D200092E02C0359527950A94E2F720FF0CC03A
:1003E20042B321E030E0B90102C0660F771F9A954F
:1003F200E2F7CB0184230BC040B321E030E0B90126
:1004020002C0660F771F9A95E2F7CB01842380938F
:10041200610039C090EE980F983070F447B121E036
:1004220030E0B90102C0660F771F9A95E2F7CB015F
:1004320084238093610027C098ED980F983070F460
:1004420046B121E030E0B90102C0660F771F9A95EC
:10045200E2F7CB0184238093610015C090ED980FE1
:10046200983070F440B721E030E0B90102C0660F65
:10047200771F9A95E2F7CB0184238093610003C032
:1004820083E0809360008091600090916100089504
:100492001F920F920FB60F9211242F933F934F93F7
:1004A2005F936F937F938F939F93AF93BF93EF93DA
:1004B200FF930E94460A8D3069F4E0914201F0E018
:1004C200E850FF4F108288EF90E00E945F04109284
:1004D20042018CC090914201903248F4E92FF0E041
:1004E200E850FF4F80839F5F909342017FC010923C
:1004F20042010E940B08E0914201AE2FB0E0A850E9
:10050200BF4F82E48C93A1E0AE0FB0E0A850BF4F82
:1005120085E78C93A2E0AE0FB0E0A850BF4F96E6FD
:100522009C93A3E0AE0FB0E0A850BF4F9C93A4E011
:10053200AE0FB0E0A850BF4F45E64C93A5E0AE0F1A
:10054200B0E0A850BF4F32E73C93A6E0AE0FB0E058
:10055200A850BF4F20E22C93A7E0AE0FB0E0A85006
:10056200BF4F8FE68C93A8E0AE0FB0E0A850BF4F0C
:1005720056E75C93A9E0AE0FB0E0A850BF4F4C9392
:10058200AAE0AE0FB0E0A850BF4F3C93ABE0AE0F75
:10059200B0E0A850BF4F2C93ACE0AE0FB0E0A85033
:1005A200BF4F9C93ADE0AE0FB0E0A850BF4F9CE6AA
:1005B2009C93AEE0AE0FB0E0A850BF4F8C9380E1A9
:1005C2008E0F80934201E15FF0E0E850FF4F87E732
:1005D200808388EF90E00E9408092FEF83ED90E37B
:1005E200215080409040E1F700C00000FF91EF9160
:1005F200BF91AF919F918F917F916F915F914F9139
:0E0602003F912F910F900FBE0F901F901895F3
:10061000109260008830E8F4662369F04AB321E064
:1006200030E0B90102C0660F771F8A95E2F7CB016F
:10063000842B8ABB77C04AB321E030E0B90102C005
:10064000660F771F8A95E2F7CB01809584238ABBDA
:1006500069C098EF980F9830F0F4662369F047B3BB
:1006600021E030E0B90102C0660F771F9A95E2F7EA
:10067000CB01842B87BB56C047B3885021E030E0C4
:10068000B90102C0660F771F8A95E2F7CB0180950A
:10069000842387BB47C090EF980F9830F0F466230F
:1006A00069F044B321E030E0B90102C0660F771F62
:1006B0009A95E2F7CB01842B84BB34C044B38051BC
:1006C00021E030E0B90102C0660F771F8A95E2F79A
:1006D000CB018095842384BB25C098EE980F983079
:1006E000F0F4662369F041B321E030E0B90102C0C3
:1006F000660F771F9A95E2F7CB01842B81BB12C05E
:1007000041B3885121E030E0B90102C0660F771F84
:100710008A95E2F7CB018095842381BB03C083E0F7
:0A072000809360008091600008954E
:10072A000FC00E94BB0A38F00E94C20A20F095232B
:10073A0011F00C94D50A0C94E40A11240C94B50A0D
:10074A000E942A0970F3959FC1F3950F50E0551F37
:10075A00629FF001729FBB27F00DB11D639FAA270C
:10076A00F00DB11DAA1F649F6627B00DA11D661F5B
:10077A00829F2227B00DA11D621F739FB00DA11D7C
:10078A00621F839FA00D611D221F749F3327A00D36
:10079A00611D231F849F600D211D822F762F6A2FD2
:1007AA0011249F5750409AF0F1F088234AF0EE0F37
:1007BA00FF1FBB1F661F771F881F91505040A9F764
:1007CA009E3F510580F00C94D50A0C94B50A5F3F00
:1007DA00E4F3983ED4F3869577956795B795F795A0
:1007EA00E7959F5FC1F7FE2B880F911D9695879518
:0407FA0097F90895CE
:1007FE001F920F920FB60F9211241F932F933F93B8
:10080E004F935F936F937F938F939F93AF93BF930A
:10081E00CF93DF93EF93FF9361E080E10E94930A01
:10082E0061E081E10E94930A61E082E10E94930AF5
:10083E00DBE0C1E010E02FEF81EE94E0215080402C
:10084E009040E1F700C0000082E10E94A50A6C2FE3
:10085E00913009F4612F82E10E94930A81E10E9496
:10086E00A50A6C2F913009F4612F81E10E94930A41
:10087E0080E10E94A50A6C2F913009F4612F80E16E
:10088E000E94930AD150B9F6FF91EF91DF91CF916B
:10089E00BF91AF919F918F917F916F915F914F918A
:1008AE003F912F911F910F900FBE0F901F90189593
:1008BE00CF92DF92EF92FF920F931F93CF93DF931E
:1008CE00CDB7DEB762970FB6F894DEBF0FBECDBFC1
:1008DE006C0184E798E79A8389831B8281E694E60C
:1008EE009D838C8383E690E09F838E8327EF30E099
:1008FE0040E085E0F901DE011896742F0E94530A3C
:10090E00CE0101969E878D870396988B8F870496CE
:10091E009A8B898B7E018DE0E80EF11C00E010E0D1
:10092E00F701619171917F0141E0C6010E94370686
:10093E00882341F0F801E85CFE4F0190F081E02D34
:10094E00099505C00E5F1F4F0630110549F76296D7
:10095E000FB6F894DEBF0FBECDBFDF91CF911F91C2
:0C096E000F91FF90EF90DF90CF90089564
:10097A001F920F920FB60F9211242F933F934F930A
:10098A005F936F937F938F939F93AF93BF93EF93ED
:10099A00FF9381E00E940F050E946C090E949A0849
:1009AA002FEF83ED90E3215080409040E1F700C0A3
:1009BA00000066B1607181E10E94930A66B16074B9
:1009CA0082E10E94930A2FEF83ED90E32150804049
:1009DA009040E1F700C000008FE00E94890A66B1EA
:1009EA00607482E10E94930A66B1607181E10E949B
:1009FA00930AFF91EF91BF91AF919F918F917F9150
:100A0A006F915F914F913F912F910F900FBE0F9071
:040A1A001F9018957C
:100A1E00CF92DF92EF92FF920F931F93CF93DF93BC
:100A2E00F82E60E089E00E947E0060E08AE00E947D
:100A3E007E0007E010E0CFE1EF2CCC24C394D12C44
:100A4E00DE2DB601002E02C0660F771F0A94E2F764
:100A5E006F218C2F0E947E00C15001501109CB31A5
:100A6E0079F70E942A0A03E010E0CFE1EE24E39426
:100A7E00F12CB701002E02C0660F771F0A94E2F721
:100A8E006D238C2F0E947E00C15001501109CB3175
:100A9E0081F70E942A0ADF91CF911F910F91FF904B
:080AAE00EF90DF90CF90089556
:100AB600CF92DF92EF92FF920F931F93CF93DF9324
:100AC600F82E60E089E00E947E0061E08AE00E94E4
:100AD6007E0007E010E0CFE1EF2CCC24C394D12CAC
:100AE600DE2DB601002E02C0660F771F0A94E2F7CC
:100AF6006F218C2F0E947E00C15001501109CB310D
:100B060079F70E942A0A03E010E0CFE1EE24E3948D
:100B1600F12CB701002E02C0660F771F0A94E2F788
:100B26006D238C2F0E947E00C15001501109CB31DC
:100B360081F70E942A0ADF91CF911F910F91FF90B2
:080B4600EF90DF90CF900895BD
:100B4E00AF92CF92EF920F9391B1987F983171F04F
:100B5E0091B1987F983251F0662329F191B1987F27
:100B6E00903321F091B1987F9032E9F483B9942FAC
:100B7E009370913049F028F0923061F0933069F023
:100B8E0020C084E886BF1DC04C2D6E2D802F0E9484
:100B9E00E5081AC084E986BF17C04C2D6E2D802F34
:100BAE000E94880911C091B1987F983369F4AA20E8
:100BBE0031F04C2D6E2D802F0E94E50805C084E883
:100BCE0086BF06B607FEFDCF81B10F91EF90CF9095
:040BDE00AF90089537
:100BE2000E940B0820E040E060E08FEF0E944C0979
:100BF20022E040E060E080E00E94E50890E00E9490
:100C02009A088DE20E945B05C1E480913E0191E069
:100C1200980F90933E01AA24A394CC24C394E12C70
:100C220001E022E040E061E00E94A70590E00E941E
:100C32009A088DE20E945B0580913E018B3560F03F
:100C4200C0933E012FEF83ED90E32150804090400E
:100C5200E1F700C00000D9CF2FEF81EE94E02150E0
:0C0C620080409040E1F700C00000CFCFC0
:100C6E00DC01E62FF72F29C0442319F18FEB820FF9
:100C7E008A3148F080818F7D81548A3120F08FE94E
:100C8E00820F8A31B0F42B3548F4622F70E0605E2B
:100C9E007F4F808190E068177907B9F460816B35DA
:100CAE0058F470E0605E7F4F30E06217730721F0FA
:100CBE000EC0808128130DC031962D912111D4CFF5
:100CCE00808181110AC081E0089580E0089580E05E
:100CDE00089580E0089580E008954423E1F3808133
:0A0CEE008F7D81548A3188F2CACF4D
:100CF80057980E940B0827E040E060E480E00E94DB
:100D08007F0A33988FE00E94890A16B817B8E8E17D
:100D1800F1E084E5808385E681839DE6928390E710
:100D2800938392E79483858324E7268325E72783A3
:100D3800908781878AE382871386CF010E940809FA
:100D48000E94DB0ABC01990F880B990B0E94C1060F
:100D580020E93EE34AEF5EE30E94E00A0E94AD0A02
:100D6800CB010E949A0880E20E945B0583E40E94FE
:060D78005B05579A089587
:100D7E00E89409C097FB3EF4909580957095619527
:100D8E007F4F8F4F9F4F9923A9F0F92F96E9BB27DD
:100D9E009395F695879577956795B795F111F8CF59
:100DAE00FAF4BB0F11F460FF1BC06F5F7F4F8F4FC4
:100DBE009F4F16C0882311F096E911C0772321F0BA
:100DCE009EE8872F762F05C0662371F096E8862F52
:100DDE0070E060E02AF09A95660F771F881FDAF7A9
:0A0DEE00880F9695879597F90895F0
:100DF8001F920F920FB60F9211242F933F934F9388
:100E08005F936F937F938F939F93AF93BF93EF936A
:100E1800FF93809143018F5F809343018F3F91F44B
:100E280081E10E94A50A61E0911160E081E10E94E0
:100E3800930A81E10E94A50A61E0911160E082E1D4
:100E48000E94930AFF91EF91BF91AF919F918F916B
:100E58007F916F915F914F913F912F910F900FBEAE
:060E68000F901F90189589
:100E6E001F920F920FB60F9211242F933F934F9311
:100E7E005F936F937F938F939F93AF93BF93EF93F4
:100E8E00FF938FB190E00E94C90A80913F0191E0DB
:100E9E00980F90933F010E949C0A80913F018B37DF
:100EAE0018F081E480933F016EB1607881E10E9479
:100EBE00930AFF91EF91BF91AF919F918F917F9187
:100ECE006F915F914F913F912F910F900FBE0F90A9
:040EDE001F901895B4
:100EE2001F920F920FB60F9211242F933F934F939D
:100EF2005F936F937F938F939F93AF93BF93EF9380
:100F0200FF9380914101882314F410924101809152
:100F1200410191E0980F9093410190E00E94CF0A25
:100F22008DE090E00E94CF0AFF91EF91BF91AF91C7
:100F32009F918F917F916F915F914F913F912F91EF
:0A0F42000F900FBE0F901F9018953E
:100F4C00CF93DF9357980E94750A60E080E10E946E
:100F5C00930A60E081E10E94930A60E082E10E94C2
:100F6C00930ADFEFC2E06C2F627080E10E94930A5B
:100F7C006C2F647081E10E94930A6C2F687082E17F
:100F8C000E94930AC83011F0CC0F01C0C2E08FE36D
:100F9C009CE90197F1F700C00000D15021F7579A56
:060FAC00DF91CF910895D2
:100FB2001F920F920FB60F9211242F933F934F93CC
:100FC2005F936F937F938F939F93AF93BF93EF93AF
:100FD200FF93809144018F5F809344018F3F49F4D6
:100FE20080E10E94A50A61E0911160E080E10E9427
:100FF200930AFF91EF91BF91AF919F918F917F9152
:101002006F915F914F913F912F910F900FBE0F9073
:041012001F9018957E
:101016000E94F8090E94390A82E00E940F058FE9B2
:101026009FE00197F1F700C0000088E20E940F05DB
:101036008FE99FE00197F1F700C000008FE00E9462
:101046000F058FE99FE00197F1F700C0000081E0EE
:101056000E940F058FE99FE00197F1F700C000009D
:1010660080E80E940F058FE99FE00197F1F700C025
:0410760000000895D9
:10107A000E94320988F09F5798F0B92F9927B751E3
:10108A00B0F0E1F0660F771F881F991F1AF0BA9522
:10109A00C9F714C0B13091F00E94B40AB1E00895C2
:1010AA000C94B40A672F782F8827B85F39F0B93FB4
:1010BA00CCF3869577956795B395D9F73EF49095D5
:0E10CA008095709561957F4F8F4F9F4F0895D1
:1010D80091B1987F9831C1F091B1987F9032A1F089
:1010E80091B1987F983481F091B1987F983261F0EE
:1010F80091B1987F903341F091B1987F903521F06C
:1011080091B1987F983579F4882341F0611102C034
:1011180086E001C087E082B984EF01C084EB86BF16
:0C11280006B607FEFDCF81B1887F089558
:101134000F931F93CF93DF93CDB7DEB72B970FB6E3
:10114400F894DEBF0FBECDBF8E010F5F1F4F2BE0A3
:10115400F80111922A95E9F74AE0B8010E94600A61
:10116400C8010E9408092B960FB6F894DEBF0FBE83
:0C117400CDBFDF91CF911F910F91089526
:101180001F920F920FB60F9211248F93EF93FF933C
:10119000E0914001E53970F4F0E0EE59FF4F8081B5
:1011A000803209F48DE08CB9809140018F5F80938B
:1011B000400103C0559810924001FF91EF918F912B
:0A11C0000F900FBE0F901F901895BE
:1011CA001F93CF93DF93D42F122F0E94E609C82FC3
:1011DA0090E00E949A08C83011F0C03141F413B966
:1011EA00D11102C084E801C084EC86BF04C0C111D9
:1011FA0002C084E986BF06B607FEFDCF81B1DF9142
:06120A00CF911F91089531
:101210001F93CF93DF93EC01892BC1F0888181115B
:101220000DC014C0103159F480EC0E940F058FE9F5
:101230009FE00197F1F700C0000001C010E0899124
:101240000E945B051F5F88818111ECCFDF91CF91F8
:041250001F9108954D
:1012540057FD9058440F551F59F05F3F71F0479563
:10126400880F97FB991F61F09F3F79F08795089548
:10127400121613061406551FF2CF4695F1DF08C067
:10128400161617061806991FF1CF86957105610584
:04129400089408951D
:1012980080B961FF09C060FF03C081B183600CC0E1
:1012A80081B18C7F826008C060FF04C081B18D7FEE
:1012B800816002C081B18C7F81B9442341F0211142
:1012C80002C086E001C087E082B984E486BF089541
:1012D800CF93DF9300D0CDB7DEB73D9B0AC084B172
:1012E80025B130E4839FC0011124922B9A8389830E
:1012F80004C084B1898385B18A8389819A810F90DA
:081308000F90DF91CF910895D1
:10131000CF93DF93C42FD22F0E946C08883041F402
:10132000D3B9C11102C084E801C084EC86BF04C0F7
:10133000811102C084E986BF06B607FEFDCF81B1E8
:06134000DF91CF9108953A
:10134600BB27FB015527AA27880F991FAA1FA41799
:1013560010F0A41B83955051B9F7A05DAA3308F08D
:10136600A95DA193009779F7B111B1931192CB01C1
:041376000C941A0AAF
:10137A000E940B088FE39CE90197F1F700C0000077
:10138A0088E191E00E9408098FE39CE90197F1F74F
:0A139A0000C0000078940E94F105E5
:1013A400CF93DF935798C0E0D0E0CE010E94C90AE2
:1013B4008DE090E00E94C90A2196C038D105A9F7B2
:0813C400579ADF91CF910895C3
:1013CC00882341F0611102C086E001C087E082B938
:1013DC0084EE01C084EA86BF06B607FEFDCF81B15C
:0413EC00887F089559
:1013F00061E08CE10E94080361E08DE10E94080336
:1014000061E08EE10E94080361E08FE10E94080321
:0214100008953D
:10141200092E0394000C11F4882352F0BB0F40F400
:10142200BF2B11F460FF04C06F5F7F4F8F4F9F4F40
:0214320008951B
:10143400DC01FC01672F71917723E1F7329704C037
:101444007C916D9370836291AE17BF07C8F30895C2
:1014540061E08BE00E947E008FE99FE00197F1F745
:0E14640000C0000060E08BE00E947E00089552
:1014720061E08AE00E94080361E089E00E940803BB
:0A14820061E08BE00E94080308956A
:10148C00529B08C08AB12CB1827090E0982F8827AB
:0A149C00822B08958CB190E00895B2
:1014A600992777FD05C005900D920197E1F70895FC
:0A14B60001900D920197E1F70895EF
:1014C000BB274A3031F4992322F4BDE290958195EF
:0614D0009F4F0C94A409DB
:1014D60090EF980F933020F461E00E94080308957E
:0414E60083E0089502
:1014EA0080E10E946B0A81E10E946B0A82E10E94FC
:0414FA006B0A0895DC
:1014FE002770286826B94072607C642B8F71682B28
:04150E0067B908951C
:101512008F3011F4369A0895807E80BF86B180663E
:0415220086B90895E9
:1015260090EF980F933018F40E947E00089583E0A0
:02153600089516
:10153800CF93C82F60E08CE00E947E00CFB9CF9196
:02154800089504
:10154A0090EF980F933008F08FEF0E947101089581
:0E155A000E943D086894B1110C94B50A0895E2
:0E156800E894BB2766277727CB0197F90895F3
:0E15760000240A941616170618060906089592
:0E15840000240A941216130614060506089594
:0C159200529903C05D9BFECF8CB90895F8
:0C159E00529903C05D9BFECF8CB90895EC
:0C15AA0097F99F6780E870E060E008950A
:0A15B600349BFECF0E946C090895DB
:0815C0000E9495030C94090A36
:0615C8009FEF80EC089586
:0415CE000C94000079
:1015D200696E20746865206E616D65206F6620619A
:1015E2006C6C616820746865206D6F73742067721B
:1015F2006163696F757320746865206D6F73742001
:101602006D6572636966756C207468656E206576B7
:10161200657279207468696E672077696C6C2062E4
:101622006520676F6F6420616E642069276C6C208F
:101632007374616E64206F6E20746F70206F662009
:1016420074686520776F726C64206C6F6F6B696E63
:10165200672068756D626C6520746F2068697320FD
:0616620067726163650080
:10166800696E20746865206E616D65206F66206103
:101678006C6C6168206D6F737420472026204D00C4
:06168800D2097C06A60752
:01168E00411A
:01168F004119
:00000001FF
